:020000040801F1
:10000000D8DD0020C1010108513F01086B22010821
:100010004D3F0108AF030108B5450108000000008D
:100020000000000000000000000000004140010846
:10003000E103010800000000533F010843400108AC
:10004000DB010108DB010108DB010108DB0101081C
:10005000DB010108DB010108DB010108DB0101080C
:10006000DB010108DB010108DB010108DB010108FC
:10007000DB010108DB010108DB010108DB010108EC
:10008000DB010108DB010108DB010108DB010108DC
:10009000DB010108DB010108DB010108DB010108CC
:1000A000DB010108DB010108DB010108DB010108BC
:1000B000DB010108DB010108B9410108DB0101088E
:1000C000DB010108DB010108DB010108DB0101089C
:1000D000DB010108DB010108DB010108DB0101088C
:1000E000E3030108DB010108DB010108DB01010872
:1000F000DB010108DB010108DB010108DB0101086C
:10010000DB010108DB010108DB010108DB0101085B
:10011000DB010108DB010108DB010108DB0101084B
:10012000DB010108DB010108DB010108DB0101083B
:10013000DB010108DB010108DB010108DB0101082B
:10014000DB010108DB010108DB010108DB0101081B
:10015000DB010108DB010108DB010108DB0101080B
:10016000DB010108DB010108DB010108DB010108FB
:10017000DB010108DB010108DB01010800000000D0
:10018000DB010108DB010108DB010108DB010108DB
:10019000DB010108DB010108DB010108DB010108CB
:1001A000DB010108DB010108B5030108DFF80CD011
:1001B00000F0C0F800480047CD340308D8DD002027
:1001C0000648804706480047FEE7FEE7FEE7FEE7F1
:1001D000FEE7FEE7FEE7FEE7FEE7FEE75541010822
:1001E000AD0101082DE9F05F0546002092469B46CF
:1001F00088460646814640241BE02846414647463D
:10020000224600F087F853465A46C01A914110D34F
:1002100011461846224600F06EF82D1A67EB0108C9
:100220004F4622460120002100F065F817EB000937
:100230004E41201EA4F10104DFDC484631462A4627
:100240004346BDE8F09F40EA01039B0703D009E065
:1002500008C9121F08C0042AFAD203E011F8013BB2
:1002600000F8013B521EF9D27047D2B201E000F80B
:10027000012B491EFBD270470022F6E710B513464A
:100280000A4604461946FFF7F0FF204610BD421CFF
:1002900010F8011B0029FBD1801A704710B500220D
:1002A00000E0521C835C8C5CA34201D1002BF8D18E
:1002B000D8B2E1B2401A10BD034611F8012B00F884
:1002C000012B002AF9D11846704730B50B4601467C
:1002D00000202022012409E021FA02F59D4205D3E5
:1002E00003FA02F5491B04FA02F52844151EA2F18F
:1002F0000102F1DC30BD202A04DB203A00FA02F1D1
:10030000002070479140C2F1200320FA03F3194303
:1003100090407047202A04DB203A21FA02F00021A5
:10032000704721FA02F3D040C2F120029140084305
:1003300019467047064C074D06E0E06840F001039F
:1003400094E8070098471034AC42F6D3FFF732FF29
:100350006C9303088C93030870B58C1810F8015B3C
:1003600015F0070301D110F8013B2A1106D110F84E
:10037000012B03E010F8016B01F8016B5B1EF9D152
:100380002B0705D40023521E0DD401F8013BFAE7D8
:1003900010F8013BCB1A921C03E013F8015B01F843
:1003A000015B521EF9D5A142D8D3002070BD00BF19
:1003B000FEE7000010B50848406800F0020048B1B0
:1003C0000548806840F002000349886003480068DF
:1003D00010F0B0F810BD000000B00240540500203D
:1003E000704710B54FF4806000F0D8F810BD70472A
:1003F00030B50246002300240868012816D013688F
:100400006FF30E03D1E901052843CD6828430D6938
:1004100028434D6928438D692843CD6928430D6AD7
:1004200028434D6A28430343136019E0136823F4FB
:10043000F843D1E9070528434D6A2843034354682C
:100440006FF30E04D1E901052843CD6828430D69F7
:1004500028434D6928438D69284304431360546041
:10046000002030BD0246506940EA41005061002042
:100470007047F8B506460C46154600200090002748
:10048000D4E900010843A168491E40EA4110E1682F
:1004900040EA412000900098306100F0A9F9074639
:1004A00009E0681C38B125B100F0A2F9C01BA842D0
:1004B00001D90320F8BDB06900F020002028F0D059
:1004C0000020F7E770B50346154600220024012DF1
:1004D0001FD09A6802F070420868401E4E68761E6F
:1004E00040EA06168868401E46EA0026C868401E94
:1004F00046EA0036088A401E46EA0046888A401EC0
:1005000046EA0056087E401E46EA006002439A60B2
:1005100022E09A6811480240C868401E0603888A93
:10052000401E46EA00500243DC6804F0704408684C
:10053000401E4E68761E40EA06168868401E46EA4F
:100540000026088A401E46EA0046087E401E46EA0B
:10055000006004439A60DC60002070BDFF0F0FFF55
:1005600070B5044600F044F906462546681C10B1F3
:1005700004480078054400BF00F03AF9801BA84207
:10058000FAD370BD14000020B0F5806F02D10121B4
:10059000014A1175704700002007002010B504467D
:1005A00004480068204020B1024804602046FFF75C
:1005B000EBFF10BD143C0140F8B502460B46002588
:1005C000002400200021E6E0012606FA01F51E685D
:1005D00006EA0504AC4273D15E68022E02D05E6862
:1005E000122E13D1CF0802F1200656F827004E072D
:1005F000F70E0F26BE40B0434F07FF0E1E69BE40E8
:100600003043CF0802F1200646F8270010684F005B
:100610000326BE40B0431E7906F003064F00BE40DD
:10062000304310605E68012E08D05E68022E05D04F
:100630005E68112E02D05E68122E13D190684F00B2
:100640000326BE40B0434F00DE68BE40304390609A
:10065000506801268E40B0431E79C6F300168E40C6
:1006600030435060D0684F000326BE40B0434F0077
:100670009E68BE403043D0605E6806F08056B6F19A
:10068000805FA8D100BF00260096454E366846F42C
:100690008046434F3E603E46366806F480460096EC
:1006A00000BF00BF3F4E8F0856F827008E07370F58
:1006B0000F26BE40B0433C4EB24202D100262EE08F
:1006C00068E03A4EB24201D1012628E0384EB242EB
:1006D00001D1022623E0374EB24201D103261EE0AB
:1006E000354EB24201D1042619E0344EB24201D156
:1006F000052614E0324EB24201D106260FE0314EFB
:10070000B24201D107260AE02F4EB24201D108269B
:1007100005E02E4EB24201D1092600E00A268F07DD
:100720003F0FBE4030431F4E8F0846F82700284E2B
:100730003068A0435E6806F48036B6F5803F00D18D
:100740002043234E3060361D3068A0435E6806F4B7
:100750000036B6F5003F00D120431D4E361D3060F7
:10076000361D3068A0435E6806F48016B6F5801F1B
:1007700000D12043164E08363060361D3068A04345
:100780005E6806F40016B6F5001F00D12043104E37
:100790000C363060491C1029FFF416AFF8BD00007C
:1007A0004438024008380140000002400004024082
:1007B00000080240000C02400010024000140240F9
:1007C00000180240001C02400020024000240240A9
:1007D000003C0140024613690B400BB1012000E0D0
:1007E000002070470AB1816101E00B04836170470A
:1007F00001480068704700000C000020024692F893
:100800003D0020281ED1242082F83D001068006899
:1008100020F00100136818601068406A20F0100092
:10082000136858621068406A084313685862106879
:10083000006840F0010013681860202082F83D0035
:10084000002070470220FCE710B502460B4600214D
:1008500092F83D0020281DD1242082F83D00106828
:10086000006820F00100146820601068406A81B2BE
:1008700021F00F0141EA030081B210684162106863
:10088000006840F0010014682060202082F83D00DC
:10089000002010BD0220FCE770B504460CB9012011
:1008A00070BD94F83D0028B9002084F83C00204633
:1008B00000F002FB242084F83D002068006820F04E
:1008C00001002168086001F009F805465C4960688C
:1008D000884206D85B48854201D2012007E000200B
:1008E00005E05948854201D2012000E0002001289E
:1008F00000D1D5E75548B5FBF0F62068406820F0F8
:100900003F003043216848604D496068884201D803
:10091000701C07E04FF4967070434FF47A71B0FB8F
:10092000F1F0401C2168096A21F03F010843216869
:10093000086243496068884214D8681E61684900AB
:10094000B0FBF1F0401CC0F30B00042801D20420DE
:100950003DE0681E61684900B0FBF1F0401CC0F347
:100960000B0034E0A06838B9681E616801EB4101F2
:10097000B0FBF1F0401C0AE0681E616801EBC102A7
:1009800002EB0111B0FBF1F0401C40F48040C0F3D9
:100990000B0008B901201AE0A06848B9681E616818
:1009A00001EB4101B0FBF1F0401CC0F30B000CE087
:1009B000681E616801EBC10202EB0111B0FBF1F0AE
:1009C000401CC0F30B0040F4804040F4004021681C
:1009D000C9694CF6FF72914308432168C861D4E9A4
:1009E000070108432168096821F0C0010843216814
:1009F0000860D4E9031008432168896848F2FF328F
:100A00009143084321688860D4E9050108432168BF
:100A1000C96821F0FF0108432168C86020680068A8
:100A200040F001002168086000202064202084F844
:100A30003D000020206384F83E0000BF30E7000046
:100A4000A086010080841E0000093D0040420F0086
:100A50002DE9F8430446894617469846089EFFF755
:100A6000C7FE054694F83D0020287DD119230122B8
:100A7000B2492046009501F025FD10B10220BDE8E5
:100A8000F88300BF94F83C00012801D10220F6E76A
:100A9000012084F83C0000BF2068006800F00100DD
:100AA00028B92068006840F00100216808602068CB
:100AB000006820F4006021680860222084F83D006E
:100AC000102084F83E00002020646762A4F82A8089
:100AD000608D20859A48E0622B4632464946204682
:100AE00001F0E4FB08B10120C9E7208D88B900BFFF
:100AF0000020009020684069009020688069009084
:100B000000BF00BF2068006840F4007021680860E2
:100B100047E0208D012817D12068006820F480600C
:100B20002168086000BF00200090206840690090A4
:100B300020688069009000BF00BF2068006840F412
:100B40000070216808602CE0208D022818D12068F0
:100B5000006820F48060216808602068006840F424
:100B600000602168086000E0E6E000BF002000901F
:100B700020684069009020688069009000BF10E004
:100B80002068006840F480602168086000BF002091
:100B9000009020684069009020688069009000BF44
:100BA00000BFBAE0208D03287ED8208D012815D102
:100BB0002A463146204601F02AFD08B101205EE7B1
:100BC00020680069616A0870606A401C6062208D5C
:100BD000401E2085608D401E60859EE0208D02288D
:100BE0002AD13346002257492046009501F06AFC7D
:100BF00008B1012043E72068006840F400702168D4
:100C0000086020680069616A0870606A401C606260
:100C1000208D401E2085608D401E60852068006903
:100C2000616A0870606A401C6062208D401E2085E9
:100C3000608D401E608570E03346002241492046A9
:100C4000009501F03FFC08B1012018E7206800681A
:100C500020F480602168086020680069616A08707B
:100C6000606A401C6062208D401E2085608D401EA1
:100C700060853346002233492046009501F022FC6E
:100C800008B10120FBE62068006840F4007021688C
:100C9000086020680069616A0870606A401C6062D0
:100CA000208D401E208500E010E0608D401E608594
:100CB00020680069616A0870606A401C6062208D6B
:100CC000401E2085608D401E608526E02A46314604
:100CD000204601F09CFC08B10120D0E620680069A4
:100CE000616A0870606A401C6062208D401E208529
:100CF000608D401E608520684069C0F3800060B14F
:100D000020680069616A0870606A401C6062208D1A
:100D1000401E2085608D401E6085208D00287FF458
:100D200041AF202084F83D00002084F83E0000BF41
:100D300084F83C0000BFA2E60220A0E602001000FA
:100D40000000FFFF040001002DE9F8430446894636
:100D500016461F46DDF82080FFF74AFD054694F849
:100D60003D0020287ED119230122514920460095BB
:100D700001F0A8FB10B10220BDE8F88300BF94F891
:100D80003C00012801D10220F6E7012084F83C0054
:100D900000BF2068006800F0010028B920680068E2
:100DA00040F00100216808602068006820F40060BD
:100DB00021680860212084F83D00102084F83E005E
:100DC0000020206466626785608D20853948E06276
:100DD0002B4642464946204601F0F0FA08B1012070
:100DE000CAE700BF0020009020684069009020689A
:100DF0008069009000BF00BF44E02A46414620467B
:100E000001F045FC50B1206C042805D12068006831
:100E100040F40070216808600120ADE7606A007846
:100E200021680861606A401C6062608D401E6085B8
:100E3000208D401E208520684069C0F3800070B17D
:100E4000208D60B1606A007821680861606A401C8A
:100E50006062608D401E6085208D401E20852A4680
:100E6000414600E022E0204601F0FEFA50B1206C3D
:100E7000042805D12068006840F4007021680860EB
:100E8000012079E7208D0028B7D12068006840F460
:100E9000007021680860202084F83D00002084F85C
:100EA0003E0000BF84F83C0000BF65E7022063E716
:100EB000020010000000FFFF10B586B004461421A8
:100EC00001A8FFF7D9F91B492068884230D100BF3B
:100ED000002000901848006840F080001649086023
:100EE0000846006800F08000009000BF00BF4FF48B
:100EF000C070019012200290012003900320049002
:100F00000420059001A90D48FFF756FB00BF002003
:100F1000009009481030006840F400000649103184
:100F200008600846006800F40000009000BF00BFA1
:100F300006B010BD005C004030380240001C02408A
:100F4000034800680349097808440149086070476C
:100F50000C0000201400002010B50D48006840F47B
:100F600000700B4908600846006840F48060086023
:100F70000846006840F480700860032000F022FA00
:100F8000002000F007F800F0ABF9002010BD0000D1
:100F9000003C024070B504460E4800784FF47A7168
:100FA000B1FBF0F00C490968B1FBF0F5284601F0FF
:100FB0005AF808B1012070BD102C07D2002221463A
:100FC000501E00F0C1F90548046001E00120F2E77D
:100FD0000020F0E71400002018000020100000207E
:100FE00070B504460E46154600BF94F8A0000128CF
:100FF00001D1022070BD012084F8A00000BF0220B2
:1010000084F8A10005EB850101EBC50204F138016C
:1010100001EB820034223146FFF715F92A463146AA
:10102000204602F08BFE01202168486284F8A1006E
:1010300000BF002084F8A00000BF00BFDAE7000076
:1010400070B504460CB9012070BD94F8A10028B910
:10105000002084F8A000204600F07EF8022084F8EA
:10106000A1002068806920F0704021688861D4E97F
:1010700001010843E168084321690843216889693F
:1010800008432168886120688068324908402168E7
:101090008860A08A050420688068A1692943084304
:1010A000216888602068C0682A4908402168C860B3
:1010B000A08B05042068C068216A29430843216881
:1010C000C860206800692349084021680861A08C35
:1010D000050420680069A16A294308432168086162
:1010E000206840691B49084021684861A08D0504BB
:1010F00020684069216B294308432168486194F8BE
:101100003500050294F8360006042068C06A00F035
:101110007F402168C86246EA050094F8341008430D
:101120002168C96A08432168C8622068406B40F0A2
:101130000600216848632068806940F0010021684A
:1011400088610020C4F8A400012084F8A1000020D8
:101150007AE7000000F800F010B586B004461421CC
:1011600001A8FFF789F85749206888427ED100BF5F
:10117000002000905448006840F0806052490860A8
:101180000846006800F08060009000BF00BF00BF0C
:10119000002000904C481438006840F400004A4990
:1011A000143908600846006800F40000009000BF91
:1011B00000BF00BF002000900846006840F4807027
:1011C00008600846006800F48070009000BF00BF0F
:1011D00000BF002000900846006840F02000086032
:1011E0000846006800F02000009000BF00BF00BF6C
:1011F000002000900846006840F080000860084623
:10120000006800F08000009000BF00BF00BF002019
:1012100000900846006840F04000086008460068FA
:1012200000F04000009000BF00BF40F2F760019066
:101230000220029000200390022004900E200590CE
:1012400001A92248FFF7B8F94FF48060019002200D
:10125000029000200390022004900E20059001A926
:101260001B48FFF7A9F94FF47E4000E027E001900A
:101270000220029000200390022004900E2005908E
:1012800001A91448FFF798F94FF40C60019002206F
:10129000029000200390022004900E20059001A9E6
:1012A0000D48FFF789F902200190012002900020EB
:1012B00003900220049001A90848FFF77DF906B0C9
:1012C00010BD000000680140443802400020024088
:1012D00000140240001C02400018024000000240BE
:1012E00008B500BF002000900E48006840F4804020
:1012F0000C4908600846006800F48040009000BF78
:1013000000BF00BF00200090081F006840F0805020
:10131000091F08600846006800F08050009000BF78
:1013200000BF08BD4438024001460846002809DBDA
:1013300000F01F0301229A4043099B0003F1E023C0
:10134000C3F8002100BF70472DE9F05F80460D46CD
:101350001646002703F072F9074639462A463346F7
:1013600001F00700C0F1070ABAF1040F02D94FF0EB
:10137000040A01E0C0F1070AD14600F1040ABAF1FB
:10138000070F02D24FF0000A01E0A0F1030AD44691
:101390004FF0010A0AFA09FAAAF1010A0AEA020A56
:1013A0000AFA0CFA4FF0010B0BFA0CFBABF1010B34
:1013B0000BEA030B4AEA0B042146404603F046F9C8
:1013C000BDE8F09F00BF00F00702064B19684FF61A
:1013D000FF031940044B0B4343EA0221014B196000
:1013E00000BF70470CED00E00000FA0538B500249E
:1013F00000BF002000901D48006840F080501B494D
:1014000008600846006800F08050009000BF00BFF0
:10141000012017490864FFF7EBF9044607E0FFF7DE
:10142000E7F9001BB0F57A7F01D9032038BD1148D8
:10143000406800F48030B0F5803FF0D101200C49C5
:101440004864FFF7D5F9044607E0FFF7D1F9001B20
:10145000B0F57A7F01D90320E8E70648406800F438
:101460000030B0F5003FF0D10020DFE74038024007
:1014700000000E4200700040F8B50446002500262A
:10148000207800F0010020B9207800F00200022846
:1014900052D10020A8498866FFF7AAF9054606E060
:1014A000FFF7A6F9401B022801D90320F8BDA34885
:1014B0000068C0F3C0600028F2D1207800F001007D
:1014C00038B160688101207A41EA00709B4984311B
:1014D0000860207800F00200022819D19748843073
:1014E0000068C0F3027660688101207B41EA0060F9
:1014F00040EA067091498431086090488C30006859
:1015000020F01F00E169491E08438C498C310860B6
:10151000012089498866FFF76BF9054606E0FFF769
:1015200067F9401B022801D90320BFE78348006800
:10153000C0F3C0600028F2D0207800F00400042836
:1015400004D0207800F00800082863D100207A49F0
:101550000867FFF74DF9054606E0FFF749F9401B1C
:10156000022801D90320A1E774480068C0F3407045
:101570000028F2D1207800F00400042819D16F4827
:1015800088300068C0F3027620698101207D41EA3D
:10159000006040EA0670694988310860081D0068EB
:1015A00020F4F851206A401E41EA002063498C3142
:1015B0000860207800F00800082817D15F488830BC
:1015C0000068C0F303662069800140EA0661207E5E
:1015D00041EA0070594988310860081D006820F40C
:1015E0004030616A084355498C31086001205249F6
:1015F0000867FFF7FDF8054606E0FFF7F9F8401B1E
:10160000022801D9032051E74C480068C0F340701C
:101610000028F2D0207800F0200020287ED100BFE2
:101620000020009045484030006840F08050434919
:10163000403108600846006800F08050009000BF0C
:1016400000BF3F48006840F480703D490860FFF7E4
:10165000CFF8054606E0FFF7CBF8401B022801D97A
:10166000032023E73648006800F480700028F2D099
:1016700032487030006800F440764EB3208D00F49C
:101680004070B04224D02D487030006820F440767D
:1016900001202C490860002008602848703006604E
:1016A000006800F0010098B1FFF7A2F8054608E0D5
:1016B000FFF79EF8401B41F28831884201D9032090
:1016C000F4E61E4870300068C0F340000028EFD0F8
:1016D00000BF208D00F44070B0F5407F0CD117485A
:1016E0000830006820F4F810174AA16A1140084336
:1016F00012490831086007E010480830006820F4FB
:10170000F8100E49083108600C4870300068218DCF
:10171000C1F30B0108430949703100E001E00860A2
:1017200000BF207800F01000102803D194F82C009E
:10173000064908600020B9E6000047420038024030
:1017400000700040400E4742FFFCFF0FE01147428F
:1017500070B504460D460CB9012070BD58480068AC
:1017600000F00F00A84209D255490D7008460068E4
:1017700000F00F00A84201D00120EEE7207800F031
:10178000020002281DD1207800F00400042805D1B1
:101790004C48006840F4E0504A490860207800F066
:1017A0000800082805D14748006840F460404549D2
:1017B00008604448006820F0F000A16808434149EF
:1017C0000860207800F00100A8B36068012807D104
:1017D0003C4808380068C0F34040B8B90120BCE775
:1017E0006068022802D06068032807D135480838AD
:1017F0000068C0F3406048B90120AEE731480838BE
:101800000068C0F3400008B90120A6E72D48006831
:1018100020F00300616808432A490860FEF7E8FFEA
:10182000064609E0FEF7E4FF801B41F2883188425A
:1018300002D9032091E707E02248006800F00C007D
:101840006168B0EB810FEDD11D48006800F00F001A
:10185000A84209D91A490D700846006800F00F0027
:10186000A84201D0012078E7207800F00400042885
:1018700007D11448006820F4E050E168084311499A
:101880000860207800F00800082808D10D4800689A
:1018900020F46040216940EAC1000A49086000F074
:1018A0003DF808490968C1F30311074A515CC84073
:1018B000064908600020FFF76DFB00204DE700009F
:1018C000003C0240083802408A5F030818000020EC
:1018D00001480068704700001800002000B5FFF7BD
:1018E000F7FF04490968C1F38221034A515CC840EB
:1018F00000BD0000083802409A5F030800B5FFF7FA
:10190000E7FF04490968C1F34231034A515CC8400A
:1019100000BD0000083802409A5F03082DE9F04737
:10192000002400250026A1462548006800F00C0090
:1019300020B1042805D008283AD105E0DFF88490CA
:1019400039E0DFF8849036E01D48001F006800F0A1
:101950003F041B48001F006800F4800078B11A485B
:101960001749091F0968C1F38811A0FB01700146DE
:10197000224600233846FEF735FC05460EE01148A6
:101980000F49091F0968C1F38811A0FB01700146C6
:10199000224600233846FEF725FC05460848001F6E
:1019A0000068C0F30140401C4600B5FBF6F902E0B8
:1019B000DFF8109000BF00BF4846BDE8F087000088
:1019C000083802400024F40040787D01F8B5044650
:1019D0000CB90120F8BD207800F00100002874D077
:1019E000F948006800F00C0004280DD0F6480068A3
:1019F00000F00C00082813D1F348001F006800F421
:101A00008000B0F5800F0BD1EF4808380068C0F3B4
:101A10004040002859D06068002856D10120D9E7FD
:101A200000BF6068B0F5803F08D1E748083800681B
:101A300040F48030E449083908601EE06068B0F581
:101A4000A02F0DD1E0480838006840F48020DE491E
:101A5000083908600846006840F4803008600CE0EF
:101A6000D9480838006820F48030D7490839086020
:101A70000846006820F48020086000BF606890B1CC
:101A8000FEF7B6FE054606E0FEF7B2FE401B6428F0
:101A900001D903209EE7CC4808380068C0F34040D5
:101AA0000028F1D011E0FEF7A3FE054606E0FEF7A0
:101AB0009FFE401B642801D903208BE7C2480838E9
:101AC0000068C0F340400028F1D1207800F0020007
:101AD00002285FD1BC48006800F00C0058B1BA4839
:101AE000006800F00C0008281CD1B748001F0068EF
:101AF00000F48000B0B9B44808380068C0F3400072
:101B000020B1E068012801D0012063E7AE48083821
:101B1000006820F0F800216940EAC100AA490839AC
:101B2000086037E0E06800B30120A8490860FEF7CC
:101B30005FFE054606E0FEF75BFE401B022801D96A
:101B4000032047E7A04808380068C0F34000002899
:101B5000F1D09D480838006820F0F800216940EA7B
:101B6000C10099490839086014E0002097490860CD
:101B7000FEF73EFE054606E0FEF73AFE401B022851
:101B800001D9032026E7904808380068C0F34000D8
:101B90000028F1D1207800F0080008282CD16069D5
:101BA000A8B101208A490860FEF722FE054606E03A
:101BB000FEF71EFE401B022801D903200AE78248D7
:101BC0006C300068C0F340000028F1D014E0002021
:101BD0007F490860FEF70CFE054606E0FEF708FEAA
:101BE000401B022801D90320F4E677486C300068D6
:101BF000C0F340000028F1D1207800F00400042850
:101C000070D1002670483830006800F0805090B9DC
:101C100000BF002000906C483830006840F08050D1
:101C20006949383108600846006800F0805000902B
:101C300000BF00BF01266748006800F48070B0B99B
:101C40006448006840F4807062490860FEF7D0FD87
:101C5000054606E0FEF7CCFD401B022801D9032013
:101C6000B8E65C48006800F480700028F2D000BF3D
:101C7000A068012808D154486830006840F001008D
:101C80005149683108601DE0A06805280DD14E4813
:101C90006830006840F004004B496831086008462D
:101CA000006840F0010008600CE0474868300068B8
:101CB00020F001004449683108600846006820F0BF
:101CC0000400086000BFA068A8B1FEF791FD0546BA
:101CD00009E0FEF78DFD401B41F28831884202D9B0
:101CE000032077E626E0384868300068C0F34000FB
:101CF0000028EED013E0FEF77BFD054608E0FEF776
:101D000077FD401B41F28831884201D9032061E60A
:101D10002D4868300068C0F340000028EFD1012E44
:101D200007D129483830006820F0805026493831E2
:101D3000086000BFA069B8B32348006800F00C0039
:101D400008285ED0A069022846D100201F490866F5
:101D5000FEF74EFD054606E0FEF74AFD401B022851
:101D600001D9032036E6184808380068C0F34060FF
:101D70000028F1D1D4E907010843616A40EA8111E2
:101D80000122A06AC2EB500041EA00412C20005D14
:101D900041EA00600C49091F086001200B490866F0
:101DA000FEF726FD054607E02DE0FEF721FD401B6E
:101DB000022801D903200DE6034808380068C0F363
:101DC00040600028F1D01EE0083802400000474281
:101DD000800E47420070004000200C490866FEF764
:101DE00007FD054606E0FEF703FD401B022801D96A
:101DF0000320EFE506480068C0F340600028F2D1F8
:101E000001E00120E6E50020E4E500000000474293
:101E10000038024070B504460D460CB9012070BD73
:101E200094F82C0028B9002084F82D00204600F0FA
:101E300011F8022084F82C00211D2068FEF7D8FA42
:101E40002946D4E90002FEF73DFB012084F82C006E
:101E50000020E4E710B586B0044600BF00200090E3
:101E60006248006840F00100604908600846006868
:101E700000F00100009000BF00BF00BF00200090F4
:101E80005A480838006840F004005849083908608A
:101E90000846006800F00400009000BF00BF00BFCB
:101EA000002000900846006840F0200008600846C6
:101EB000006800F02000009000BF00BF00BF0020BD
:101EC00000900846006840F08000086008460068FE
:101ED00000F08000009000BF00BF00BF0020009015
:101EE0000846006840F0400008600846006800F0BE
:101EF0004000009000BF00BF00BF002000900846D7
:101F0000006840F0100008600846006800F010000B
:101F1000009000BF00BF00BF00200090084600688E
:101F200040F0080008600846006800F008000090D3
:101F300000BF00BF00BF002000900846006840F0CE
:101F4000010008600846006800F00100009000BF32
:101F500000BF4FF63F000190022002900020039046
:101F6000032004900C20059001A92148FEF724FBD2
:101F70000D20019002200290002003900320049085
:101F80000C20059001A91B48FEF716FB48F23710FC
:101F900001900220029000200390032004900C2066
:101FA000059001A91448FEF707FB4FF683700190D6
:101FB0000220029000200390032004900C20059042
:101FC00001A90E48FEF7F8FA4CF2037001900220C6
:101FD000029000200390032004900C20059001A99A
:101FE0000748FEF7E9FA06B010BD00003838024095
:101FF0000014024000080240001802400010024095
:10200000000C024070B504460D4694F82C000228DE
:1020100000D170BD022084F82C0029462068FEF70C
:1020200021FA012084F82C000020F2E770B5044664
:102030000D46164694F82C00022800D170BD0220EF
:1020400084F82C00324629462068FEF712FA2868E8
:10205000022803D1052084F82C0002E0012084F836
:102060002C000020EAE770B504462546681EB0F152
:10207000807F01D301200FE0681E4FF0E02148610E
:102080000F214FF0FF3002F0E1FA00204FF0E02185
:10209000886107200861002070BD10B504460CB9A6
:1020A000012010BDA06900B100E000BF94F8390024
:1020B00028B9002084F83800204600F027F82420B2
:1020C00084F839002068C06820F400502168C86096
:1020D000204602F085F82068006920F490402168CD
:1020E00008612068406920F02A0021684861206862
:1020F000C06840F400502168C8600020E0632020E0
:1021000084F8390084F83A000020CAE710B586B098
:102110000446142101A8FEF7AFF81B492068884245
:1021200030D100BF002000901848006840F0100037
:10213000164908600846006800F01000009000BFD3
:1021400000BF00BF0020009010481438006840F025
:1021500001000E49143908600846006800F00100CB
:10216000009000BF00BF4FF4C060019002200290B9
:1021700001200390032004900720059001A9044842
:10218000FEF71AFA06B010BD0010014044380240B4
:10219000000002402DE9F84304460D4616461F464E
:1021A0004FF0000994F8390020285CD105B116B928
:1021B0000120BDE8F88300BF94F83800012801D160
:1021C0000220F6E7012084F8380000BF0020E06319
:1021D000212084F83900FEF70BFB8146A684E684B3
:1021E0002BE0E08C401EE084A068B0F5805F16D143
:1021F0004B46002280212046009702F0A5F908B145
:102200000320D6E7A846B8F80000C0F3080021680C
:102210004860206908B9AD1C0FE06D1C0DE04B460D
:10222000002280212046009702F08EF908B1032099
:10223000BFE715F8010B21684860E08C0028D0D179
:102240004B46002240212046009702F07DF908B15C
:102250000320AEE7202084F8390000BF002084F876
:10226000380000BFA5E70220A3E700BFFEE7014654
:1022700008684069C0F38020B0B16FF480600A68DC
:10228000506100200863202081F83D00002081F883
:102290003E00086C40F00400086400BF002081F894
:1022A0003C0000BF012070470020FCE72DE9F84307
:1022B00004460D4690461E46E76A2068006840F4D2
:1022C000806021680860082F04D0012F02D017F524
:1022D000803F06D12068006840F480702168086063
:1022E00008E0206B112805D12068006840F4807058
:1022F00021680860434600224FF0011120460096F5
:1023000000F0E0F810B10120BDE8F8832069B0F5D5
:10231000804F05D1E8B240F00100216808613FE03C
:1023200005F44070F02141EAE0102168086133466D
:1023300042462149204600F008F908B10120E3E7B0
:10234000E8B221680861334642461B49891F20468E
:1023500000F0FBF808B10120D6E700BF0020009094
:1023600020684069009020688069009000BF00BF2D
:102370002068006840F480702168086043460022AD
:102380004FF001112046009600F09CF808B10120A2
:10239000BAE705F44070F12141EAE01021680861D4
:1023A000334642460449891F204600F0CEF808B162
:1023B0000120A9E70020A7E7080001002DE9F84364
:1023C00004460D4617469846E66A082E04D0012EAC
:1023D00002D016F5803F06D12068006840F4807076
:1023E0002168086008E0206B122805D12068006889
:1023F00040F48070216808603B4600224FF00111D4
:102400002046CDF8008000F05DF810B10120BDE855
:10241000F8832069B0F5804F04D105F0FE002168F3
:10242000086112E005F44070F02141EAE0102168F3
:10243000086143463A460B49204600F086F808B149
:102440000120E4E7E8B22168086143463A460549BD
:10245000891F204600F079F808B10120D7E7002055
:10246000D5E700000800010070B504460D46164689
:1024700020E02046FFF7FBFE08B1012070BD681C7C
:10248000C0B1FEF7B5F9801BA84200D895B900206D
:102490002063202084F83D00002084F83E00206C5A
:1024A00040F02000206400BF002084F83C0000BF02
:1024B0000120E3E720684069C0F380000028D8D0FD
:1024C0000020DBE72DE9F04104460D4617461E4685
:1024D000DDF818801CE0701CD0B1FEF789F9A0EB84
:1024E0000800B04200D89EB900202063202084F864
:1024F0003D00002084F83E00206C40F02000206465
:1025000000BF002084F83C0000BF0120BDE8F0813E
:10251000C5F3074001280AD120684069A9B20840E4
:10252000A9B2884201D101200BE0002009E0206817
:102530008069A9B20840A9B2884201D1012000E017
:102540000020B842C7D00020E0E72DE9F041044662
:102550000D4616461F463DE020684069C0F38020C6
:10256000E8B12068006840F40070216808606FF4EA
:1025700080602168486100202063202084F83D00AD
:10258000002084F83E00206C40F00400206400BF6E
:10259000002084F83C0000BF0120BDE8F081701CE1
:1025A000C0B1FEF725F9C01BB04200D896B9002093
:1025B0002063202084F83D00002084F83E00206C39
:1025C00040F02000206400BF002084F83C0000BFE1
:1025D0000120E2E7C5F3074001280AD120684069DD
:1025E000A9B20840A9B2884201D101200BE0002025
:1025F00009E020688069A9B20840A9B2884201D1E7
:10260000012000E000200028A6D00020C5E770B51A
:1026100004460D46164632E020684069C0F30010BB
:10262000A0B16FF0100021684861002020632020D5
:1026300084F83D00002084F83E00206C206400BF38
:10264000002084F83C0000BF012070BDFEF7D0F8E8
:10265000801BA84200D895B900202063202084F870
:102660003D00002084F83E00206C40F020002064F3
:1026700000BF002084F83C0000BF0120E5E720688F
:102680004069C0F380100028C6D00020DDE770B597
:1026900004460D46164620E02046FFF7E8FD08B147
:1026A000012070BD681CC0B1FEF7A2F8801BA842D3
:1026B00000D895B900202063202084F83D00002038
:1026C00084F83E00206C40F02000206400BF002011
:1026D00084F83C0000BF0120E3E720684069C0F3B4
:1026E000C0100028D8D00020DBE7000010B5802102
:1026F0000348FEF76FF808B9002010BD0120FCE781
:10270000000C02400120704710B504210348FEF779
:1027100061F808B9002010BD0120FCE7001C024050
:1027200010B501210448FEF755F8012801D1002019
:1027300010BD0120FCE700000000024000B587B09A
:10274000142102A8FDF798FD00BF00200190FE486B
:10275000006840F00400FC4908600846006800F08A
:102760000400019000BF00BF00BF00200190084698
:10277000006840F0010008600846006800F00100B1
:10278000019000BF00BF00BF002001900846006814
:1027900040F0020008600846006800F00200019066
:1027A00000BF00BF8020029001200390049003200E
:1027B000059002A9E548FDF7FFFE3020029002A92E
:1027C000E348FDF7F9FE0120029002A9E148FDF778
:1027D000F3FE01228021DD48FEF704F8022003F019
:1027E00057FC00228021D948FDF7FCFF022003F0AE
:1027F0004FFC01228021D548FDF7F4FF142003F09F
:1028000047FC4FF4704001F0D7FE552001F0F0FE78
:102810004FF2010001F0D0FEAA2001F0E9FE4FF2D4
:10282000020001F0C9FE522001F0E2FE4FF2030067
:1028300001F0C2FE082001F0DBFE4FF2040001F0BF
:10284000BBFE012001F0D4FE4FF4304001F0B4FE95
:102850000D2001F0CDFE4BF2010001F0ADFE0D2088
:1028600001F0C6FE4BF2020001F0A6FE0D2001F0C1
:10287000BFFE4FF4364001F09FFE342001F0B8FE59
:102880004BF2016001F098FE342001F0B1FE4BF2F2
:10289000026001F091FE342001F0AAFE4FF43140B5
:1028A00001F08AFE0D2001F0A3FE4BF2011001F0B1
:1028B00083FE0D2001F09CFE4BF2021001F07CFE25
:1028C0000D2001F095FE4FF4374001F075FE3420E5
:1028D00001F08EFE4BF2017001F06EFE342001F02B
:1028E00087FE4BF2027001F067FE342001F080FE9B
:1028F0004FF4324001F060FE002001F079FE4BF20F
:10290000012001F059FE002001F072FE4BF202207E
:1029100001F052FE002001F06BFE4FF4384001F050
:102920004BFE242001F064FE4BF6010001F044FE52
:10293000242001F05DFE4BF6020001F03DFE242054
:1029400001F056FE4FF43F4001F036FE012001F049
:102950004FFE4FF4334001F02FFE0F2001F048FEF0
:102960004BF2013001F028FE0F2001F041FE4BF246
:10297000023001F021FE0F2001F03AFE4FF4394001
:1029800001F01AFE342001F033FE4BF6011001F085
:1029900013FE342001F02CFE4BF6021001F00CFE69
:1029A000342001F025FE4FF4354001F005FE0820EB
:1029B00001F01EFE4BF2015001F0FEFD082001F077
:1029C00017FE4BF2025001F0F7FD082001F010FE57
:1029D0004FF4424001F0F0FD032001F009FE4FF4F6
:1029E0003A4001F0E9FD242001F002FE4BF60120FF
:1029F00001F0E2FD242001F0FBFD4BF6022001F086
:102A0000DBFD242001F0F4FD4FF43C4001F0D4FD47
:102A1000002001F0EDFD4BF6014001F0CDFD7820E6
:102A200001F0E6FD4BF6024001F0C6FD002001F08A
:102A3000DFFD4FF43D4001F0BFFD002001F0D8FD67
:102A40004BF6015001F0B8FD782001F0D1FD4BF6B6
:102A5000025001F0B1FD002001F0CAFD4FF43E40EC
:102A600001F0AAFD002001F0C3FD4BF6016001F06A
:102A7000A3FD642001F0BCFD4FF4514001F09CFD2A
:102A8000002001F0B5FD4DF2011001F095FD33205D
:102A900001F0AEFD4DF2021001F08EFD002001F0BC
:102AA000A7FD4DF2031001F087FD342001F0A0FDD9
:102AB0004DF2041001F080FD002001F099FD4DF26F
:102AC000051001F079FD3A2001F092FD4DF206105B
:102AD00001F072FD002001F08BFD4DF2071001F0B6
:102AE0006BFD4A2001F084FD4DF2081001F064FDF9
:102AF000002001F07DFD4DF2091001F05DFD5C202C
:102B000001F076FD4DF20A1001F056FD002001F0B3
:102B10006FFD4DF20B1001F04FFD812001F068FDBB
:102B20004DF20C1001F048FD002001F061FD4DF266
:102B30000D1001F041FDA62001F05AFD4DF20E10DE
:102B400001F03AFD002007E030380240000002406A
:102B5000000802400004024001F04AFD4DF20F104F
:102B600001F02AFDE52001F043FD4DF2101001F0C7
:102B700023FD012001F03CFD4DF2111001F01CFD80
:102B8000132001F035FD4DF2121001F015FD01206A
:102B900001F02EFD4DF2131001F00EFD542001F056
:102BA00027FD4DF2141001F007FD012001F020FD7A
:102BB0004DF2151001F000FD822001F019FD4DF2DB
:102BC000161001F0F9FC012001F012FD4DF2171072
:102BD00001F0F2FCCA2001F00BFD4DF2181001F0DB
:102BE000EBFC022001F004FD4DF2191001F0E4FCB1
:102BF000002001F0FDFC4DF21A1001F0DDFC022076
:102C000001F0F6FC4DF21B1001F0D6FC012001F0A2
:102C1000EFFC4DF21C1001F0CFFC022001F0E8FCAB
:102C20004DF21D1001F0C8FC342001F0E1FC4DF222
:102C30001E1001F0C1FC022001F0DAFC4DF21F1061
:102C400001F0BAFC672001F0D3FC4DF2201001F036
:102C5000B3FC022001F0CCFC4DF2211001F0ACFCE1
:102C6000842001F0C5FC4DF2221001F0A5FC0220E9
:102C700001F0BEFC4DF2231001F09EFCA42001F0F7
:102C8000B7FC4DF2241001F097FC022001F0B0FCDB
:102C90004DF2251001F090FCB72001F0A9FC4DF297
:102CA000261001F089FC022001F0A2FC4DF2271051
:102CB00001F082FCCF2001F09BFC4DF2281001F0C6
:102CC0007BFC022001F094FC4DF2291001F074FC11
:102CD000DE2001F08DFC4DF22A1001F06DFC022087
:102CE00001F086FC4DF22B1001F066FCF22001F0A1
:102CF0007FFC4DF22C1001F05FFC022001F078FC0B
:102D00004DF22D1001F058FCFE2001F071FC4DF247
:102D10002E1001F051FC032001F06AFC4DF22F103F
:102D200001F04AFC102001F063FC4DF2301001F07C
:102D300043FC032001F05CFC4DF2311001F03CFC3F
:102D4000332001F055FC4DF2321001F035FC032028
:102D500001F04EFC4DF2331001F02EFC6D2001F01D
:102D600047FC4FF4524001F027FC002001F040FCEA
:102D70004DF2012001F020FC332001F039FC4DF22E
:102D8000022001F019FC002001F032FC4DF203207A
:102D900001F012FC342001F02BFC4DF2042001F074
:102DA0000BFC002001F024FC4DF2052001F004FC96
:102DB0003A2001F01DFC4DF2062001F0FDFB002041
:102DC00001F016FC4DF2072001F0F6FB4A2001F05D
:102DD0000FFC4DF2082001F0EFFB002001F008FC91
:102DE0004DF2092001F0E8FB5C2001F001FC4DF2FE
:102DF0000A2001F0E1FB002001F0FAFB4DF20B206C
:102E000001F0DAFB812001F0F3FB4DF20C2001F020
:102E1000D3FB002001F0ECFB4DF20D2001F0CCFBC8
:102E2000A62001F0E5FB4DF20E2001F0C5FB0020CD
:102E300001F0DEFB4DF20F2001F0BEFBE52001F0BA
:102E4000D7FB4DF2102001F0B7FB012001F0D0FBC1
:102E50004DF2112001F0B0FB132001F0C9FB4DF23F
:102E6000122001F0A9FB012001F0C2FB4DF213205A
:102E700001F0A2FB542001F0BBFB4DF2142001F045
:102E80009BFB012001F0B4FB4DF2152001F094FBF7
:102E9000822001F0ADFB4DF2162001F08DFB0120E8
:102EA00001F0A6FB4DF2172001F086FBCA2001F0CD
:102EB0009FFB4DF2182001F07FFB022001F098FBF0
:102EC0004DF2192001F078FB002001F091FB4DF24A
:102ED0001A2001F071FB022001F08AFB4DF21B2049
:102EE00001F06AFB012001F083FB4DF21C2001F090
:102EF00063FB022001F07CFB4DF21D2001F05CFB26
:102F0000342001F075FB4DF21E2001F055FB02202C
:102F100001F06EFB4DF21F2001F04EFB672001F027
:102F200067FB4DF2202001F047FB022001F060FB1F
:102F30004DF2212001F040FB842001F059FB4DF2BD
:102F4000222001F039FB022001F052FB4DF2232038
:102F500001F032FBA42001F04BFB4DF2242001F0E4
:102F60002BFB022001F044FB4DF2252001F024FB55
:102F7000B72001F03DFB4DF2262001F01DFB0220A1
:102F800001F036FB4DF2272001F016FBCF2001F0B7
:102F90002FFB4DF2282001F00FFB022001F028FB4F
:102FA0004DF2292001F008FBDE2001F021FB4DF25B
:102FB0002A2001F001FB022001F01AFB4DF22B2028
:102FC00001F0FAFAF22001F013FB4DF22C2001F08F
:102FD000F3FA022001F00CFB4DF22D2001F0ECFA87
:102FE000FE2001F005FB4DF22E2001F0E5FA032052
:102FF00001F0FEFA4DF22F2001F0DEFA102001F070
:10300000F7FA4DF2302001F0D7FA032001F0F0FA80
:103010004DF2312001F0D0FA332001F0E9FA4DF2FF
:10302000322001F0C9FA032001F0E2FA4DF2332018
:1030300001F0C2FA6D2001F0DBFA4FF4534001F0C9
:10304000BBFA002001F0D4FA4DF2013001F0B4FADD
:10305000332001F0CDFA4DF2023001F0ADFA00203C
:1030600001F0C6FA4DF2033001F0A6FA342001F067
:10307000BFFA4DF2043001F09FFA002001F0B8FAD7
:103080004DF2053001F098FA3A2001F0B1FA4DF214
:10309000063001F091FA002001F0AAFA4DF2073053
:1030A00001F08AFA4A2001F0A3FA4DF2083001F04B
:1030B00083FA002001F09CFA4DF2093001F07CFA0D
:1030C0005C2001F095FA4DF20A3001F075FA00200B
:1030D00001F08EFA4DF20B3001F06EFA812001F012
:1030E00087FA4DF20C3001F067FA002001F080FA07
:1030F0004DF20D3001F060FAA62001F079FA4DF2A0
:103100000E3001F059FA002001F072FA4DF20F3042
:1031100001F052FAE52001F06BFA4DF2103001F0A7
:103120004BFA012001F064FA4DF2113001F044FA3B
:10313000132001F05DFA4DF2123001F03DFA01204A
:1031400001F056FA4DF2133001F036FA542001F036
:103150004FFA4DF2143001F02FFA012001F048FA35
:103160004DF2153001F028FA822001F041FA4DF2BB
:10317000163001F021FA012001F03AFA4DF2173031
:1031800001F01AFACA2001F033FA4DF2183001F0BA
:1031900013FA022001F02CFA4DF2193001F00CFA6A
:1031A000002001F025FA4DF21A3001F005FA022054
:1031B00001F01EFA4DF21B3001F0FEF9012001F082
:1031C00017FA4DF21C3001F0F7F9022001F010FA65
:1031D0004DF21D3001F0F0F9342001F009FA4DF202
:1031E0001E3001F0E9F9022001F002FA4DF21F3021
:1031F00001F0E2F9672001F0FBF94DF2203001F017
:10320000DBF9022001F0F4F94DF2213001F0D4F99C
:10321000842001F0EDF94DF2223001F0CDF90220C9
:1032200001F0E6F94DF2233001F0C6F9A42001F0D7
:10323000DFF94DF2243001F0BFF9022001F0D8F996
:103240004DF2253001F0B8F9B72001F0D1F94DF277
:10325000263001F0B1F9022001F0CAF94DF2273011
:1032600001F0AAF9CF2001F0C3F94DF2283001F0A6
:10327000A3F9022001F0BCF94DF2293001F09CF9CC
:10328000DE2001F0B5F94DF22A3001F095F9022067
:1032900001F0AEF94DF22B3001F08EF9F22001F081
:1032A000A7F94DF22C3001F087F9022001F0A0F9C6
:1032B0004DF22D3001F080F9FE2001F099F94DF228
:1032C0002E3001F079F9032001F092F94DF22F3000
:1032D00001F072F9102001F08BF94DF2303001F05D
:1032E0006BF9032001F084F94DF2313001F064F9FB
:1032F000332001F07DF94DF2323001F05DF9032009
:1033000001F076F94DF2333001F056F96D2001F0FD
:103310006FF94FF4544001F04FF9002001F068F9C3
:103320004DF2014001F048F9332001F061F94DF20E
:10333000024001F041F9002001F05AF94DF203403A
:1033400001F03AF9342001F053F94DF2044001F054
:1033500033F9002001F04CF94DF2054001F02CF951
:103360003A2001F045F94DF2064001F025F9002020
:1033700001F03EF94DF2074001F01EF94A2001F03C
:1033800037F94DF2084001F017F9002001F030F94B
:103390004DF2094001F010F95C2001F029F94DF2DD
:1033A0000A4001F009F9002001F022F94DF20B402A
:1033B00001F002F9812001F01BF94DF20C4001F0FF
:1033C000FBF8002001F014F94DF20D4001F0F4F883
:1033D000A62001F00DF94DF20E4001F0EDF80020AD
:1033E00001F006F94DF20F4001F0E6F8E52001F09A
:1033F000FFF84DF2104001F0DFF8012001F0F8F87D
:103400004DF2114001F0D8F8132001F0F1F84DF21F
:10341000124001F0D1F8012001F0EAF84DF213401A
:1034200001F0CAF8542001F0E3F84DF2144001F025
:10343000C3F8012001F0DCF84DF2154001F0BCF8B2
:10344000822001F0D5F84DF2164001F0B5F80120C8
:1034500001F0CEF84DF2174001F0AEF8CA2001F0AD
:10346000C7F84DF2184001F0A7F8022001F0C0F8AB
:103470004DF2194001F0A0F8002001F0B9F84DF22A
:103480001A4001F099F8022001F0B2F84DF21B4009
:1034900001F092F8012001F0ABF84DF21C4001F070
:1034A0008BF8022001F0A4F84DF21D4001F084F8E1
:1034B000342001F09DF84DF21E4001F07DF802200D
:1034C00001F096F84DF21F4001F076F8672001F008
:1034D0008FF84DF2204001F06FF8022001F088F8DB
:1034E0004DF2214001F068F8842001F081F84DF29E
:1034F000224001F061F8022001F07AF84DF22340F9
:1035000001F05AF8A42001F073F84DF2244001F0C4
:1035100053F8022001F06CF84DF2254001F04CF810
:10352000B72001F065F84DF2264001F045F8022081
:1035300001F05EF84DF2274001F03EF8CF2001F097
:1035400057F84DF2284001F037F8022001F050F80A
:103550004DF2294001F030F8DE2001F049F84DF23B
:103560002A4001F029F8022001F042F84DF22B40E8
:1035700001F022F8F22001F03BF84DF22C4001F06E
:103580001BF8022001F034F84DF22D4001F014F840
:10359000FE2001F02DF84DF22E4001F00DF8032031
:1035A00001F026F84DF22F4001F006F8102001F04E
:1035B0001FF84DF2304000F0FFFF032001F018F833
:1035C0004DF2314000F0F8FF332001F011F84DF2D8
:1035D000324000F0F1FF032001F00AF84DF23340D1
:1035E00000F0EAFF6D2001F003F84FF4554000F0C1
:1035F000E3FF002000F0FCFF4DF2015000F0DCFF83
:10360000332000F0F5FF4DF2025000F0D5FF00200E
:1036100000F0EEFF4DF2035000F0CEFF332000F03B
:10362000E7FF4DF2045000F0C7FF002000F0E0FF7C
:103630004DF2055000F0C0FF3A2000F0D9FF4DF2E6
:10364000065000F0B9FF002000F0D2FF4DF2075005
:1036500000F0B2FF4A2000F0CBFF4DF2085000F01E
:10366000ABFF002000F0C4FF4DF2095000F0A4FFB2
:103670005C2000F0BDFF4DF20A5000F09DFF0020DD
:1036800000F0B6FF4DF20B5000F096FF812000F0E5
:10369000AFFF4DF20C5000F08FFF002000F0A8FFAC
:1036A0004DF20D5000F088FFA62000F0A1FF4DF272
:1036B0000E5000F081FF002000F09AFF4DF20F50F5
:1036C00000F07AFFE52000F093FF4DF2105000F07B
:1036D00073FF012000F08CFF4DF2115000F06CFFE1
:1036E000132000F085FF4DF2125000F065FF01201D
:1036F00000F07EFF4DF2135000F05EFF542000F00A
:1037000077FF4DF2145000F057FF012000F070FFDA
:103710004DF2155000F050FF822000F069FF4DF28D
:10372000165000F049FF012000F062FF4DF21750E3
:1037300000F042FFCA2000F05BFF4DF2185000F08D
:103740003BFF022000F054FF4DF2195000F034FF0F
:10375000002000F04DFF4DF21A5000F02DFF022026
:1037600000F046FF4DF21B5000F026FF012000F054
:103770003FFF4DF21C5000F01FFF022000F038FF09
:103780004DF21D5000F018FF342000F031FF4DF2D3
:103790001E5000F011FF022000F02AFF4DF21F50D2
:1037A00000F00AFF672000F023FF4DF2205000F0E8
:1037B00003FF022000F01CFF4DF2215000F0FCFE40
:1037C000842000F015FF4DF2225000F0F5FE02209B
:1037D00000F00EFF4DF2235000F0EEFEA42000F0AA
:1037E00007FF4DF2245000F0E7FE022000F000FF3A
:1037F0004DF2255000F0E0FEB72000F0F9FE4DF24A
:10380000265000F0D9FE022000F0F2FE4DF22750C3
:1038100000F0D2FECF2000F0EBFE4DF2285000F079
:10382000CBFE022000F0E4FE4DF2295000F0C4FE71
:10383000DE2000F0DDFE4DF22A5000F0BDFE022039
:1038400000F0D6FE4DF22B5000F0B6FEF22000F054
:10385000CFFE4DF22C5000F0AFFE022000F0C8FE6B
:103860004DF22D5000F0A8FEFE2000F0C1FE4DF2FA
:103870002E5000F0A1FE032000F0BAFE4DF22F50B2
:1038800000F09AFE102000F0B3FE4DF2305000F030
:1038900093FE032000F0ACFE4DF2315000F08CFEA0
:1038A000332000F0A5FE4DF2325000F085FE0320DB
:1038B00000F09EFE4DF2335000F07EFE6D2000F0D1
:1038C00097FE4FF4564000F077FE002000F090FE87
:1038D0004DF2016000F070FE332000F089FE4DF2E1
:1038E000026000F069FE002000F082FE4DF20360ED
:1038F00000F062FE342000F07BFE4DF2046000F028
:103900005BFE002000F074FE4DF2056000F054FEF6
:103910003A2000F06DFE4DF2066000F04DFE0020F2
:1039200000F066FE4DF2076000F046FE4A2000F00F
:103930005FFE4DF2086000F03FFE002000F058FEF0
:103940004DF2096000F038FE5C2000F051FE4DF2AF
:103950000A6000F031FE002000F04AFE4DF20B60DC
:1039600000F02AFE812000F043FE4DF20C6000F0D2
:1039700023FE002000F03CFE4DF20D6000F01CFE26
:10398000A62000F035FE4DF20E6000F015FE00207E
:1039900000F02EFE4DF20F6000F00EFEE52000F06C
:1039A00027FE4DF2106000F007FE012000F020FE1F
:1039B0004DF2116000F000FE132000F019FE4DF2F0
:1039C000126000F0F9FD012000F012FE4DF21360CC
:1039D00000F0F2FD542000F00BFE4DF2146000F0F8
:1039E000EBFD012000F004FE4DF2156000F0E4FD57
:1039F000822000F0FDFD4DF2166000F0DDFD01209B
:103A000000F0F6FD4DF2176000F0D6FDCA2000F080
:103A1000EFFD4DF2186000F0CFFD022000F0E8FD50
:103A20004DF2196000F0C8FD002000F0E1FD4DF2FC
:103A30001A6000F0C1FD022000F0DAFD4DF21B60BB
:103A400000F0BAFD012000F0D3FD4DF21C6000F043
:103A5000B3FD022000F0CCFD4DF21D6000F0ACFD86
:103A6000342000F0C5FD4DF21E6000F0A5FD0220DF
:103A700000F0BEFD4DF21F6000F09EFD672000F0DB
:103A8000B7FD4DF2206000F097FD022000F0B0FD80
:103A90004DF2216000F090FD842000F0A9FD4DF270
:103AA000226000F089FD022000F0A2FD4DF22360AB
:103AB00000F082FDA42000F09BFD4DF2246000F098
:103AC0007BFD022000F094FD4DF2256000F074FDB6
:103AD000B72000F08DFD4DF2266000F06DFD022054
:103AE00000F086FD4DF2276000F066FDCF2000F06B
:103AF0007FFD4DF2286000F05FFD022000F078FDB0
:103B00004DF2296000F058FDDE2000F071FD4DF20D
:103B10002A6000F051FD022000F06AFD4DF22B609A
:103B200000F04AFDF22000F063FD4DF22C6000F041
:103B300043FD022000F05CFD4DF22D6000F03CFDE5
:103B4000FE2000F055FD4DF22E6000F035FD032003
:103B500000F04EFD4DF22F6000F02EFD102000F021
:103B600047FD4DF2306000F027FD032000F040FDDE
:103B70004DF2316000F020FD332000F039FD4DF2B0
:103B8000326000F019FD032000F032FD4DF2336089
:103B900000F012FD6D2000F02BFD4FF4704000F09E
:103BA0000BFD552000F024FD4FF2010000F004FD54
:103BB000AA2000F01DFD4FF2020000F0FDFC522093
:103BC00000F016FD4FF2030000F0F6FC082000F0B4
:103BD0000FFD4FF2040000F0EFFC002000F008FDA4
:103BE0004FF4334000F0E8FC002000F001FD4FF4FA
:103BF000354000F0E1FC502000F0FAFC4FF4314079
:103C000000F0DAFCCC2000F0F3FC4BF2011000F0E5
:103C1000D3FC002000F0ECFC4FF4364000F0CCFC6C
:103C2000052000F0E5FC4FF4374000F0C5FC7020A3
:103C300000F0DEFC4BF2017000F0BEFC702000F0E2
:103C4000D7FC4FF4384000F0B7FC012000F0D0FC66
:103C50004BF6010000F0B0FC032000F0C9FC4BF66D
:103C6000020000F0A9FC032000F0C2FC4BF60300A8
:103C700000F0A2FC032000F0BBFC4FF43C4000F03D
:103C80009BFC022000F0B4FC4BF6014000F094FCD9
:103C9000002000F0ADFC4BF6024000F08DFC00204F
:103CA00000F0A6FC4FF4494000F086FCD02000F064
:103CB0009FFC4CF6011000F07FFC022000F098FC05
:103CC0004CF6021000F078FC502000F091FC4CF60D
:103CD000031000F071FC502000F08AFC4CF6041038
:103CE00000F06AFC502000F083FC4FF4585000F0C4
:103CF00063FC002000F07CFC4FF4545000F05CFCAE
:103D0000002000F075FC4FF4685000F055FC552081
:103D100000F06EFC4FF4885000F04EFC782002F06A
:103D2000B7F94FF4245000F047FC0A2002F0B0F934
:103D30004FF4305000F040FC07B000BDF0B58E8865
:103D40000768FF68C7F30B473E44330406688436B0
:103D5000802707FB0266766806F47047066884369B
:103D60004FF0800C0CFB026677600E680768FF68F6
:103D7000C7F30B473E44761C1E43076884370CFB91
:103D800002777E608E890768FF68C7F30A073E44A2
:103D9000330406688436802707FB0266B66806F49B
:103DA0007047066884360CFB0266B7608E68076849
:103DB000FF68C7F30A073E44761C46EA0307066815
:103DC00084360CFB0266B76006688436802707FBE2
:103DD0000266366926F00707066884360CFB026621
:103DE00037610F69066884360CFB0266376131263D
:103DF000765C33023226765C34040E7E3506066825
:103E00008436802707FB0266B66900270668843679
:103E10000CFB0266B76191F830601E43264346EA08
:103E20000507066884360CFB0266B76106688436AF
:103E3000802707FB0266766926F0FF07066884364E
:103E40000CFB026677614F69066884360CFB0266DC
:103E5000776106688436802707FB0266F66940F2C0
:103E60000777BE43076884370CFB0277FE61D1E910
:103E700007763743066884360CFB0266F7610668EE
:103E80008436802707FB0266B66A002706688436F8
:103E90000CFB0266B7624F6A066884360CFB02664A
:103EA000B7620E690EB9042313E00E69012E01D129
:103EB00003230EE00E69042E08D00E69022E05D0F1
:103EC0000E69032E02D00E69072E01D1022300E0F5
:103ED000012306688436802707FB0266F66A06F02F
:103EE000E027066884364FF0800C0CFB0266F76210
:103EF000D1E90076F61B5E43F61C0F8D5F4346EA60
:103F00000747066884360CFB0266F762066884364B
:103F1000802707FB0266366BF70AFF0206688436C5
:103F20000CFB02663763CF6A066884360CFB0266B8
:103F3000376306688436D701F65946F001070668EC
:103F400084364FEAC21C46F80C70F0BD00BFFEE795
:103F50007047704710B586B00446002005900120D8
:103F600001901020029001200390002004904FF453
:103F7000805201A92046FEF759F86420FCF7F0FAB8
:103F80000220019010200290012003900020049054
:103F90004FF4805201A92046FEF748F80320019013
:103FA0001020029008200390002004904FF48052CB
:103FB00001A92046FEF73AF840F23120059004208E
:103FC00001901020029001200390059804904FF476
:103FD000805201A92046FEF729F840F2AB21204685
:103FE000FEF710F806B010BD70B50446002220217F
:103FF0001148FCF7F7FB00251BE004F0800028B116
:10400000012211460D48FCF7EDFB04E000220121DE
:104010000A48FCF7E7FB002220210748FCF7E2FBF7
:10402000012220210448FCF7DDFB6006040E681C19
:10403000C5B2082DE1DB70BD00080240000402405B
:10404000704710B5FCF77CFF01201EF051FB10BD3E
:1040500000B5ABB030211FA8FCF70EF914211AA847
:10406000FCF70AF930210EA8FCF706F9302102A866
:10407000FCF702F900BF002001903448006840F0CE
:104080008050324908600846006800F08050019076
:1040900000BF00BF00BF002001902D48006840F421
:1040A00040402B4908600846006800F440400190F9
:1040B00000BF00BF09201F904FF4803020900120E6
:1040C00021900220259041051FA8C1610F210162A6
:1040D0004FF490714162022181620A21C162FDF7B1
:1040E00075FC08B1FCF783F9FDF780F908B1FCF71E
:1040F0007EF90F201A9002201B9000201C904FF494
:10410000A0501D904FF480501E9005211AA8FDF775
:104110001FFB08B1FCF76BF908200E904E2012909F
:1041200002211491002017900EA8FDF7A5F908B1FF
:10413000FCF75DF92020029000010C9002A8FDF729
:104140009BF908B1FCF753F92BB000BD4038024091
:10415000007000401448006840F470001249086084
:104160001248006840F001001049086000200F4923
:10417000083108600D4800680D4908400B49086087
:104180000C48091D0860081F006820F48020091FE2
:104190000860002005490C3108604FF000600249BA
:1041A000803908607047000088ED00E00038024068
:1041B000FFFFF6FE1030002410B50848006800F03C
:1041C000010020B104F0D0FD08B104F0E5FD034882
:1041D000006820F001000149086010BD100800408F
:1041E0002DE9F04104462068006920F44050E16860
:1041F0000843216808612169A06808436169084390
:10420000E16940EA01052068C06849F20C61884311
:1042100028432168C8602068406920F44070A16983
:10422000084321684861E069B0F5004F7ED1C44978
:104230002068884203D0C349206888425DD1FDF7D9
:104240005DFB00EBC00101EB001061684900B0FBB1
:10425000F1F06421B0FBF1F00601FDF74FFB00EB3C
:10426000C00101EB001061684900B0FBF1F7FDF7F8
:1042700045FB00EBC00101EB001061684900B0FB99
:10428000F1F06421B0FBF1F000EBC00101EB001094
:10429000A7EB8000322101EBC0006421B0FBF1F0FC
:1042A00000F0F80006EB4006FDF728FB00EBC0012C
:1042B00001EB001061684900B0FBF1F7FDF71EFB50
:1042C00000EBC00101EB001061684900B0FBF1F0A8
:1042D0006421B0FBF1F000EBC00101EB0010A7EB93
:1042E0008000322101EBC0006421B0FBF1F000F04E
:1042F000070030442168886020E1FDF7EFFA00EB09
:10430000C00101EB001061684900B0FBF1F06421CD
:10431000B0FBF1F00601FDF7E1FA00EBC00101EBA3
:10432000001061684900B0FBF1F700E045E0FDF7DF
:10433000D5FA00EBC00101EB001061684900B0FB49
:10434000F1F06421B0FBF1F000EBC00101EB0010D3
:10435000A7EB8000322101EBC0006421B0FBF1F03B
:1043600000F0F80006EB4006FDF7B8FA00EBC001DC
:1043700001EB001061684900B0FBF1F7FDF7AEFA00
:1043800000EBC00101EB001061684900B0FBF1F0E7
:104390006421B0FBF1F000EBC00101EB0010A7EBD2
:1043A0008000322101EBC0006421B0FBF1F000F08D
:1043B0000700304421688860C0E061492068884275
:1043C00003D06049206888425CD1FDF797FA00EB82
:1043D000C00101EB001061688900B0FBF1F6FDF748
:1043E0008DFA00EBC00101EB001061688900B0FBA1
:1043F000F1F06421B0FBF1F000EBC00101EB001023
:10440000A6EB8000322101EB00106421B0FBF1F03B
:1044100000F0F006FDF772FA00EBC00101EB0010AE
:1044200061688900B0FBF1F06421B0FBF1F006EBAC
:104430000016FDF763FA00EBC00101EB00106168A4
:104440008900B0FBF1F7FDF759FA00EBC00101EB71
:10445000001061688900B0FBF1F06421B0FBF1F05D
:1044600000EBC00101EB0010A7EB8000322101EB53
:1044700000106421B0FBF1F000F00F00304421681F
:1044800088605BE0FDF72AFA00EBC00101EB001049
:1044900061688900B0FBF1F6FDF720FA00EBC0017E
:1044A00001EB001061688900B0FBF1F06421B0FB02
:1044B000F1F000EBC00101EB0010A6EB800032210F
:1044C00001EB00106421B0FBF1F000F0F006FDF705
:1044D00005FA00EBC00101EB001061688900B0FB38
:1044E000F1F06421B0FBF1F006EB0016FDF7F6F9F0
:1044F00000EBC00101EB001061688900B0FBF1F72F
:10450000FDF7ECF900EBC00101EB001061688900D8
:10451000B0FBF1F06421B0FBF1F000EBC00101EB66
:104520000010A7EB8000322101EB00106421B0FBEA
:10453000F1F000F00F00304421688860BDE8F081A0
:1045400000100140001401402DE9F04104460D46E1
:1045500017469846069E21E0701CF8B12EB1FCF774
:1045600047F9A0EB0800B04218D92068C06820F4D1
:10457000D0702168C8602068406920F0010021687F
:104580004861202084F8390084F83A0000BF0020F8
:1045900084F8380000BF0320BDE8F081206800687F
:1045A0002840A84201D1012000E00020B842D3D029
:1045B0000020F1E700BFFEE710B5044600221021FD
:1045C0000A48FCF70FF92020FFF70EFD2012FFF735
:1045D0000BFD0020FFF708FDE0B2FFF705FD01220B
:1045E00010210248FCF7FEF810BD00000008024050
:1045F00010B50446002210210748FCF7F3F84020CC
:10460000FFF7F2FC2046FFF7EFFC012210210248E1
:10461000FCF7E8F810BD0000000802400FB4054B9D
:1046200010B503A9044A029800F034F810BC5DF8F4
:1046300014FB0000BD6C0108B805002002480068AA
:10464000C0F30220704700000CED00E010B5002818
:1046500004DB0A07130E054A135406E00A07140E7A
:10466000034A00F00F031B1FD45410BD00E400E008
:1046700018ED00E002E008C8121F08C1002AFAD1B4
:1046800070477047002001E001C1121F002AFBD1D2
:10469000704700002DE9FF4F8BB09A460F46054644
:1046A000002606E025280BD052460D9990476D1C38
:1046B000761C28780028F5D10FB03046BDE8F08F81
:1046C0000024A0460122604900E0044315F8013FA0
:1046D000203B02FA03F00842F7D128782E2817D1A0
:1046E00015F8010F44F004042A280ED06FF02F02B1
:1046F0002878A0F1300109290AD808EB880102EBDB
:10470000410100EB01086D1CF2E757F8048B6D1CAA
:10471000287869283ED006DC0028CDD063280BD04D
:10472000642804D136E0732810D075284BD0524647
:104730000D999047761C85E017F8040B8DF8000062
:1047400000208DF80100E946012003E057F8049BA2
:104750004FF0FF3061074FF0000401D40AE0641C01
:1047600044450DDA8442FADB19F804100029F6D129
:1047700006E0641C8442FCDB19F804100029F8D11F
:10478000264404E019F8010B52460D999047641E27
:10479000F8D257E001CF4FF00A0B002802DA40426E
:1047A0002D2102E0210504D52B218DF824100121B3
:1047B00003E0E10705D02021F7E70DF1200908917A
:1047C0000CE00021F9E701CF4FF00A0BF9E7594659
:1047D000FBF77BFD01F1300209F8012D0028F6D12D
:1047E000ADEB090000F1200B600701D44FF0010888
:1047F000D84502DDA8EB0B0000E000208046002435
:1048000006E009A85246005D0D999047641C761C8D
:1048100008988442F5DB04E0302052460D99904719
:10482000761CB8F10001A8F10108F5DC05E019F8E3
:10483000010B52460D999047761CBBF10001ABF17C
:10484000010BF4DC6D1C34E7092801002DE9F0416F
:1048500080460E460025002709E056F827001EA1D5
:10486000FBF71CFD08B1681C85B2781C87B256F8AE
:104870002700FBF70CFD0028EFD1404616F0ECFDB9
:104880000446606820B1606815F012FF0020606087
:10489000A06820B1A06815F00BFF0020A060E80020
:1048A00015F0E0FE6060606808B900BFFEE76800D0
:1048B00015F0D8FEA060A06808B900BFFEE76068E8
:1048C00008B1A06800B900256900A068FBF7D4FC16
:1048D0002584BDE8F08100000A00000010B58AB010
:1048E000044694F82000C0F3400020B994F820005A
:1048F00000F0010070B194F82000C0F34000F0B95E
:1049000094F8200000F00100C8B194F82000C0F332
:104910008000A0B12422214601A8FBF794FC214687
:10492000194815F02CF9204615F0C2FE0120174950
:104930000870049810B101A8049988471FE0E08B23
:10494000404200B2608394F8200000F00100B0B152
:1049500094F82010C1F3800119B9A18B494209B222
:1049600061831034217C8908C943227C61F382026F
:1049700022742068616821606060103C00BF0348B9
:1049800000780AB010BD0000D40A00209C0000206E
:104990002DE9F04107462F4815F00AF8044608E0D3
:1049A000206A20F00800206221462A4815F005F808
:1049B0000446002CF4D1284800681DF07BFE064612
:1049C000244814F0F5FF04463CE000202349087019
:1049D00094F82000C0F3C00038BB206A20F0080023
:1049E00008302062608B304400B26083B4F91A0052
:1049F00000281ADBB4F91A00218B884202DD208BD3
:104A000000B260832046A16888470546606818B1F7
:104A100029B2D4E900029047B4F91A00218B8842E8
:104A200002DB2046FFF75AFF00BF0C48007820B198
:104A3000084814F0BDFF044604E02146054814F080
:104A4000BCFF0446002CC0D11DF042FE02490860A4
:104A5000BDE8F081D40A0020980000209C000020CE
:104A600030B50346022B04D10E48405C504300127F
:104A700030BD032B04D10C48405C50430012F7E7D3
:104A8000042B04D10948405C50430012F0E7C1EB0D
:104A9000C105581EB5FBF0F0C4B20548005D504397
:104AA000000AE5E70E6003081060030813600308BE
:104AB0001760030808B5134913481AF06FFB0A2161
:104AC0001148C1865A2211461048008809F017FE85
:104AD00000900D48BDF8001081860A2181815A227C
:104AE0001E210A48008809F00AFE00900648BDF819
:104AF00000104181002141838183C18201830449E7
:104B0000086708BDA80C0020841200204C05002076
:104B1000F80A002008B51C491C481AF03FFB5F2228
:104B20000F211B48008809F0EAFD00901748BDF8E6
:104B3000001041800146498881800321C180002105
:104B40008181062141838183C1820183014611480D
:104B50001AF024FB462255210D48008809F0CFFDAC
:104B600000900C48BDF800104180014649888180C2
:104B7000002141838183C18201830448064948653D
:104B800004490548816508BDA80C00206810002074
:104B90004C050020A4100020F80A002000B585B0C4
:104BA000454946481AF0FAFA4548016843484162C7
:104BB0000421C180014643481AF0F0FA424809F046
:104BC00074FD00903F48BDF80010418001464988BF
:104BD00081800021C18001463C481AF0DFFA0021A3
:104BE0003A480183C18241838183344938481AF0AD
:104BF000D5FA04213648C18036480068049034480C
:104C0000BDF8101041803348001D00680390304803
:104C1000BDF80C1081800121818140F6BB3009F084
:104C200052FD00902A48BDF800104181FF21C17358
:104C300040F6AA2009F047FD00902548BDF8001075
:104C4000018200210175042141820C21418381836D
:104C5000C18201830821C18340F2333009F033FD62
:104C600000901B48BDF80010018440F2333009F079
:104C70002AFD00901648BDF8001001860F4916481D
:104C80001AF08CFA002002901348BDF808104180F9
:104C9000002001901048BDF8041081806621017247
:104CA00004218183018307480C4948600748086054
:104CB0000748886005B000BD7C080020A80C0020D3
:104CC00050050020200D0020F0F0F000980D00208D
:104CD0005C0D0020F08E0308E40C0020F80A002090
:104CE00010B5FCF739F9FFF7B3F900F01BF804F041
:104CF0004DF921F08BF803F0D1FF01F0F5F902F046
:104D0000EDFC02F073FBFDF719FD01F023FF05F048
:104D10004BFC12F085F918F015FB18F053FB1EF050
:104D2000B9FD10BD10B51B48006840F004001949DA
:104D3000086019480068400842F21071B0FBF1F0B9
:104D4000164908606320091D08601448143800687B
:104D500040F00100114914390860081F006820F074
:104D60000100091F0860081F006840F00100091FCA
:104D700008600A482838006840F0010007492839CF
:104D8000086000220F211E20FCF7DEFA1E20FCF72F
:104D9000CBFA10BD4038024018000020280800401F
:104DA00008B5584958481AF0F9F946225A21574887
:104DB000008809F0A4FC00905348BDF80010418021
:104DC0000146498881800421C1801021418381836B
:104DD0000C21C18201830A21C18340F6AA2009F077
:104DE00072FC00904848BDF8001001820021017556
:104DF000062141825F2205214448008809F07FFC9A
:104E000000904148BDF8001001845F2205213F4811
:104E1000008809F074FC00903B48BDF80010018642
:104E200001463B481AF0BAF93C225A21374800881B
:104E300009F065FC00903648BDF80010418001463D
:104E400049888180042141822F4932481AF0A6F90D
:104E500032225F212D48008809F051FC00902D4836
:104E6000BDF80010418001464988818004214182BB
:104E7000014629481AF092F928225F212348008828
:104E800009F03DFC00902448BDF800104180014627
:104E900049888180022141821B4920481AF07EF90D
:104EA00040F6CC4009F00FFC00901C48BDF8001003
:104EB00041800146498881800021418205225F218D
:104EC0001248008809F01BFC00901448BDF800103F
:104ED000018405225F210D48008809F010FC009034
:104EE0000E48BDF80010018607480D4908610849C1
:104EF0000B484161074981610749C1610749016266
:104F000008BD0000A80C0020D40D00204C05002096
:104F1000100E00204C0E0020880E0020C40E002031
:104F2000F80A002008B54C4881684C481AF036F958
:104F300000214A4841838183C1820183C18340F2B9
:104F4000555009F0C0FB00904448BDF800100184A2
:104F50004148816842481AF021F91F214048817375
:104F60000121818140F6BB3009F0ADFB00903C4847
:104F7000BDF800104181002101724182014639488B
:104F80001AF00CF900203749087040F6DD5009F09E
:104F90009AFB00903348BDF80010418001464988D3
:104FA000818000218181FF21017201462E481AF083
:104FB000F5F846225A212D48008809F0A0FB009000
:104FC0002948BDF8001041800146498881805F2250
:104FD00005212648008809F092FB00902248BDF880
:104FE00000100184014622481AF0D8F841225F21BE
:104FF0001E48008809F083FB00901D48BDF8001092
:1050000041800146498881800021818115491948E4
:105010001AF0C4F840F6CC4009F055FB0090154852
:10502000BDF8001041800146498881800B480A493B
:10503000C1F8C4000A490848C0F8C8100949C0F8B6
:10504000CC100949C0F8D0100949C0F8D4100A4959
:10505000C0F8D81008BD0000F80A0020DC140020B9
:105060001815002054150020901500204C05002034
:10507000CC15002008160020A80C002010B5002434
:1050800007E0204600F01BF808B160B210BD601CBC
:10509000C4B2022CF5DB4FF0FF30F7E70146C1F355
:1050A000C010704770470146C1F3002070470146A9
:1050B000C1F3C00070470146C1F34010704701467C
:1050C000002070470146C1F3001070470146C1F34C
:1050D0008010704770B506460C46FFF7CFFF0546B7
:1050E000002D04DB0120A07304490D7001E00020B5
:1050F000A07302480078A060002070BD7C050020ED
:105100002DE9FF5F06460F4606F1100102A805F0E3
:1051100061FD0021304607F085FD8046BDF808108E
:10512000B8F81A00084400B2ADF80800BDF80C1039
:10513000B8F81C00081A00B2ADF80C00304601F0B7
:10514000D9FF718A4418304601F0CEFE2118B8F814
:105150001600081A00B2ADF80A00394602A805F098
:1051600055FE00287ED0BDF90C00BDF90810401A8C
:10517000401C072190FBF1F000B20190BDF90E0038
:10518000BDF90A10401A401C062190FBF1F000B254
:1051900000904FF00009B7F90000BDF90810411A5E
:1051A000019891FBF0F000F0FF09B9F1060F01DD65
:1051B0004FF006094FF0000AB7F90200BDF90A10D6
:1051C000411A009891FBF0F000F0FF0ABAF1050FC8
:1051D00001DD4FF0050A0025CAEBCA004844C5B2FC
:1051E000304616F039F9044694F90610A0880122D9
:1051F00001F08CFEA84224DDA188A079012800D10D
:1052000000E00020081AE081A079012801D10C20DB
:1052100002E094F90600401E41B2217494F9101086
:10522000E08901F0E5FF834694F90610A088012289
:1052300001F06CFEABEB0000401C284441B26174ED
:1052400046E094F90610A088012201F05FFE834633
:1052500094F90610A08801F0CBFF5844A84210DD55
:10526000A08800E038E0E081A179217494F906106B
:10527000A088012201F04AFE691C081A41B261743B
:1052800026E02A2D24DAA188A0790C2801D101205A
:1052900000E000200844E081A0790C2801D1012021
:1052A00002E094F90600401C41B2217494F9061002
:1052B000A088012201F02AFE691CA1EB000B94F9E1
:1052C0000610A08801F094FFABEB000041B26174BE
:1052D000012004B0BDE8F09F0020FAE70EB5404978
:1052E000404819F05BFF462200213F48008809F042
:1052F00006FA00903B48BDF80010018438493B484D
:1053000019F04CFF5A2250213748008809F0F7F96C
:1053100000903648BDF8001001843149344819F036
:105320003DFF642228213048008809F0E8F9009008
:105330002F48BDF800104180642228212A480088A7
:1053400009F0DDF900902A48BDF8001081800521A0
:10535000C182018327488068418B254841832548C5
:105360008068818B22488183224880682049408957
:1053700048812048806881891D4881810C21817382
:105380000021C18016491C4819F008FF1B4800681D
:1053900002901948BDF8081041801848001D0068A7
:1053A00001901548BDF8041081800521C182018358
:1053B0000021C1800F4880680E49C1F88C00104957
:1053C0000C48C0F890100749C0F8A0100749C0F871
:1053D0009C100749C0F8A4100749C0F8A8100EBDDA
:1053E000A80C0020C01200204C050020FC12002058
:1053F00038130020F80A002074130020F88E0308E8
:10540000C807002008B530488168304819F0C6FE4A
:1054100000212E4801750321418201462C4819F0D4
:10542000BDFE40F6CC4009F04EF900902848BDF88A
:105430000010418001464988818000214182234932
:10544000244819F0ABFE55224B212348008809F06F
:1054500056F900901F48BDF8001041800146498868
:105460008180012101750021418201461B4819F00C
:1054700095FE41224B211848008809F040F9009020
:105480001648BDF8001041800146498881800021FE
:1054900041820D48016A124819F080FE11480A49FC
:1054A000C1F8AC0009490848C0F8B0100849C0F874
:1054B000B4100849C0F8B8100849C0F8BC10084931
:1054C000C0F8C01008BD0000F80A0020B01300208A
:1054D000EC130020281400204C0500206414002048
:1054E000A0140020C8070020F8B507460E4638462D
:1054F00015F0B2FF0446E06B20B9B4F8400008B9DB
:105500000120F8BDB4F8400000280CDD38461AF040
:10551000E3FF05460F4909688847B4F84010884200
:1055200001D30020EDE7E06B90B10020009009E08E
:105530006946094AE06B126890470546B54201D1B9
:105540000120DEE7E06B0099405C0028F0D1D8E74D
:105550000120D6E79C0100208C01002002488068D1
:105560000149C1F888007047F80A002002488068A5
:105570000149C86070470000F80A00202DE9F04F8B
:105580008FB006464FF00809304616F0E6FE824618
:1055900049460AF0C6F800BF1DF008F80446FE4967
:1055A000FE4819F0FBFD0A21FC48C1831921418303
:1055B00081830A21C18201830021304609F0DAFA91
:1055C0000E90F6490E9816F08AFA00210E9816F001
:1055D0004BF901210E980AF039F803210E980AF0D0
:1055E000A0F800210E9806F031F80746B9464FF0B2
:1055F000010A514648460AF029F800BF0121384601
:1056000006F037F90021384612F030F80D90E4A189
:105610000D9812F09AFF39460E9806F017F80746D3
:10562000384606F047FA0021384612F01FF80D9070
:10563000DDA10D9812F089FF39460E9806F006F8A4
:1056400007460421384606F0D7F80021384612F004
:105650000DF80D90D6A10D9812F077FF00210E984D
:1056600012F004F80C90D5A10C9812F06EFFA16B0B
:105670000C9816F034FA00210E9811F0F7FF0C90F8
:10568000D0A10C9812F061FFE16B0C9816F027FA8C
:1056900000210E9811F0EAFF0C90CDA10C9812F0A9
:1056A00054FF216C0C9816F01AFA00210E9806F09F
:1056B0005BFA0B9000200AF05BFF8146C01709EBF4
:1056C00090704FEAA00A422251460B9816F0B8F9A2
:1056D000C1490B9806F07CFD40210B9806F02AFD8D
:1056E00001210B9806F08EFE00210E981BF09AFB0C
:1056F0000A9003210A981BF0C5FE04210A981BF0AA
:105700000FFF212200210A981BF0F4FE3222012112
:105710000A981BF0EFFE322202210A981BF0EAFEE3
:105720000123002211460A981BF01CFE01231A4691
:1057300000210A981BF016FEA8A3002211460A9821
:105740001BF04DFE0123002211460A981BF0D0FDEC
:10575000A4A3002201210A981BF041FEA2A301226A
:1057600011460A981BF03BFE0223012211460A98BB
:105770001BF0BEFD9DA3022201210A981BF02FFE03
:105780009BA3002202210A981BF029FE99A3012263
:1057900002210A981BF023FE0223012219460A98CF
:1057A0001BF0A6FD91A3022211460A981BF017FEDA
:1057B00091A3002203210A981BF011FE8FA301225E
:1057C00003210A981BF00BFE0223012203210A98F1
:1057D0001BF08EFD85A3022203210A981BF0FFFD1A
:1057E00030460E9909F0C6F90E9000210E9809F086
:1057F000C1F98046C146DFF8A0A15146484616F0DF
:105800006EF900BFC3464FF000094FF0010A53463E
:105810004A4649465846CDF800A009F046FF00BF69
:105820000AF0A0FE83460AF0A3FE8146C01709EBEA
:1058300090704FEAA00A5146404616F064F90821DC
:10584000404609F06EFF0021404619F05DFF0990C7
:10585000FA2109981AF00DF84046099919F054FFF9
:1058600009900021099819F0F2FF00210E9805F027
:1058700069FB089000224621089805F00FFE0021E0
:105880000E9818F043FF079000224621079805F074
:1058900005FE00210E9813F069F8054600205849CE
:1058A000088048800AF064FE052190FBF1F000B208
:1058B0005349888000215248C1800222014628466F
:1058C00013F00AFAD4F84C904946284616F007F926
:1058D00000BF00210E9807F03DFB069006990E9838
:1058E00007F038FB06900221069805F085FF00219D
:1058F0000E9809F0C1FF0590059815F087FE32302B
:105900000FFA80F9494605980AF0B6FB012105987F
:105910000AF090FB30460E9909F02CF90E90002108
:105920000E9813F0EBFB049000200AF06AFE82460A
:1059300000EBDA704FEA600B00200AF019FE814696
:10594000C01709EB907080105A46014601900498E8
:1059500016F076F82BA22CA1049813F057FA0390B6
:105960000121039805F085FF28A22AA1049813F0CD
:105970004DFA24A224A1049813F048FA26A228A1E3
:10598000049813F043FA27A228A1049813F03EFAD2
:1059900027A229A1049851E0C80700209CD7002025
:1059A000427574746F6E0000546F67676C656400B5
:1059B000496E616374697665000000005072696D1C
:1059C000617279005365636F6E64617279000000E3
:1059D00048696E7400000000800500205461626C0C
:1059E0006500000031000000313300006D730000DD
:1059F0003200000034360000330000003631000071
:105A00009805002047505300EF84A4005769466969
:105A100000000000EF87AB00417564696F00000073
:105A2000EF808100566964656F000000EF80880098
:105A300043616C6C00000000EF82950013F0E6F902
:105A400017A219A1049813F0E1F918A219A104985A
:105A500013F0DCF918A21AA1049813F0D7F919A2CF
:105A600019A1049813F0D2F918A21AA1049813F0FE
:105A7000CDF900210E9818F015FA0290012216A116
:105A8000029818F083FC00220121029818F0D0FC43
:105A90000321029818F0F5FC0FB0BDE8F08F00006C
:105AA00042656C6C00000000EF83B30046696C65D2
:105AB00000000000EF859B00456469740000000051
:105AC000EF81800043757400EF838400436F707929
:105AD00000000000EF8385004D6F6E6461790A5409
:105AE0007565736461790A5765646E65736461797D
:105AF0000A54687572736461790A467269646179DF
:105B00000A53617475726461790A53756E646179C0
:105B1000000000002DE9F04F87B0064600BF304678
:105B200016F01BFC054615F071FD044600213046B9
:105B300007F020FC80461021404608F027FD002099
:105B40000AF05FFD032190FBF1F005B294FBF1F048
:105B500007B22A463946404615F072FF0A2211461E
:105B6000404615F014FF5D480068069040460699CF
:105B700007F0BAFB05901E224046059908F0A3FCE9
:105B800014224046059908F09EFC0A2240460599D9
:105B900008F099FC0C224046059908F094FC142268
:105BA0004046059908F08FFC1B224046059908F0F5
:105BB0008AFC23224046059908F085FC372240469E
:105BC000059908F080FC46224046059908F07BFCC8
:105BD0004B224046059908F076FC002130460FF034
:105BE000F9F981462822002148460FF053FD254649
:105BF000E01704EB907082102746E01704EB9070DA
:105C00008110484615F01CFF192000230C22414644
:105C10000090484614F0E2FD0021304604F022FED8
:105C200004900C2000230D2249460090049814F0A3
:105C3000D5FD002130461AF03BF9824600200AF0DB
:105C4000E0FC0546C01705EB90708710032094FB1D
:105C5000F0F00FFA80FB3A465946504615F0F0FE38
:105C60000A204342032200210090504614F0B6FD62
:105C7000022150461AF07AFE0021304611F06EFAE9
:105C8000039000200AF0BDFC032190FBF1F005B267
:105C9000600090FBF1F007B22A463946039815F0F0
:105CA000CFFE642000230E2251460090039814F08A
:105CB00095FD5146039811F050FC0021304617F035
:105CC000FFFB02906FF0630000231A461946009014
:105CD000029814F083FD07B0BDE8F08F0C8F030825
:105CE0002DE9F04F87B00446002120461DF03CF915
:105CF000814678A148461DF0F9F806907649069845
:105D000015F0E0FD75A148461DF0F0F800200AF0FE
:105D100078FC054600EBD570471000200AF028FCFF
:105D2000064600EBD6704FEA60083A4641464846C0
:105D300015F086FE05221146484615F028FE012181
:105D4000484615F0D7FE0021484611F08FFC8246E8
:105D500063A1504612F0F9FB0021484613F062FFA0
:105D60008346322000230C2251460090584614F0FE
:105D700035FD4621584614F02BF90021484612F013
:105D8000D5FC059000203223132259460090059837
:105D900014F024FD059812F09CFD0021484612F0F5
:105DA000C5FC04900020322313220090DDE9040199
:105DB00014F014FD049812F085FD0021204615F022
:105DC000FDFE039000200AF01CFC054600EBD57098
:105DD000461000200AF0CCFB032190FBF1F007B243
:105DE00032463946039815F02BFE0121039815F031
:105DF00081FE64200346032249460090039814F074
:105E0000EDFC0021039811F031FC824639495046DF
:105E100012F09BFB0021204606F0D6FD0290FA22EC
:105E20001146029815F00CFE21206FF0310312226A
:105E30000090DDE9020114F0D1FC0121029815F077
:105E400059FE05202C49C870887040F2E270088025
:105E500008212948C1710521817140F2E27026496B
:105E600088800222029806F007FF2349029806F074
:105E70004EFF2149029806F00FFF0021204614F042
:105E800081F901901DA1019814F0C4FA2B490198E1
:105E900014F00CF9019814F035FA05460822002197
:105EA00006F02DF9019814F02DFA0546072201217C
:105EB00006F056F9019814F025FA05460822022149
:105EC00006F01DF90121019815F014FE07B0BDE898
:105ED000F08F0000EF808D004D2F0308EF81B80098
:105EE0004C6162656C20696E207468652077696E0C
:105EF000646F77005C910308A0050020436C696320
:105F00006B206F6E207468652077696E646F7720F0
:105F10006F7220746865207061676520746F2062FD
:105F200072696E6720697420746F207468652066DA
:105F30006F726567726F756E64000000A8050020BF
:105F40002DE9FC4106460D46304615F085FA04461B
:105F50005820005DC0F30010A84240D00DB10120D0
:105F600000E000205821095D60F30411582001551C
:105F7000005D00F00F0090B35820005D00F00800B5
:105F800068BB304615F022FA074604F14E01684618
:105F900004F034FEBDF80000216B098A084400B209
:105FA000ADF80000BDF80210206B408A084400B232
:105FB000ADF80200BDF80400216B098A084400B264
:105FC000ADF80400BDF80610206B408A084400B20A
:105FD000ADF806006946384611F050F800BFBDE83C
:105FE000FC81000008B51C4881681C4819F0D6F8EF
:105FF00010211A4841838183C18201830C2141858C
:106000000146174819F0CAF846225A211548008857
:1060100008F075FB00901248BDF800104180014661
:10602000498881800021818141825F2205210D48BC
:10603000008808F064FB00900948BDF80010018456
:1060400006480549C1F84C0105490348C0F85011FC
:106050000549C0F8541108BDF80A00209C1800201A
:10606000D81800204C050020E40C002003468B4289
:1060700001DA934201DC012070470020FCE703466F
:106080008B4203DB934201DC012070470020FCE7D8
:106090001349096849084FF4FA62B1FBF2F1491E4D
:1060A000104A91621146496941F001015161002194
:1060B00011614100D1621146096841F00801116087
:1060C0001146096841F00101116000BF05490969E5
:1060D00001F001010029F9D00021024A1161704745
:1060E00018000020001000400348006840F0100035
:1060F0000149086070470000403802402DE9F04730
:106100000446201D13F054FC0646204615F0A7F95E
:106110008046B8F1000F02D020460FF033FC08E0B3
:106120003146201D13F049FC07463046FFF7E6FFD5
:106130003E46002EF4D10022132120460EF064FDCD
:1061400020460EF051FD0021204604F0FBFA00200D
:1061500010F024FE05461BE0686BA04202D0A86B3D
:10616000A04202D1284610F00FFFE86BA04201D1F7
:106170000021E963686D404506D110F01DFEA04284
:1061800002D1284610F000FF284610F007FE054611
:10619000002DE1D1204615F0C2F98146214609F1D2
:1061A000040013F0ECFC002211462046E3699847F6
:1061B000606A10B1606A14F07BFA204614F078FA35
:1061C000BDE8F0872DE9F04106460C461546B4F9C6
:1061D0000400B4F90010401A401CC0F5F07087B2FA
:1061E00000201F4908600846C560B4F900006188B6
:1061F0004FF4F07212FB01011A48C06D022202FB3B
:1062000001001749C863002008610846076402209E
:10621000C861A0882188411A491CB4F90600B4F964
:106220000220801A401C61F31F400D494864084653
:10623000006840F00100086005E0404608F10108F0
:10624000401C00B905E00648006800F00100002885
:10625000F3D100BF30460AF06DF9BDE8F0810000CF
:1062600000B002407806002070472DE9F04393B05B
:1062700004460F460021204617F0DDFF0546204664
:1062800015F0F0F806460FA82169016061694160C8
:1062900000BFBDF83C00A18E401A00B2ADF83C0032
:1062A000BDF84000A18E084400B2ADF84000BDF832
:1062B0003E00A18E401A00B2ADF83E00304606EB1B
:1062C000D0714A10618A114409B2ADF842103A46C1
:1062D0000FA911A804F01FFD8046BDF83C00A18E57
:1062E000084400B2ADF83C00BDF84000A18E401A51
:1062F00000B2ADF84000BDF83E00A18E084400B2E7
:10630000ADF83E00BDF84210E888084400B2ADF890
:106310004200B8F1000F09D0204615F0ECF8814694
:106320004B462A4611A90FA80BF080FDBDF83C0092
:10633000A18E401A00B2ADF83C00BDF84000A18E1D
:10634000084400B2ADF84000E08AA18E084400B2D3
:10635000ADF84200304606EBD0714A10618A114414
:1063600009B2ADF83E1006F0010028B9BDF83E00B4
:10637000401C00B2ADF83E003A460FA911A804F047
:10638000CAFC8046BDF83C00A18E084400B2ADF8BE
:106390003C00BDF84000A18E401A00B2ADF84000AC
:1063A000BDF84200A18E401A00B2ADF84200BDF81F
:1063B0003E10E888081A00B2ADF83E00B8F1000FB0
:1063C00015D03C2229466846F9F73DFFA888ADF86C
:1063D00002006988ADF80410204615F08CF881465B
:1063E0004B466A4611A90FA80BF020FD00BF13B061
:1063F000BDE8F0832DE9F04F89B006468846304667
:1064000015F02AF80446304615F075F80890606AD1
:10641000B0F91A90304615F0F9F80146606A408BE1
:10642000091A606A808B081A07B2072097FBF0F000
:106430000FFA80FA304600F05DFE718A0144606A0E
:10644000C08A084400B2ADF81A00616A486A0EF0CA
:10645000C1FCBDF81A10084400B2ADF81E000025BA
:1064600027E007FB05F00721B0FBF1F0318A084473
:10647000484400B2ADF81800BDF818005044401E62
:1064800000B2ADF81C00E9B2304600F019FD8346B9
:1064900000204FF6FF71CDE90201CDE90410042080
:1064A000CDE900B0626A414606A8089B0AF00CFDDF
:1064B0006D1C072DD5D309B0BDE8F08F2DE9F34F42
:1064C00093B08146484614F0C7FF04460021484671
:1064D00006F0A8FB0546484615F00DF81090484612
:1064E00000F008FEB9F812100144606AC08A01EB9E
:1064F0000008616A486A0EF06DFC08EB0001606AF2
:10650000008B084400B2ADF84600686A0EF062FCE9
:10651000BDF84610084400B2ADF84A00484615F0F0
:1065200075F80146688B091AA88B081A00B20F90FB
:10653000B9F81600BDF84610411A288B081A00B2A7
:106540000E9007210F9890FBF1F000B20D90686A51
:106550000EF040FC06220E9902FB1010052190FB64
:10656000F1F000B20C9094F90610A088012200F01E
:10657000CDFC0B900B9818B9012701260A950DE068
:10658000002694F90620511EA08800F031FE07462F
:106590000B98401E381AC7B2E06A0A900020099092
:1065A000A0882188884207D194F9060094F9021046
:1065B000884201D1012009900020079083462EE1F6
:1065C0000998002847D0012E08D194F90300B84259
:1065D00004DB94F90310F81D81420ADBD6BB94F961
:1065E00003100B98C0F10700814234DCBBF1000FAF
:1065F00031D111A905A804F0EDFAB9F81010688B93
:106600000144206B408B081A00B2ADF81400B9F8B1
:106610001410A88B091A206B808B084400B2ADF8C7
:106620001800BDF81610206BC08A081A00B2ADF829
:106630001600BDF81A10206B008B084400B2ADF8AC
:106640001A00226B05A8109B14990BF0EFFB012098
:10665000079002E0FFE7002007904FF0000AC2E039
:106660002EB90B98824502D1012601270A95012EE9
:106670000AD194F90610A08800F0BAFDB84203DAF6
:1066800002260127E06A0A900F9800FB0AF0072112
:10669000B0FBF1F0B9F810100144688B084400B267
:1066A000ADF84400BDF844100D980844401E00B2F7
:1066B000ADF84800012E28D1099830B394F90300B1
:1066C000B84222D111A905A804F084FABDF844000B
:1066D000ADF81400BDF84800ADF81800BDF846103C
:1066E000606BC08A081A00B2ADF81600BDF84A10F7
:1066F000606B008B084400B2ADF81A00626B05A80D
:10670000109B14990BF092FB00BFBEB9A388A0792F
:10671000012800D100E00020191AA079012801D138
:106720000C2002E094F90600401E02463B46484613
:1067300002F0BEF910B1D4F828803BE0012E0AD156
:1067400094F90620A1883B46484602F0B1F910B101
:10675000D4F828802EE0022E18D1A388A0790C2826
:1067600001D1012000E000201918A0790C2801D1E6
:10677000012002E094F90600401C02463B464846D0
:1067800002F096F910B1D4F8288013E0099840B1CE
:1067900094F90300B84204D1012E02D1D4F8348018
:1067A00008E0079820B1012E02D1D4F8308001E032
:1067B000DDF8288008A938461CF058FB00204FF669
:1067C000FF71CDE90201CDE90410042008A9CDE94B
:1067D0000010424611A8109B14990AF075FB781C12
:1067E000C7B20AF1010ABAF1070FFFF439AF686ABC
:1067F0000EF0F0FA0C990844BDF84610084400B2B7
:10680000ADF84600686A0EF0E5FA0C990844BDF848
:106810004A10084400B2ADF84A000BF1010BBBF17D
:10682000060FFFF4CDAE15B0BDE8F08F2DE9F043B3
:1068300099B005460F46284614F00EFE0446284639
:1068400014F059FE8046288AADF85C00A88AADF89D
:106850006000688AADF85E00284600F04BFC698A4B
:10686000084400B2ADF862004346394617A8E26911
:106870000BF0DCFAA08807A91CF0F8FA20208DF8AC
:10688000200000208DF8210094F90610284600F021
:10689000D1FC814649460DF12100F9F70DFDBDF807
:1068A0005E10E069C08A084400B2ADF85E000020C6
:1068B0004FF6FF71CDE90201CDE90410042007A9CC
:1068C000CDE900104346394617A8E2690AF0FCFA00
:1068D00094F90D00002801DA206A00E0E06906461C
:1068E000BDF85C10E069408B084400B2ADF85C0074
:1068F00000204FF6FF71CDE90201CDE904101BA184
:1069000043463246CDE90010394617A80AF0DCFAB2
:1069100094F90D00002801DD206A00E0E0690646D8
:1069200000200090B6F92A30032111A0726A1CF0F1
:106930003FF80146BDF86020E069808B101A401ACC
:1069400000B2ADF85C0000204FF6FF71CDE9020106
:10695000CDE9041006A143463246CDE90010394680
:1069600017A80AF0B1FA19B0BDE8F083EF819300DF
:10697000EF81940070B505460C46284614F06CFD76
:1069800006463484284614F071FE70BD70B5054685
:10699000286814F061FD04462820005D20F0020103
:1069A00028200155005D20F0040128200155005DDC
:1069B00020F0100128200155005D20F0080128205A
:1069C0000155286814F052FE70BD70470246044815
:1069D000008800B2888103480078887300207047DF
:1069E0006C0500207005002070B504460D46002699
:1069F000207800F0010068B92068B5EB500F09D885
:106A00002946204600F020F8206820F00100401CB4
:106A10002060261D304670BD10B50146002011B91A
:106A2000084A10680CE00A1D0B6802EB5300031DB6
:106A3000044C246804F52004A34200D3002000BFC6
:106A400010BD00006401002030B501F0030212B156
:106A500021F00301091D0A1D0368B2EB530F01D198
:106A6000026851080268B1EB520F0ED0031D5A188C
:106A7000146824F0010414600468C1EB5404241F5A
:106A8000156864F35F05156000BF026861F35F027B
:106A9000026030BDF0B506460D460024002E02DA35
:106AA000601CC4B276423746002D02DAA01CC4B284
:106AB0006D42AC46674509D9CCEB0C1000EB4000A9
:106AC000B0FBF7F304F11000C4B205E0C7EB071008
:106AD00000EB4000B0FBFCF30022D9B2162910DD18
:106AE0002C2901DC501CC2B2292901DC501CC2B285
:106AF000252901DC501CC2B2202912DC501CC2B274
:106B00000FE0022901DB501CC2B2062901DB501C38
:106B1000C2B20A2901DB501CC2B20F2901DB501C92
:106B2000C2B2134404F0100008B1C3F15A0304F0D8
:106B3000020038B104F0010008B1B43307E0C3F13A
:106B4000B40304E004F0010008B1C3F5B47398B2D3
:106B5000F0BD000000B587B0184819490860002052
:106B600048600121164881600821C160102101613F
:106B7000402141614FF4C07181610021C1614FF436
:106B80000061016249004162490081620220009077
:106B900008200190062002900390022004900590A6
:106BA000069069460648FBF735F908B1F9F71FFC6E
:106BB0000348FDF7CFF907B000BD0000400100A079
:106BC000440600202DE9F84F04468846914694F883
:106BD000580000F0010008B1BDE8F88FE568002614
:106BE0004FF0010A4FF0010B00BF8DB994F8580027
:106BF000C0F3001000B956B9BBF1000F00D1EBE7AC
:106C00002046C04705464FF0000AD34600E0E3E7C0
:106C100016B92E4606B9DFE7BAF1000F06D02946AD
:106C20002046C8470546B54200D1D5E74FF0010AD6
:106C300005B9DAE7286814F02CFC00B900E0D4E7C5
:106C400000BFE068A84200D1C6E7E068A8B1E168EB
:106C5000086800221021C3699847E168002208688B
:106C60000D210DF0D1FF00900098012800D0B3E76E
:106C7000E168086814F0FAFC00BFE560E1680868A4
:106C800000220F21C3699847E168002208680C219F
:106C90000DF0BAFF0746012F00D09DE7E1680868B4
:106CA0001CF07AFDE168086814F0E0FCA06910B1FE
:106CB0002046A169884700BF8EE7000013B50C4647
:106CC0004FF6FF73012269460248FBF763FA00980A
:106CD0001CBD0000C405002010B5002821D0114BB8
:106CE0000022001F196803E0814203D80A46496860
:106CF0000029F9D152B11368841A9C4204D100686A
:106D000018441060104602E0506000E0186039B18D
:106D100002680B1A934203D10B681A440260496857
:106D2000416010BDBC05002008B51C491C4818F086
:106D300035FA3C220A211B48008807F0E0FC00904D
:106D40001748BDF80010418001464988818006211E
:106D500041830C21C18340F6991007F0B4FC0090E8
:106D60000F48BDF80010418140F2333007F0ABFC12
:106D700000900B48BDF8001001840321C186462213
:106D80005F210848008807F0BAFC00900448BDF86D
:106D9000001081860449C86608BD0000A80C0020C8
:106DA000481200204C050020F80A00202DE9FF4180
:106DB00006460F46304614F04FFB054602A9304602
:106DC00014F0F7FA00242DE0686800EBC40168466F
:106DD00003F0FBFEBDF80000BDF80810084400B247
:106DE000ADF80000BDF80200BDF80A10084400B27A
:106DF000ADF80200BDF80400BDF80810084400B268
:106E0000ADF80400BDF80600BDF80A10084400B251
:106E1000ADF806003946684603F0F8FF00B104E01B
:106E2000601C84B2288CA042CEDC00BF288CA0421B
:106E300001D14FF6FF74204604B0BDE8F081014651
:106E400001F007020AB1104670470120FCE7F8B5CF
:106E500006460C46304614F0FFFA0546286B14F03F
:106E600071FB0746686C20B12046696C18F096F9F2
:106E700024E03946204618F091F9206A0090608895
:106E80002084BDF800006080A01CBDF80010A18027
:106E9000BDF800106181FF21E1730121A181002172
:106EA0006182E180FF21217200216183A183E1825F
:106EB00021830121E186FF21217200BFF8BD00007E
:106EC00070B506460C46304614F0C6FA05466869A9
:106ED00018B1686950F8240070BD024850F82400C9
:106EE000FAE70000E401002070B50546284614F0DA
:106EF000B3FA0446616A486A0DF06CFF616AC98A98
:106F00000144606A008B084400B270BDF0B50446CD
:106F10000B46032B01D2012000E000200546611B37
:106F2000981E0C2707FB0500C0EB4010B0FBF7F0E4
:106F30001044084400EB91006427B1FBF7F7C01B35
:106F40004FF4C877B1FBF7F738440727B0FBF7FCDD
:106F500007FB1C06F0B2F0BD2DE9FC4780460E464B
:106F600016B90020BDE8FC87D8F80C406069B04233
:106F700001D1A069F6E70025AEE005EB8501A06828
:106F800050F82100301A019005EB8501A06800EB54
:106F9000810080880199884200D29BE0002705EBA0
:106FA0008501A06800EB8100807C00F0030040B9FF
:106FB00005EB8501A06800EB8100C08801994718A6
:106FC00084E005EB8501A06800EB8100807C00F087
:106FD000030001280FD105EB8502A16801EB8201B6
:106FE000C86805EB8502A16801EB8201C988019A96
:106FF000825C8F186AE005EB8501A06800EB8100D8
:10700000807C00F00300022827D13948009005EB6E
:107010008503A06800EB8300028A05EB8503A06866
:1070200000EB83000223816801A81BF0F5FE814676
:10703000B9F1000F10D005EB8502A16801EB8201C8
:107040008968A9EB0100400805EB8502A16801EB06
:107050008201C9880F1800BF38E005EB8501A068E0
:1070600000EB8100807C00F0030003282ED1204833
:10707000009005EB8503A06800EB8300028A05EB16
:107080008503A06800EB83000223816801A81BF040
:10709000C3FE8146B9F1000F17D005EB8503A26846
:1070A00002EB83029268A9EB0200400805EB85031E
:1070B000A26802EB8302D16805EB8503A26802EBAC
:1070C0008302D2880B5CD71800BF00BF6661A7613E
:1070D000384647E7681C85B2608AC0F30900A842B9
:1070E0003FF74BAF66610020A06100BF3AE70000A8
:1070F000315D030870B50546284614F0ADF9044625
:10710000E169486A0DF066FEE169C98A0144E069F7
:10711000008B084400B270BD2DE9FC5F80460D462F
:107120001646D8F80C704FF0000A788AC0F3403049
:10713000002841D1FC68A068C0F30160D8B9D4F838
:10714000009005EB062080B2019027480090A068CF
:1071500020F07F420223494601A81BF05DFE8346D2
:10716000BBF1000F06D0ABEB09004008616811F9D4
:1071700000A000BF1FE0A068C0F3016001281AD181
:10718000D4F8009005EB0620019018480090A06804
:1071900020F07F420423494601A81BF03DFE8346B0
:1071A000BBF1000F06D0ABEB09000009616811F9D3
:1071B00000A000BF00BF13E0F8684368595D436852
:1071C0009A5D00290BDD002A09DD531E4C1E90F844
:1071D0000DC004FB0C330468E35C4FFA83FA00BF74
:1071E0005046BDE8FC9F0000B18B0108918B01085F
:1071F00070B505460C46641E002C01DA6D1E0C3479
:107200000C2C01DB6D1C0C3C012C04D1284601F038
:107210007DFC1C300BE0072094FBF0F100FB1146D5
:1072200006EBD6704010A6EB4000C0F11F00C0B2C4
:1072300070BD000070B506460C46641E002C00DAD6
:107240000C34304614F008F90546A86918B1A8694D
:1072500050F8240070BD024850F82400FAE70000FE
:10726000000200202DE9F34F87B08B46079814F0F9
:10727000F3F80546288800FB0BF080B20590A9685A
:10728000486A017AA868C08A0144A868008B08444B
:107290000FFA80FA059E4FF0000897E0686850F8F2
:1072A000260000287DD005F1180030F9189000273D
:1072B00000BF1FE0F119686850F82100B8B1F1195A
:1072C000686850F82100007803909DF80C00C0F326
:1072D000800050B108EB0700401C05F1180131F89F
:1072E000100048440FFA80F900E009E000E007E0F0
:1072F000781C87B207EB08012888401E8142D9DB41
:1073000000BF686850F82600007804909DF81000CF
:10731000C0F3C10105F1080050F821409DF81000AC
:10732000C0F34010B0B1606A017AB4F916000144AC
:10733000B4F918000844504508DD606A017AB4F9D0
:1073400016000144B4F91800084400E050460FFA52
:1073500080FA34E0618BA08B0844A9EB00000FFA9F
:1073600080F90021B4F92A00CDE901910090686804
:1073700050F82600411CB4F9283006A8626A1BF0B8
:10738000B1FABDF91A10B4F916000144B4F91800A5
:10739000084450450ADDBDF91A10B4F9160001443D
:1073A00000E00DE0B4F91800084400E050460FFA80
:1073B00080FAF01986B208EB07001FFA80F800BFC8
:1073C000701C86B208F101001FFA80F82988059820
:1073D0000844B0423FF762AF504609B0BDE8F08FB5
:1073E00000200149087570472007002000B589B0CA
:1073F00000200790142102A8F8F73EFF00BF0020EC
:1074000001903848006840F002003649086008469C
:10741000006800F00200019000BF00BFC814029095
:107420000120039004900220059002A92E48F9F74C
:10743000C3F84FF480600290002003900220049073
:1074400002A92948F9F7B8F800224FF4006126484C
:10745000F9F7C8F91420FEF71BFE0122D1022248D9
:10746000F9F7C0F93220FEF713FE042208A948F20A
:10747000401000F043F802208DF82000012208A9F6
:1074800048F2400000F0BCF8012208A948F2470089
:1074900000F034F80A20FEF7FBFD00208DF82000F4
:1074A000012208A948F2400000F0AAF8012207A929
:1074B00048F24E1000F0A4F84FF4806002900B48A0
:1074C00003900020049002A90748F9F775F80022FC
:1074D00002212820F9F738FF2820F9F725FF09B005
:1074E00000BD0000303802400004024000001110CE
:1074F0000148007D7047000020070020F8B50446D1
:107500000D461646200A8DF80000E0B28DF8010005
:107510004FF47A7302226946BB2000F01DF908B1CE
:107520000120F8BD4FF47A7332462946BB2000F0A3
:1075300001F9F6E7FEB5054600200290019000240F
:1075400000900026012202A948F24E10FFF7D6FF54
:107550009DF8080000F0800058B19DF8080000F088
:107560000F00062805DA012201A948F24E1000F0AA
:1075700047F89DF8080000F00F00D0B39DF8080010
:1075800000F00F00062834DA002429E01A4931F807
:10759000140004226946FFF7B1FF9DF800009DF832
:1075A000011000EB0120154921F814009DF802009C
:1075B0009DF8031000EB012081B210480A3020F83A
:1075C00014100A3830F8140025F814000B480A305B
:1075D00030F8141005F10A0020F81410601CC4B231
:1075E0009DF8080000F00F00A042CFDC012601202A
:1075F00028753046FEBD0000805F0308200700208C
:107600002DE9F84F04460F461646200A8DF8000073
:10761000E0B28DF80100B01C00F0FF08C1464846FA
:107620001BF08CFF0546200A28706C7003E017F8E9
:10763000011BB01C2954301EA6F10101CEB2F6D1B7
:107640004FF47A7342462946BB2000F085F8824603
:107650002846FFF741FB5046BDE8F88F0146002061
:10766000302905DB392903DCA1F13002D0B21CE05E
:10767000612902DBA1F12002D1B2A1F14102062A67
:1076800010D2DFE802F0030507090B0D0A200BE01A
:107690000B2009E00C2007E00D2005E00E2003E0A0
:1076A0000F2001E0002000BF00BF70472DE9FE431E
:1076B00004460D4616461F46DDF82C80E01903B23D
:1076C0002A46214601A8009503F0EFFB43463146C8
:1076D00001A80A9A09F01CFBBDE8FE8310B5124808
:1076E0001249086012484860002110488160C1605A
:1076F0004FF480410161002141618161C1610162FA
:10770000F9F7CAF808B1F8F772FE00210748F9F74F
:1077100075F808B1F8F76BFE00210448F9F794F802
:1077200008B1F8F764FE10BD005C00403807002087
:10773000A0860100F8B504460D4616461F464FF4D4
:107740007A7033462A46214600900248F9F780F9BC
:10775000F8BD000038070020F8B504460D4616466F
:107760001F464FF47A7033462A462146009002485D
:10777000F9F7EAFAF8BD00003807002008B5154906
:10778000154817F00BFD55220F211448008806F00C
:10779000B6FF00901048BDF800100186CC2180F89B
:1077A00032100C490E4817F0F9FC412255210B48C4
:1077B000008806F0A4FF00900748BDF8001001867D
:1077C000CC2180F832100348064948640146054838
:1077D000816408BDA80C0020B40F00204C050020D7
:1077E000F00F0020F80A002070B504460D46A06D89
:1077F000A96830F821102184A06DA96800EB8100F0
:1078000041886184B4F92410B4F9200081420DD17B
:10781000B4F92610B4F92200814207D1A87B0128CF
:1078200004D104F11C0000F059FD03E004F11C0038
:1078300000F004FF218CA184618CE18470BD000004
:107840002DE9F04F87B00446A569002703E02846DC
:1078500013F065FE0546284613F0F2FD08B1002D31
:10786000F5D115B907B0BDE8F08F284613F0DCFD5F
:1078700000B9F7E7284613F0DDFD0646218AA08906
:10788000084401B22182618AE089084401B2618220
:1078900094F8240000F0010058BB06F0010070B11C
:1078A000B4F91000002802DDB4F9100002E0B4F9C8
:1078B0001000404267490968097D884211DA06F0E4
:1078C0000200B0B1B4F91200002802DDB4F91200D0
:1078D00002E0B4F9120040425E490968097D88421D
:1078E00007DB94F8240020F00100401C84F82400F9
:1078F000012794F8240000F0010000287ED0A08920
:1079000010B9E0890028F9D052490968C86808F020
:1079100043FE8246B5F910B0B5F91200069028462C
:1079200013F0FDFD039013F071FE0590284613F04F
:10793000F6FD039013F096FD0490284613F07EFEAA
:107940008046284613F086FE8146032E12D13FB1B1
:10795000208A40440FFA80F8608A48440FFA80F980
:10796000E089484402B2A089404401B2284614F09C
:107970000EF81CE006F0010058B11FB1208A404407
:107980000FFA80F8A089404401B2284614F0C8F8E4
:107990000DE006F0020050B11FB1608A48440FFAB2
:1079A00080F9E089484401B2284614F0C6F8B5F9D8
:1079B000100058452DD1B5F912100698814228D1F2
:1079C000284613F0ACFD019013F020FE03902846EA
:1079D00013F0A5FD019013F045FD02900599039861
:1079E000884215D104990298884211D11949096831
:1079F000C86808F0D1FD0190019A00E027E0A2EBF1
:107A00000A0291B2134A1268D06808F036FE00BF2D
:107A10001CE094F8240020F00200801C84F824006C
:107A2000A7B10C48EB690D2102682846984720460B
:107A300000F064FF00B115E70022082128460DF090
:107A4000E3F8204600F05AFF00B10BE700BF00BF8B
:107A500008E700001C0000202DE9FF41044694F8CF
:107A60002400C0F3400008B9BDE8FF81E56903E0E8
:107A7000284613F054FD0546284613F0E1FC08B1F2
:107A8000002DF5D105B9EFE7284613F0DFFCD8B992
:107A900094F8240020F0020184F824105948EB697E
:107AA0000E210268284698470022092128460DF039
:107AB000ABF8204600F022FF00B1D5E700220921F3
:107AC00028460DF0A1F8CFE7284613F0B3FC064690
:107AD000A08A4C490968497DC1F1640110FB01F09D
:107AE000642190FBF1F001B2A182E08A4549096866
:107AF000497DC1F1640110FB01F0642190FBF1F0BC
:107B000001B2E182A08A10B9E08A00285DD002A902
:107B1000284613F04EFC284613F090FDA18A084435
:107B20000FFA80F8284613F095FD0146E08A0844D4
:107B300007B2032E05D13A464146284613F027FFE7
:107B40000EE006F0010020B14146284613F0E8FFA0
:107B500006E006F0020018B13946284613F0EDFFA2
:107B60006946284613F025FCBDF90800BDF9001050
:107B7000884201D0A08A38BBBDF90A00BDF90210C5
:107B8000884201D0E08AF8B994F8240020F002017C
:107B900084F824100021A181E181A182E1821948A9
:107BA000EB690E21026828469847204600F0A6FEA1
:107BB00000B159E70022092128460DF025F820469A
:107BC00000F09CFE00B14FE71AE094F8240020F08A
:107BD000020184F824100B48EB690E210268284644
:107BE0009847204600F08AFE00B13DE700220921B7
:107BF00028460DF009F8204600F080FE00B133E77A
:107C000000BF31E71C0000202DE9F84304460D4673
:107C1000A87B012806D194F84C00C0F3C00008B13D
:107C2000BDE8F88394F84C00C0F3C00080B194F82C
:107C30004C0020F0080184F84C100021616494F895
:107C40004C0020F0010184F84C1000212020015547
:107C500094F82080A97B2020015569686162676DD6
:107C600007B9DDE738460DF037FEC549086008461C
:107C7000006800B9D4E7A87B002843D138460DF04E
:107C800022FE00B3B5F90C0000280CDA002604E04F
:107C9000142138460DF0DAFE761CB5F90C0040428E
:107CA000B042F5DC0EE0B5F90C0000280ADD002634
:107CB00004E0132138460DF0C9FE761CB5F90C001E
:107CC000B042F6DC1EE0B5F90C0000280BDA002605
:107CD00003E038460DF0E2FD761CB5F90C00404299
:107CE000B042F6DC0DE0B5F90C00002809DD0026F5
:107CF00003E038460DF068FD761CB5F90C00B04283
:107D0000F7DC00BF38460DF0E7FD9D4908600846E6
:107D1000006800B984E7A87B012831D1B8F1000FD1
:107D20002ED100200090964800686A461221C3694F
:107D30009348006898471AF0CBFC606438460DF011
:107D4000C2FD10B99DF80000C8B98D480068002236
:107D50000721C3698A480068984704F11C0000F0B5
:107D6000CDFD00B15CE700221146854800680CF0AB
:107D70004BFF04F11C0000F0C1FD00B150E7F9E039
:107D8000A87B01284BD1B8F1010F48D194F84C00E1
:107D900000F001000028F2D1606C1AF08BFCE18A3F
:107DA0008842ECD900200090754800686A4612218C
:107DB000C3697348006898479DF8000068B1384669
:107DC00011F09CFE18BB38460DF07DFD80F00106D9
:107DD000314638460DF059FE19E069480068002226
:107DE0000B21C36966480068984704F11C0000F045
:107DF00085FD00B114E700220421614800680CF001
:107E000003FF04F11C0000F079FD00B108E794F8CD
:107E10004C0020F00100401C84F84C00AAE0A87B34
:107E20000028ACD1B8F1010FA9D1009054480068E6
:107E30006A461221C3695248006898479DF80000BD
:107E4000B0BB4F48006800220A21C3694C48006853
:107E5000984704F11C0000F051FD00B1E0E694F8F1
:107E60004C0000F0010028B90022032144480068BA
:107E70000CF0CAFE04F11C0000F040FD00B1CFE69A
:107E8000002206213E4800680CF0BEFE04F11C00F2
:107E900000F034FD00B1C3E6002207213848006835
:107EA0000CF0B2FE04F11C0000F028FDA8B3B7E608
:107EB000FFE797F85800C0F3400078B394F84C00FF
:107EC00000F0010018B1384611F018FE28B32C4814
:107ED000006800220A21C36929480068984704F114
:107EE0001C0000F00BFD00B19AE60022032124489B
:107EF00000680CF089FE04F11C0000F0FFFC00B1EA
:107F00008EE6002206211E4800680CF07DFE04F17A
:107F10001C0000F0F3FC10B182E622E010E0002229
:107F20000721174800680CF06FFE04F11C0000F0F8
:107F3000E5FC00B174E60A2138460DF087FD10E03B
:107F40009DF8000068B197F85800C0F3400040B9B0
:107F500094F84C0000F0010018B9012138460DF0EA
:107F600094FD0021616494F84C0020F0010184F834
:107F70004C1000BF00200249086000BF50E600001E
:107F8000200000202DE9F04104460D46A87B012881
:107F900006D194F84C00C0F3C00008B1BDE8F081F0
:107FA00094F84C00C0F3C00080B194F84C0020F06D
:107FB000080184F84C100021616494F84C0020F012
:107FC000010184F84C10002120200155676D07B98C
:107FD000E4E738460DF080FCA849086008460068D0
:107FE00000B9DBE7D4F82480696861622020065D6F
:107FF000A97B0155A87B012861D1002E5FD11AF021
:1080000067FB606468680A281ED10A2138460DF0B3
:108010001DFD9A48006800220721C369974800683F
:10802000984704F11C0000F069FC00B1B6E700229B
:108030001146924800680CF0E7FD04F11C0000F0C6
:108040005DFC00283AD0A9E768681B2810D11B21E5
:1080500038460DF0FBFC00221221884800680CF025
:10806000D3FD04F11C0000F049FC0028EAD095E79C
:10807000686809280DD1002138460DF006FD384604
:108080000DF0A2FB04F11C0000F038FC0028D9D050
:1080900084E768680B280DD1002138460DF0F5FC07
:1080A00038460DF0FBFB04F11C0000F027FC002813
:1080B000C8D073E7384669680DF0C8FCD9E0A87BE2
:1080C000012872D1012EFCD194F84C0000F001007F
:1080D00068BB606C1AF0EEFAE18A884227D994F8FE
:1080E0004C0020F00100401C84F84C0068680A280D
:1080F000E4D11AF0EDFAA0646048006800220B2178
:10810000C3695E480068984704F11C0000F0F6FB64
:1081100000B143E700220421584800680CF074FDC8
:1081200004F11C0000F0EAFB0028C7D036E794F801
:108130004C0000F001000028C0D0A06C1AF0BAFA80
:10814000218B8842BAD91AF0C3FAA06468680A2859
:108150001AD14A48006800220C21C36947480068C8
:10816000984704F11C0000F0C9FB00B116E700229B
:108170000521424800680CF047FD04F11C0000F0A6
:10818000BDFB002875D009E7686809280ED10021D9
:1081900038460DF07AFC38460DF016FB04F11C0051
:1081A00000F0ACFB002864D0F8E619E068680B2802
:1081B0000CD1002138460DF068FC38460DF06EFBFE
:1081C00004F11C0000F09AFB90B3E7E638466968BA
:1081D0000DF03CFC04F11C0000F090FB40B3DDE628
:1081E000A87B28BB012E44D1C5F8048068680A2802
:1081F00037D12248006800220A21C3691F4800685D
:10820000984704F11C0000F079FB00B1C6E694F831
:108210004C0000F0010060B90022032117480068FB
:108220000CF0F2FC04F11C0000F068FB08B1B5E6AC
:108230001FE000220621114800680CF0E5FC04F163
:108240001C0000F05BFB00B1A8E6002207210B48F0
:1082500000680CF0D9FC04F11C0000F04FFB00B1E9
:108260009CE60021616494F84C0020F0010184F840
:108270004C1000200149086000BF8FE6200000205C
:1082800070B504460D46206D90B1B4F92400B5F9DF
:108290000010884205D1B4F92600B5F902108842D1
:1082A00006D0B5F90220B5F90010206D13F06FFB70
:1082B0002988218469886184207F012804D104F100
:1082C0001C0000F00BF803E004F11C0000F0B6F90C
:1082D000218CA184618CE18470BD00002DE9F04106
:1082E0000446D449A069086094F83000C0F3C00087
:1082F00008B1BDE8F081D0480068C668CD48006884
:1083000020BB304608F04EF905462946204600F0CD
:1083100005FBC84908600846006848B9304608F0BF
:108320004CF905462946204600F0F8FAC149086094
:10833000C0480068C8BB304608F058F905462946D1
:10834000204600F0EBFABB4908602EE094F82400C8
:10835000C0F3400048BB1021B648006813F0FAF99A
:1083600018BB304608F01EF905462946204600F0A5
:10837000D5FAB04908600846006848B9304608F0A8
:108380001CF905462946204600F0C8FAA9490860AC
:10839000A848006848B9304608F028F9054629463B
:1083A000204600F0BBFAA3490860A249A069096809
:1083B00088426CD0A1882181E1886181A069B0B137
:1083C000A5699D48EB69092102682846984720461F
:1083D00000F094FA00B18CE70022022128460CF04C
:1083E00013FC204600F08AFA00B182E700BF9148F2
:1083F0000168A1610168E1610068002847D01AF0B6
:1084000067F9A06294F8300020F0010084F8300091
:1084100094F8240020F0010184F8241094F824003A
:1084200020F0020184F82410002121826182A181C0
:10843000E18180480568002709E095F83000C0F325
:10844000401000B12F46284613F069F80546002D6C
:10845000F3D117B1384613F086F976480068C3693E
:10846000754807210268734800689847204600F065
:1084700045FA00B13DE7002211466E4800680CF055
:10848000C3FB204600F03AFA00B132E700BFA188F2
:108490002089081A01B2A181E1886089081A01B215
:1084A000E181B4F9140000EB8000C010A082B4F99F
:1084B000160000EB8000C110E182B4F9140000281E
:1084C00004DAA08A401C01B2A18207E0B4F91400CA
:1084D000002803DDA08A401E01B2A182B4F9160073
:1084E000002804DAE08A401C01B2E18207E0B4F916
:1084F0001600002803DDE08A401E01B2E182A18A55
:10850000B4F90C00800001EBE00001B2A182E18A25
:10851000B4F90E00800001EBE00001B2E1824548B1
:108520000068002875D043480068C36942480821A4
:108530000268404800689847204600F0DFF900B123
:10854000D7E6002201213B4800680CF05DFB204685
:1085500000F0D4F900B1CCE62046FFF771F92046CF
:1085600000F0CCF900B1C4E694F82400C0F3400058
:1085700078BB94F8300000F0010050BBA06A1AF0FC
:1085800099F82D490968C98A884222D92948006882
:10859000C36929480B21026826480068984720468D
:1085A00000F0ACF900B1A4E60022042121480068E3
:1085B0000CF02AFB204600F0A1F900B199E694F8EE
:1085C000300020F00100401C84F830001AF080F8E0
:1085D000E06294F82400C0F34000D0B994F8300071
:1085E00000F00100A8B1E06A1AF064F812490968C5
:1085F000098B88421CD90F480068C3690E480C21BA
:1086000002680C4800689847204600F077F908B1E6
:108610006FE60DE000220521064800680CF0F4FA30
:10862000204600F06BF900B163E61AF051F8E06201
:1086300000BF5EE6200000201C0000202DE9F04174
:10864000044694F83000C0F3C00058B10021A16185
:10865000E1610020A062E06294F8300020F00800A0
:1086600084F830008C49A06908600846006800283A
:1086700074D010218848006813F06CF800283AD0B4
:1086800085480068C36985480A21026882480068F5
:108690009847204600F032F908B1BDE8F08194F81F
:1086A0002400C0F34000D0B994F8300000F001007D
:1086B00050B900220321784800680CF0A5FA204642
:1086C00000F01CF900B1E8E70022062172480068BA
:1086D0000CF09AFA204600F011F900B1DDE7002213
:1086E00007216D4800680CF08FFA204600F006F96B
:1086F00000283FD0D1E768480068C36967480A216D
:108700000268654800689847204600F0F7F800B115
:10871000C3E794F8300000F0010078B994F8240021
:10872000C0F3400050B9002203215B4800680CF000
:108730006BFA204600F0E2F800B1AEE794F82400AE
:10874000C0F3400058B900220621534800680CF0DD
:108750005BFA204600F0D2F808B19EE78AE00022DA
:1087600007214D4800680CF04FFA204600F0C6F88B
:1087700000B192E7204600F0C1F800B18DE74FF05C
:1087800000084548006812F06AFE0546202142486C
:10879000006812F0DFFF10BB3F48076810E0384662
:1087A00012F0BDFE074607B90CE02021384612F052
:1087B000D1FF08B1002705E0384612F050FE05460B
:1087C000002DECD000BF4DB147B128460DF072F836
:1087D00020B14FF0010838460DF002F800BF2E49D5
:1087E000206A0968884219D0B8F1000F16D100221A
:1087F0000D21206A0CF008FA204600F07FF800B145
:108800004BE700220C21A0690CF0FEF9204600F095
:1088100075F800B141E7204801682162204600F068
:108820006DF800B139E71C48066803E0304612F0E5
:1088300076FE0646304612F003FE08B1002EF5D152
:1088400096B1304612F002FE70B194F82400C0F3E5
:10885000400048B100220A2130460CF0D5F92046EC
:1088600000F04CF800B118E70021A1610020A062DF
:10887000E06200BFE06960B194F83000C0F34000EE
:1088800038B92046FFF7E8F8204600F037F800B185
:1088900003E700BF01E70000200000201C000020CB
:1088A00090F84C10C1F3400129B300224263826367
:1088B000C26390F8401021F0010280F8402090F847
:1088C000401021F0020280F8402090F84C1021F076
:1088D000010280F84C200022426482648285C285B5
:1088E0000286428690F84C1021F0020280F84C205B
:1088F0000021014A1160704720000020014691F8D4
:108900003000C0F3400010B10020034A106091F81D
:108910003000C0F340007047200000202DE9F041F6
:1089200007460C460025391D04F1100002F06EFACE
:1089300000282BD0201D11F03BF880460BE041466B
:108940003846FFF7EBFF054605B107E04146201D1D
:1089500011F033F88046B8F1000FF0D100BFA5B98F
:10896000204612F020FD80B1264608E0304612F085
:1089700090FD00B105E0304612F0D1FD0646002E14
:10898000F4D100BF06B9254600BF00BF2846BDE8A8
:10899000F0812DE9FE4F05462E46304612F0BFFD10
:1089A0000290029812F058FD044694F8440000F03A
:1089B0000100002839D0208F072190FBF1F087B209
:1089C000608F90FBF7F107FB11006087608F032138
:1089D00001FB07006087206B12F0B4FD8046D8F8D9
:1089E00024A050460CF0FFF98146029812F03AFD9F
:1089F0008346206BB0F91210628FB8F92A00484400
:108A000002FB0011708A081A00B20190ABEB09005A
:108A100000EBD0714A1001994942114409B200910A
:108A20003046009913F089F800BFBDE8FE8F2DE9AC
:108A3000FF4106460C464FF6FF70844201D1BDE867
:108A4000FF81304612F008FD0546686800EBC4015E
:108A500002A802F0BAF86946304612F0AAFCBDF846
:108A60000800BDF80010084400B2ADF80800BDF8D9
:108A70000A00BDF80210084400B2ADF80A00BDF8C3
:108A80000C00BDF80010084400B2ADF80C00BDF8B1
:108A90000E00BDF80210084400B2ADF80E003046DA
:108AA00012F094FC074602A90EF0E8FA00BFC6E7F0
:108AB0002DE9F04781460E4617469846484612F083
:108AC000CBFC0446A06808B1207B10B90020BDE8AB
:108AD000F087002515E0A06830F82500B0420FD1DE
:108AE000A06800EB850090F90200B84208D1A068A8
:108AF00000EB850090F90300404501D10120E6E735
:108B00006D1C207BA842E6D80020E0E7014601F07A
:108B1000030070B96420B1FBF0F200FB121030B911
:108B20004FF4C870B1FBF0F200FB121008B901203D
:108B300070470020FCE7000010B51149114816F0FD
:108B40002DFB114801680F4841621048D0F8C4005D
:108B50000E49C1F8DC000B490C48C0F8E010D0F811
:108B6000CC10C0F8E410D0F8D010C0F8E810D0F85D
:108B7000D410C0F8EC10D0F8D810C0F8F01010BD28
:108B8000C80700204416002050050020F80A0020E5
:108B900030B5024614460B4620881D88A84203D0F3
:108BA00020881D88401B30BD60885D88401BFAE727
:108BB00030B5024614460B4620781D78A84203D0F3
:108BC00020781D78401B30BD60785D78401BFAE747
:108BD00070B50546304800EB051420688047002832
:108BE0003ED12079052802DA0520207153E0207952
:108BF0000A2803DA2079401C20714CE0A07A38B9A9
:108C00000120A07205EB4501491CC8B200F0B2F882
:108C1000208900283FDDE088218988420DDAE0883C
:108C2000401CE080E0882189884234DB05EB450167
:108C3000C91CC8B200F09EF82DE0E07A00282ADDB9
:108C4000207B401C2073207BE17A884223DB0020BC
:108C5000207305EB4501491CC8B200F08BF81AE0FF
:108C60002079052802DD0520207111E020790028F7
:108C700003DD2079401E20710AE0A07A012807D187
:108C80000020A07205EB4501891CC8B200F072F803
:108C90000020E080207370BD0406002010B500F0B5
:108CA00009F800F085F801200149087010BD0000A6
:108CB0000A00002000B587B0142102A8F7F7DCFAFB
:108CC00000BF002001902448006840F001002249C4
:108CD00008600846006800F00100019000BF00BF76
:108CE00000BF002001900846006840F008000860BE
:108CF0000846006800F00800019000BF00BF00BFF8
:108D0000002001900846006840F080000860084696
:108D1000006800F08000019000BF00BF802002903A
:108D200000200390049002A90C48F7F745FC0420AA
:108D3000029000200390049002A90948F7F73CFC38
:108D40000120029000200390049002A90548F7F743
:108D500033FC07B000BD000030380240000C024078
:108D6000001C0240000002400148007870470000EB
:108D70000A00002007494A794979491C054B597175
:108D8000194688544979042902DB00211A46517199
:108D9000704700000400002010B5002400BF04E06C
:108DA0002046FFF715FF601CC4B2042CF8DB10BD91
:108DB00000200021144A1171517100BF18E0642194
:108DC000124A02EB001211810221104A02EB00123A
:108DD000117100210D4A02EB001291720B4A02EB55
:108DE0000012D172094A02EB00121173411CC8B281
:108DF0000428E4DB0649054A116006491161064969
:108E00001162064911637047040000200406002027
:108E1000ED26010821270108092701080527010877
:108E2000002070477047000070B506460C46A11C34
:108E300020461AF06BFCFFF7F3FF0546B5B10120A1
:108E4000A073062D0ED2DFE805F00D030507090B10
:108E5000092507E00B2505E0142503E0132501E0B3
:108E60000A2500BF00BF0548056001E00020A0738F
:108E7000024800686060002070BD00007805002096
:108E800008B51D491D4816F089F91D4801681B48A1
:108E900041620A2250211B48008805F030FC0090F6
:108EA0001648BDF8001001840146174816F076F9FF
:108EB0004B2250211348008805F021FC00901248F5
:108EC000BDF8001001840D49104816F067F95A22C8
:108ED00028210C48008805F012FC00900B48BDF8D2
:108EE0000010018405480A49886307490848C1639E
:108EF0000649016408BD0000A80C0020000F0020F6
:108F0000500500204C0500203C0F0020780F002069
:108F1000F80A002010B50446224602210148F7F75E
:108F200061FC10BD0000024010B50446E0B230B153
:108F300000224FF400411348F7F754FC04E00122EB
:108F4000D1031048F7F74EFC04F47F4028B100220B
:108F500010210D48F7F746FC04E0012210210A48D1
:108F6000F7F740FC04F47F0028B1002208210648EE
:108F7000F7F738FC04E0012208210348F7F732FC38
:108F800010BD000000000240000C024000B587B098
:108F9000142102A8F7F770F900BF002001902F48B4
:108FA000006840F001002D4908600846006800F0A4
:108FB0000100019000BF00BF00BF002001900846E3
:108FC000006840F0080008600846006800F00800EB
:108FD000019000BF00BF00BF00200190084600685C
:108FE00040F0080008600846006800F008000190A2
:108FF00000BF00BF4FF40040029001200390049096
:109000000220059002A91648F7F7D6FA0820029028
:109010000120039004900220059002A91148F7F75F
:10902000CBFA1020029001200390049002200590BA
:1090300002A90C48F7F7C0FA0122D1030848F7F754
:10904000D1FB012208210748F7F7CCFB01221021B0
:109050000448F7F7C7FB07B000BD000030380240F6
:1090600000000240000C024008B51E491E4816F0E0
:1090700095F80A211C48418247F61841C180032116
:1090800081814C21C173642211461848008805F083
:1090900036FB00901448BDF8001041806422114650
:1090A0001248008805F02BFB00900F48BDF8001017
:1090B00081803C2211460D48008805F020FB00907D
:1090C0000948BDF800104181642211460748008814
:1090D00005F015FB00900448BDF80010018204491A
:1090E000086508BDA80C00202C1000204C050020AD
:1090F000F80A002010B532480068B0F57F0F2FD075
:109100000BDC98B1FF2819D0B0F57F4F1FD0A0F528
:109110007F40FF3800284FD13DE0B0F1FF1F31D034
:109120002849084428B3FF2846D13DE0FF202449C0
:10913000086008460068FFF7F7FE3EE04FF47F4006
:109140001F49086008460068FFF7EEFE35E04FF45F
:109150007F001B49086008460068FFF7E5FE2CE029
:10916000184840421649086008460068FFF7DCFED0
:1091700023E04FF0FF101249086008460068FFF72F
:10918000D3FE1AE04FF6FF700D49086008460068EC
:10919000FFF7CAFE11E06FF07F40094908600846FA
:1091A0000068FFF7C1FE08E0002005490860084696
:1091B0000068FFF7B9FE00E000BF00BF10BD00006F
:1091C00000000020000100FF2DE9F04F85B00446AB
:1091D000894615461E46E88E401E07B24FEA6708CC
:1091E00007F0010AFF2E02D13820405D03E038204D
:1091F000405D7043001283462088ADF80C00A088C3
:10920000ADF810006088A0EB0800A0EB0A0000B2E7
:10921000ADF80E00E088404400B2ADF81200BDF990
:109220000C00BDF91010884202DABDF90C0001E013
:10923000BDF91000ADF80400BDF90C00BDF9101027
:10924000884202DDBDF90C0001E0BDF91000ADF867
:109250000800BDF90E00BDF91210884202DABDF90E
:109260000E0001E0BDF91200ADF80600BDF90E00D8
:10927000BDF91210884202DDBDF90E0001E0BDF912
:109280001200ADF80A00A88E5B46024649460090DF
:1092900001A807F03DFD05B0BDE8F08F0FB59DB00A
:1092A0002298FF2803D1209890F8380005E02098F4
:1092B00090F838002299484300121C9014F056FC94
:1092C0000A9007F03EF91B901D9881880088081AC3
:1092D00000B2ADF868001D98C1884088081A00B235
:1092E000ADF86A001D98007EF0B11D98B0F902102B
:1092F000B0F906201E98104481420ADABDF86A00CF
:10930000404200B2ADF86400BDF86800ADF86600F8
:1093100028E0BDF86A00ADF86400BDF8680040427E
:1093200000B2ADF866001DE01D98B0F90010B0F96C
:1093300004201E98104481420ADABDF86A00ADF894
:109340006400BDF86800404200B2ADF8660009E074
:10935000BDF86A00404200B2ADF86400BDF8680094
:10936000ADF86600BDF86400000100B2ADF864001D
:10937000BDF86600000100B2ADF866002098B0F9B3
:10938000360018901898400000B217901798800087
:109390000A9007F01FFD16900020159018980028DD
:1093A0003DD00020039019AA03A904A800F0F2FE02
:1093B0001898404302900020159029E0BDF818202D
:1093C000DDE9151020F82120BDF81A20DDE915107F
:1093D00000EB81004280BDF8180010FB00F1BDF8E1
:1093E0001A2012FB02100190DDE90101884208D326
:1093F000159818901B9818B11898401E00B2189034
:109400000BE004A800F038FF1598401C00B215903E
:109410001798401E15998842D0DC00BF00BF1898ED
:1094200013901B9828B1189808B9012013900020B8
:1094300014900020129011901898B0B11898401E06
:10944000169931F920000A9000EBD070401012906C
:109450001898401E169901EB8000B0F902000A909E
:1094600000EBD0704010119023E01D98007E70B189
:109470001D98B0F90210B0F906201E9810448142E0
:1094800005DB16984088401E01B2169841801D9851
:10949000007E70B91D98B0F90010B0F904201E9834
:1094A0001044814205DB16980088401E01B21698D0
:1094B00001800020159077E1DDE9151030F82110CA
:1094C0001298081A02B2DDE9151020F82120DDE912
:1094D000151000EB810041881198081A02B2DDE9ED
:1094E000151000EB810042801B9800287ED0159853
:1094F0000028FBD01D98007E002878D01598401ECB
:10950000169931F920200846159930F92100824238
:10951000ECD0DDE9151000EB810042881499169813
:1095200000EB81004088101A00B20A901D98B0F933
:109530001200002847DA1C9801902098808EADF820
:1095400000001D9842881499169800EB810040880D
:1095500011180A980844401C00B209901D9802880E
:109560001499169830F821001044401E00B208905B
:109570001F9BDDE9091207F08BF91C9801902098D8
:10958000808EADF800001D98C2881499169800EBE3
:109590008100408811180A980844401C00B20990C4
:1095A0001D9882881499169830F821001044401CA8
:1095B00000B208900A98404202B21F9BDDE9080100
:1095C00007F066F941E01C9801902098808EADF874
:1095D00000001D9842881499169800EB810040887D
:1095E000104400B209901D98028801E0BDE02FE010
:1095F000169830F821001044401E00B208901F9BBE
:10960000DDE9091207F044F91C9801902098808E3A
:10961000ADF800001D98C2881499169800EB8100DF
:109620004088104400B209901D988288169830F83E
:1096300021001044401C00B208900A98404202B237
:109640001F9BDDE9080107F023F915981490A7E0A6
:109650001598401E169901EB8000B0F902200846CB
:10966000159900EB8100B0F9020082427DD0DDE95E
:10967000151030F82120149930F82100101A00B28A
:109680000A901D98B0F90E00002845DA1C98019048
:109690002098808EADF800001D9842881499169885
:1096A00000EB810040881044401E00B209901D98D4
:1096B0000288169830F8210011180A980844401CB6
:1096C00000B208901F9BDDE9091207F0B3F81C985F
:1096D00001902098808EADF800001D98C2881499E2
:1096E000169800EB810040881044401C00B209909D
:1096F0001D988288169830F8210011180A9808449D
:10970000401C00B208900A98404202B21F9BDDE95B
:10971000080107F08FF840E01C9801902098808E97
:10972000ADF800001D9842881499169800EB81004E
:1097300040881044401E00B209901D980288169877
:1097400030F82100104400B208901F9BDDE9091297
:1097500007F070F81C9801902098808EADF80000FA
:109760001D98C2881499169800E019E000EB81005A
:1097700040881044401C00B209901D9882881698B9
:1097800030F82100104400B208900A98404202B21A
:109790001F9BDDE9080107F04DF81598149000BFF4
:1097A0001598401C00B21590189915988842FFF63C
:1097B00083AE189800287DD01B980028FBD01D98F8
:1097C000007E002877D01398401E169901EB800088
:1097D00042880846149900EB81004088101A00B2B4
:1097E0000A901D98B0F91200002851DA1C980190D7
:1097F0002098808EADF800001D9842881499169824
:1098000000EB8100408811180A98084400B20890C3
:109810001D9802881499169830F821001044401EB3
:1098200000B207901D98418A0A98084400B2099036
:1098300002461F9BDDE9070107F02AF81C980190FA
:109840002098808EADF800001D98C2881499169853
:1098500000EB8100408811180A98084400B2089073
:109860001D9882881499169830F821001044401CE5
:1098700000B207901D98418A0A980844404200B2FD
:10988000099002461F9BDDE9070107F001F84DE052
:109890001C9801902098808EADF800001D98428899
:1098A0001499169800EB81004088104400B208908B
:1098B0001D9801E0E8E03AE00288169830F82100AF
:1098C0001044401E00B207901D98418A0A9808442F
:1098D00000B2099002461F9BDDE9070106F0D8FFA0
:1098E0001C9801902098808EADF800001D98C288C9
:1098F0001499169800EB81004088104400B208903B
:109900001D988288169830F821001044401C00B23F
:1099100007901D98418A0A980844404200B2099075
:1099200002461F9BDDE9070106F0B2FFACE0139889
:10993000401E169931F820200846149930F821006D
:10994000101A00B20A901D98B0F90E0000284FDAE4
:109950001C9801902098808EADF800001D984288D8
:109960001499169800EB810040881044401E00B204
:1099700008901D980288169830F8210011180A984E
:10998000084400B207901D98C1890A98084400B2A3
:10999000099002461F9BDDE9070106F04BFF1C986A
:1099A00001902098808EADF800001D98C28814990F
:1099B000169800EB810040881044401C00B20890CB
:1099C0001D988288169830F8210011180A980844CA
:1099D00000B207901D98C1890A980844404200B21D
:1099E000099002461F9BDDE9070106F023FF4AE0CC
:1099F0001C9801902098808EADF800001D98428838
:109A00001499169800EB810040881044401E00B263
:109A100008901D980288169830F82100104400B272
:109A200007901D98C1890A98084400B2099002461F
:109A30001F9BDDE9070106F0FDFE1C9801902098B0
:109A4000808EADF800001D98C2881499169800EB1E
:109A5000810040881044401C00B208901D98828804
:109A6000169830F82100104400B207901D98C18963
:109A70000A980844404200B2099002461F9BDDE963
:109A8000070106F0D7FE00BF002010900F901B9832
:109A900040B31D98007EB8B91D98B0F90E0000289B
:109AA00009DA4FF0FF301090189808B9002000E054
:109AB00010980F901FE001200F90189808B900200F
:109AC00000E00F98109016E01D98B0F912000028E1
:109AD00009DA4FF0FF301090189808B9002000E024
:109AE00010980F9007E001200F90189808B90020F7
:109AF00000E00F9810901D980088ADF838001D9870
:109B00004088ADF83A0001200B901D98007E002897
:109B10007ED0B5E00020159053E0BDF83820DDE997
:109B2000151030F82100104400B2ADF83000BDF837
:109B30003A20DDE9151000EB81004088104400B2A6
:109B4000ADF83200BDF830101D9800890844BDF80A
:109B50003810401A401E00B2ADF83400BDF8320093
:109B6000ADF836002098808E0A9002460CA81C9B07
:109B70001F9907F0CDF81598F8B1DDE9151030F907
:109B80002120481E169931F92000824215D00B98E9
:109B900098B91C980090BDF832101D98408A081A98
:109BA00000B209902098808E0A90BDF9300008908C
:109BB000DDE909131F9A08F0CEF81598401C00B291
:109BC0001590189915988842A7DB1B98F0B31C983C
:109BD00001902098808EADF80000BDF838101D98D7
:109BE0000089081A00B20A90BDF83A101698408809
:109BF00001441098081A00B20990BDF83810169860
:109C00000088084400B208901F9BDDE9091200E0BB
:109C1000E7E006F00FFE1C9801902098808EADF8CA
:109C200000001D980189BDF83800081A00B20A909A
:109C3000BDF83A201398401E169901EB8000408829
:109C400011180F98084400B2099000E00EE0BDF82A
:109C500038201398401E169931F82000104400B2A5
:109C600008901F9BDDE9091206F0E4FD00200B902F
:109C70001D980089ADF838001D984089ADF83A006C
:109C80001D9800F03EFB00287FF444AF159052E091
:109C9000BDF83820DDE9151030F82100104400B27D
:109CA000ADF83000BDF83A20DDE9151000EB810079
:109CB0004088104400B2ADF83200BDF830101D9855
:109CC00000890844BDF83810401A00B2ADF83400DD
:109CD000BDF83200ADF836002098808E0A9002461A
:109CE0000CA81C9B1F9907F013F81598F8B1DDE933
:109CF000151030F92120481E169931F920008242B2
:109D000015D00B9898B91C980090BDF832101D988A
:109D1000408A081A00B209902098808E0A90BDF9F6
:109D200030000890DDE909131F9A08F014F815981F
:109D3000401C00B21590189915988842A8DB1B9812
:109D400000284DD01C9801902098808EADF800001E
:109D50001D980089BDF83810401A401C404200B2DE
:109D60000A90BDF83A101698408801441098081AD5
:109D700000B20990BDF8381016980088084400B267
:109D800008901F9BDDE9091206F054FD1C98019014
:109D90002098808EADF800001D980089BDF838101D
:109DA000401A401C00B20A90BDF83A201398401E99
:109DB000169901EB8000408811180F98084400B2F2
:109DC0000990BDF838201398401E169931F82000EC
:109DD000104400B208901F9BDDE9091206F02AFD2D
:109DE0006DE1B7E00020159058E0BDF83820DDE9BE
:109DF000151030F82100104400B2ADF83000BDF865
:109E00003A20DDE9151000EB81004088104400B2D3
:109E1000ADF83200BDF83000ADF83400BDF83210B6
:109E20001D9840890844BDF83A10401A401E00B2FF
:109E3000ADF836002098808E0A9002460CA81C9B34
:109E40001F9906F065FF159820B3DDE9151000EBAA
:109E50008100B0F90220481E169901EB8000B0F98C
:109E60000200824216D00B98A0B91C980090BDF851
:109E700030101D98C089081A00B208902098808E72
:109E80000A90BDF93200099001460A9B1F9A089872
:109E900007F061FF1598401C00B2159018991598AD
:109EA0008842A2DB1B98E8B31C9801902098808E12
:109EB000ADF80000BDF83A101D984089081A00B2AC
:109EC0000A90BDF83A1016984088084400B20990EC
:109ED000BDF838101698008801441098081A00B28E
:109EE00008901F9BDDE9091206F0D2FC1C98019036
:109EF0002098808EADF800001D984089BDF83A107A
:109F0000401A00B20A90BDF83A201398401E1699E4
:109F100001EB80004088104400B20990BDF8382061
:109F2000139800E00CE0401E31F8200011180F9843
:109F3000084400B208901F9BDDE9091206F0A8FC56
:109F400000200B901D980089ADF838001D984089BD
:109F5000ADF83A001D9800F0C3F900287FF442AF35
:109F6000159057E0BDF83820DDE9151030F82100D4
:109F7000104400B2ADF83000BDF83A20DDE915100C
:109F800000EB81004088104400B2ADF83200BDF80B
:109F90003000ADF83400BDF832101D9840890844F7
:109FA000BDF83A10401A00B2ADF836002098808E05
:109FB0000A9002460CA81C9B1F9906F0A9FE159852
:109FC00020B3DDE9151000EB8100B0F90220481E36
:109FD000169901EB8000B0F90200824216D00B986E
:109FE000A0B91C980090BDF830101D98C089081ABF
:109FF00000B208902098808E0A90BDF93200099036
:10A0000001460A9B1F9A089807F0A5FE1598401C68
:10A0100000B21590189915988842A3DB1B98E8B3F5
:10A020001C9801902098808EADF800001D98408902
:10A03000BDF83A10401A401C404200B20A90BDF8E8
:10A040003A1016984088084400B20990BDF83810BC
:10A050001698008801441098081A00B208901F9BB7
:10A06000DDE9091206F014FC1C9801902098808EFE
:10A07000ADF800001D984089BDF83A10401A401C08
:10A0800000B20A90BDF83A201398401E169901EBD1
:10A0900080004088104400B2099000E00FE0BDF855
:10A0A00038201398401E31F8200011180F980844EA
:10A0B00000B208901F9BDDE9091206F0E9FB21B010
:10A0C00000BD2DE9F04F85B00446894615461E4671
:10A0D000E88E401E07B24FEA670807F0010AFF2E1C
:10A0E00002D13820405D03E03820405D704300120B
:10A0F00083462088A0EB080000B2ADF80C00A088D1
:10A100004044504400B2ADF810006088ADF80E0035
:10A11000E088ADF81200BDF90C00BDF910108842BE
:10A1200002DABDF90C0001E0BDF91000ADF8040041
:10A13000BDF90C00BDF91010884202DDBDF90C001C
:10A1400001E0BDF91000ADF80800BDF90E00BDF941
:10A150001210884202DABDF90E0001E0BDF91200CA
:10A16000ADF80600BDF90E00BDF91210884202DDFF
:10A17000BDF90E0001E0BDF91200ADF80A00A88E8D
:10A180005B4602464946009001A806F0C1FD05B0B5
:10A19000BDE8F08F30B50B8803804B88438013886F
:10A1A00083805488C480B0F90430B0F900401B1B90
:10A1B000002B05DDB0F90430B0F900401B1B04E0B2
:10A1C000B0F90030B0F904401B1B1BB28381B0F919
:10A1D0000030B0F90440A34201DA012301E04FF05E
:10A1E000FF33C381B0F90630B0F902401B1B002BCE
:10A1F00005DDB0F90630B0F902401B1B04E0B0F9F0
:10A200000240B0F90630E31A1BB20382B0F90240F3
:10A21000B0F906309C4201DA012301E04FF0FF3330
:10A220004382B0F90C40B0F91050AC4202DDB0F9F5
:10A230000C4002E0B0F910406442234604EBD374B2
:10A24000641024B284820023C382B0F90C30B0F9C8
:10A250001040A34201DD012300E0002303760388C0
:10A2600003814488448130BD01480249C864704775
:10A27000A80C0020F80A00200146B1F90800B1F945
:10A280000420904207D1B1F90A20B1F906008242B8
:10A2900001D100207047888AC882B1F91600B1F94F
:10A2A0000C205242904209DD888A0A8A801A00B244
:10A2B00088820889CA89104400B20881B1F9160061
:10A2C000B1F91020904209DA888A8A89104400B2D4
:10A2D000888248894A8A104402B24A810120D9E71B
:10A2E00070B50446B4F9085000BF2046FFF7C4FF1C
:10A2F00008B9002070BDB4F90800A842F5D00120CB
:10A30000F8E770B50446B4F90A5000BF2046FFF7DD
:10A31000B3FF08B9002070BDB4F90A00A842F5D017
:10A320000120F8E708B54F4881684F4814F036FF20
:10A3300000214D4841838183C1820183C1834B4900
:10A340004B4814F02BFF0C21494841838183102195
:10A35000C18201830A21C18040F6BB3004F0B3F909
:10A3600000904348BDF80010418101218181817333
:10A370000146404814F012FF00203E49087040F6A4
:10A38000DD5004F0A0F900903A48BDF8001041807B
:10A3900001464988818000218181FF2101720421C9
:10A3A000C18035480168334841620146334814F0A2
:10A3B000F5FE46225A213248008804F0A0F90090A8
:10A3C0002E48BDF8001041800146498881805F22F7
:10A3D00005212B48008804F092F900902748BDF829
:10A3E000001001840146274814F0D8FE3C225A216F
:10A3F0002348008804F083F900902248BDF800103B
:10A4000041800146498881800021818119491E4887
:10A4100014F0C4FE40F6CC4004F055F900901A4800
:10A42000BDF80010418001464988818017490D48D8
:10A43000C0F834110C480B49C1F82C0114490948E3
:10A44000C0F830110A49C0F838110A49C0F83C1167
:10A450000A49C0F840110B49C0F844110A49C0F834
:10A46000481108BDF80A002034170020C807002052
:10A4700070170020AC17002050050020E8170020BE
:10A480004C0500202418002060180020E40C002057
:10A490004008002008B51149114814F07FFE5A22E7
:10A4A0004B211048008804F02AF900900C48BDF8B0
:10A4B000001041800146498881800A21418340F68D
:10A4C000991004F000F900900548BDF8001081864D
:10A4D0000221C1860449886608BD0000A80C00203E
:10A4E0000C1200204C050020F80A002038B500228C
:10A4F00000BF00230093294B1B6843F40003274C43
:10A50000236023461B6803F40003009300BF00BFD1
:10A51000234B1B6823F00103214C23604FF440338D
:10A520002360022363630023236401EB810303EBB5
:10A53000C1041C4B03EB84035B6A194CE36301EB1E
:10A54000810303EBC104174B03EB8403DC6A01EBCB
:10A55000810303EBC105134B03EB85031B8D44EA19
:10A5600003430F4C6364234698631B6843F0010365
:10A57000236004E0521CB2F5001F00D305E0084B35
:10A580005B6803F00203002BF4D000BF044B9B6810
:10A5900043F00203024CA36038BD00003038024093
:10A5A00000B00240B006002000B58DB034216846EE
:10A5B000F5F762FE3F4840490860002048600021EE
:10A5C0003D488160C16001610921416181611D21B6
:10A5D000C1611321016240F2FD11416240F2333149
:10A5E000816240F22521C16240F2423101630021C3
:10A5F00080F8341080F8351080F83610F6F720FD1A
:10A6000008B1F5F7F4FE002000904FF4F0700190CF
:10A61000002002904FF44870039002200490FF2025
:10A620000590002006904FF4C06007900720089026
:10A63000800709904FF4F0700A904FF448700B9027
:10A6400000208DF8300000218DF831108DF8321087
:10A65000002269461848F6F7C3FC08B1F5F7C7FEB3
:10A66000282000904FF4DC7001904FF4917002901C
:10A670004FF4FF70039002200490FF20059000200B
:10A6800006904FF4C0600790072008900B4809908F
:10A690004FF4C8700A90DC200B9000208DF8300039
:10A6A00000218DF831108DF832100120FEF732FCB8
:10A6B0000DB000BD0068014078060020000010C009
:10A6C00010B5242106480FF092F918F001F8054959
:10A6D0000860002303221E21034817F06BFD10BD04
:10A6E000D40A0020980000209149010870B5054661
:10A6F000686818B1D5E9000100F024F80F480FF0A0
:10A7000081F904460CB900BFFEE704B970BD95F8A5
:10A71000200020F0040085F820002422294620464D
:10A72000F5F791FD606820B1238A19B2D4E90002DF
:10A73000904701200249087000BFE7E7D40A0020D3
:10A740009C0000202DE9F04107460D464FF000081F
:10A7500010480FF02DF9044617E021460D480FF080
:10A760002CF906462068B8420ED16068A84200D095
:10A7700055B9214607480FF002FA20460FF098FF1E
:10A7800001200549087080463446002CE5D140463A
:10A79000BDE8F081D40A00209C000020F8B50446F2
:10A7A000208BB4F91A10884202D14FF4806505E07D
:10A7B000B4F91A008002218BB0FBF1F54FF48060F0
:10A7C0004FF46773642200210090284600F00EFFCA
:10A7D0000746D4E90410401A00FB07F6B6122069B8
:10A7E000064430B2F8BD10B50146088BB1F91A40E5
:10A7F000A04202D14FF4806205E0B1F91A00800254
:10A800000C8B90FBF4F2D1E90440001B00FB02F337
:10A810009B120869034418B210BD0146B1F91A0031
:10A820000A8B904202DB888A00B27047088A00B225
:10A83000FBE730B504460B46981A002801DD981A4C
:10A8400000E0D01A05464FF47A70684390FBF4F1AB
:10A85000B1F5803F01D34FF6FF7101B9491C88B2B1
:10A8600030BD00002DE9F04180460D4629464046A6
:10A8700010F01CFB06460EB900BFFEE716B900201B
:10A88000BDE8F0810421304610F0FDFA04460CB911
:10A8900000BFFEE70CB90020F2E71E48006820B9AF
:10A8A000304610F04CFE1B4908601B48006820B978
:10A8B000304610F087FD184908602D20208040F2B6
:10A8C0003B1060801549304611F0B8F81449304605
:10A8D00010F0D3FF7DB917F069FE07462FB10021B4
:10A8E00030463A6F00F029F904E00E4A0021304664
:10A8F00000F023F90BE0284610F0AEFD074638883B
:10A90000208078886080304610F078FF00BF3046A5
:10A91000B6E70000A0010020A401002055AB01080B
:10A9200029A90108B80800202DE9F74F92B0149822
:10A93000022803D1002015B0BDE8F08F149800283C
:10A940007ED1129810F088FD05460021129800F083
:10A95000C9F88146129810F059FE8246129810F0FC
:10A9600081FD824503DA129810F050FE02E0129841
:10A9700010F078FD044600EBD470401006B2129837
:10A9800010F044FE044600EBD47041101298008A87
:10A99000084407B2129810F065FD044600EBD4702D
:10A9A00041101298408A08440FFA80F8129810F06B
:10A9B000A2FD1190698889B22A8892B21198CDE9D6
:10A9C000011900920390B2B241463846139B05F03C
:10A9D0008DFF392010F8090000F0010000287AD01E
:10A9E000B9F9360000EBD0714C10B5F9000017F042
:10A9F0008DFE311B4843C0130FFA80FA29885A3163
:10AA000008B217F083FE311B4843C0130FFA80FBD6
:10AA1000334902A814F0C2FB02A8B9F83410ADF80B
:10AA20000C10BDF80C00ADF80A0047F61841ADF85F
:10AA30000E100AEB0700001B00B2ADF8000000E0AA
:10AA40004AE00BEB0800001B00B2ADF802000AEB75
:10AA50000700204400B2ADF804000BEB08002044CE
:10AA600000B2ADF8060002AA6846119B139907F0E0
:10AA7000DDF9B5F9020017F049FE311B4843C01358
:10AA80000FFA80FA69885A3108B217F03FFE311B7D
:10AA90004843C0130FFA80FB0AEB0700001B00B20B
:10AAA000ADF800000BEB0800001B00B2ADF802008F
:10AAB0000AEB0700204400B2ADF804000BEB0800DD
:10AAC000204400B2ADF8060002AA6846119B139913
:10AAD00007F0ACF900BF00E000BF01202BE7000049
:10AAE0007C08002070B505460C46002624B928468F
:10AAF00010F028FD064601E0002600BF00BF3046EA
:10AB000070BD2DE9F04107460C461546384610F059
:10AB1000A3FC0646B4F5B47F01DD4FF4B474B5F57B
:10AB2000B47F01DD4FF4B47520B2308028B270805C
:10AB3000384610F09BFDBDE8F08170B506460C4626
:10AB4000154624B92946304610F0C9FF00BF00BFA2
:10AB500070BD00002DE9F04107460C4615462A4617
:10AB6000214638460E4B1B6898470646012E02D0F8
:10AB70003046BDE8F0818CB1062C0FD1294600206B
:10AB800005E051F8202002B903E0421CD0B20728AA
:10AB9000F7DB00BF03A241F8202000BF3046E8E702
:10ABA000A00100206C765F61726300000A68026099
:10ABB0004A68426070470A6802604A6842607047AB
:10ABC0000A6802604A68426070470A6802604A6820
:10ABD000426070470A6802604A68426070470A68CB
:10ABE00002604A68426070470A6802604A684260D0
:10ABF00070470A6802604A68426070470A680260EB
:10AC00004A68426070470146C8884A88801A401CDA
:10AC100000B270470146C8884A88801A401C00B2BA
:10AC200070470146C8884A88801A401C00B27047A5
:10AC30000146C8884A88801A401C00B27047014605
:10AC4000C8884A88801A401C00B270470146C888EC
:10AC50004A88801A401C00B2704710B50146B1F90D
:10AC60000420B1F90030D21A521CB1F90630B1F902
:10AC700002401B1B5B1C02FB03F010BD01468888D1
:10AC80000A88801A401C00B27047014688880A88EA
:10AC9000801A401C00B27047014688880A88801AD2
:10ACA000401C00B27047014688880A88801A401C00
:10ACB00000B27047014688880A88801A401C00B29A
:10ACC0007047014688880A88801A401C00B2704785
:10ACD000014688880A88801A401C00B270470146E5
:10ACE00088880A88801A401C00B27047014688880C
:10ACF0000A88801A401C00B27047014688880A887A
:10AD0000801A401C00B27047014688880A88801A61
:10AD1000401C00B2704730B50346B1F90040B2F9AB
:10AD20000050AC4202DDB1F9004001E0B2F9004050
:10AD30001C80B1F90240B2F90250AC4202DDB1F917
:10AD4000024001E0B2F902405C80B1F90440B2F97E
:10AD50000450AC4202DAB1F9044001E0B2F9044017
:10AD60009C80B1F90640B2F90650AC4202DAB1F962
:10AD7000064001E0B2F90640DC800120B3F9004052
:10AD8000B3F90450AC4205DCB3F90240B3F9065004
:10AD9000AC4200DD002030BD10B502460020B2F903
:10ADA0000030B1F90040A34212DBB2F90230B1F930
:10ADB0000240A3420CDBB2F90430B1F90440A342D3
:10ADC00006DCB2F90630B1F90640A34200DC0120EE
:10ADD00010BD0246B2F90000B1F90430984213DC0C
:10ADE000B2F90400B1F9003098420DDBB2F902006B
:10ADF000B1F90630984207DCB2F90600B1F9023029
:10AE0000984201DB012070470020FCE710B50246A4
:10AE10000020B1F90030B2F90040A34212DBB1F9D1
:10AE20000030B2F90440A3420CDCB1F90230B2F9AF
:10AE30000240A34206DBB1F90230B2F90640A34258
:10AE400000DC012010BD10B5B1F90030B2F90040AE
:10AE5000A34202DAB1F9003001E0B2F90030038018
:10AE6000B1F90230B2F90240A34202DAB1F902307C
:10AE700001E0B2F902304380B1F90430B2F9044084
:10AE8000A34202DDB1F9043001E0B2F9043083805D
:10AE9000B1F90630B2F90640A34202DDB1F906303D
:10AEA00001E0B2F90630C38010BD10B5029C0180EC
:10AEB00042808380C48010BD42880A44521E12B270
:10AEC000C2807047F0B503460C46154600BF98880F
:10AED0001988401A401C00B2064600BFD88859881D
:10AEE000401A401C00B207461C805D80314618465F
:10AEF00000F005F839461846FFF7DEFFF0BD02887E
:10AF00000A44521E12B28280704770B505460C4644
:10AF1000284610F0A1FA06467481284610F0A6FBD8
:10AF200070BD70B50446206810F096FA05464FF0E3
:10AF3000FF306881B5F908100022206800F0AEFAF1
:10AF400070BD00002DE9F04180460E463146404676
:10AF50000FF0ACFF07460FB900BFFEE717B900209E
:10AF6000BDE8F0813948006820B9384610F0E7FAAA
:10AF7000364908603648006820B9384610F022FA91
:10AF800033490860142138460FF07DFF04460CB9A0
:10AF900000BFFEE70CB90020E2E7002060806420DB
:10AFA000A08000202080C820A0810020E080208197
:10AFB000401E60810020A073264820612649384643
:10AFC00010F03CFD2549384610F057FC16BB002117
:10AFD000384610F049FC2122C821384610F030FDD7
:10AFE000B4F900100022384600F058FA17F0DEFAE3
:10AFF000054655B1002138466A6D00F035FA012149
:10B000003846AA6D00F030FA03E01549384610F0D2
:10B0100066FD19E0304610F01FFA0546688860802A
:10B02000A888A0802888208028692061A87B00F05B
:10B030000100A073384610F0E1FBB4F900100022C3
:10B04000384600F02BFA00BF384689E7AC010020F3
:10B05000A80100203009002075B5010865B001087D
:10B06000F40800202DE9F04F8FB080468A469146C3
:10B07000B9F1020F08D14A4651464046C34B1B68FE
:10B0800098470FB0BDE8F08FB9F1000F7ED1404670
:10B0900010F031FA8346404610F04FFB98B1002182
:10B0A000404600F087F905462946684614F076F8D0
:10B0B0000021ADF80C105B466A46514608F11000BD
:10B0C00006F0B4FE05E04A4651464046AF4B1B68C9
:10B0D0009847404610F0C0F90446B4F90010B4F99E
:10B0E0000200814208D1A07B00F0010020B9B4F930
:10B0F0000600401C00287DD00121404600F05AF98E
:10B1000005460DA8D8F810100160D8F81410416059
:10B1100000BFBDF83410688B084400B2ADF83400AD
:10B12000BDF83810A88B081A00B2ADF83800BDF889
:10B130003610E88A084400B2ADF83600BDF83A107F
:10B14000288B081A00B2ADF83A0000BFBDF83800ED
:10B15000BDF83410401A401C00B2064600BFBDF8CE
:10B160003A00BDF83610401A401C00B20746BE42F5
:10B1700073DBB4F90A00401C48B3B4F90620B4F9F3
:10B180000230D21A7243B4F9043000E0DBE0B4F9C3
:10B1900002C0A3EB0C0392FBF3F210B2B4F9082047
:10B1A000B4F90230D21A7243B4F90430B4F902C0CF
:10B1B000A3EB0C0392FBF3F211B20A1AB4F90A30B2
:10B1C0005A4300EB222212B2ADF838200FE0B4F956
:10B1D0000000B4F90210401A7043B4F90410B4F935
:10B1E0000220891A90FBF1F000B2ADF83800BDF8EA
:10B1F000340000E0A6E0BDF838100844401E00B25C
:10B20000ADF83800A07B00F00100002823D0B4F98D
:10B21000020000281FDAB4F9040000281BDDB4F98D
:10B220000410B4F902208A1AB4F902104942714399
:10B2300091FBF2F1BDF83420114408B2BDF9381089
:10B24000814202DDADF8340005E0BDF83810ADF8FC
:10B250003410ADF838006EE0FFE7B4F90A00401C86
:10B2600038B3B4F90620B4F90230D21A7A43B4F9EB
:10B270000430B4F902C0A3EB0C0392FBF3F210B25A
:10B28000B4F90820B4F90230D21A7A43B4F9043080
:10B29000B4F902C0A3EB0C0392FBF3F211B20A1A49
:10B2A000B4F90A305A4300EB222212B2ADF836202C
:10B2B0000FE0B4F90000B4F90210401A7843B4F971
:10B2C0000410B4F90220891A90FBF1F000B2ADF835
:10B2D0003600BDF83A00BDF83610401A401C00B2E6
:10B2E000ADF83600A07B00F0010020B3B4F90200F5
:10B2F000002820DAB4F9040000281CDDB4F9041099
:10B30000B4F902208A1AB4F902104942794391FB38
:10B31000F2F1BDF83A20511A08B2BDF93610814257
:10B3200002DAADF83A0005E0BDF83610ADF83A1093
:10B33000ADF8360000BF5B462A4651460DA806F020
:10B3400075FD00BF20E0B9F1010F1DD1404610F09E
:10B35000F4F9C8B1404610F0CEF80446002140464A
:10B3600000F028F805462946684613F017FF00212B
:10B370008DF80810ADF8121023466A46514608F1C0
:10B38000100006F053FD00BF01207AE6A80100205E
:10B3900070B50446204610F05FF80546B5F9040084
:10B3A00070BD70B50446204610F056F80546B5F954
:10B3B000020070BD2DE9F04105460C4600262846E6
:10B3C00010F04AF8074614B1012C07D104E02846D2
:10B3D00010F0B8F8064603E03E6901E0002600BF21
:10B3E00000BF3046BDE8F08170B50546284610F034
:10B3F00033F80446B4F90A00401C10B1B4F908004F
:10B4000070BDB4F90000FBE72DE9F04107460D4699
:10B410001646384610F020F80446B4F90200A84257
:10B4200005D1B4F90400B04201D1BDE8F081A68095
:10B430006580B4F90000B04206DD2680B4F9001042
:10B440000022384600F02AF8B4F90000A84206DAD3
:10B450002580B4F900100022384600F01FF8384665
:10B4600010F004F900BFE0E72DE9F04106460D4673
:10B47000144630460FF0F0FF074615B1012D0AD1F2
:10B4800004E02146304610F02AFB04E03C613046DF
:10B4900010F0A7F900BF00BFBDE8F0812DE9F04131
:10B4A0008AB007460E46904638460FF0D5FF044650
:10B4B000B4F90000B04202D10AB0BDE8F081B4F99D
:10B4C0000400B04202DAB4F9040000E03046054658
:10B4D000B4F90200A84202DDB4F9020000E02846F7
:10B4E0000546B4F90000A84200D1E5E7B8F1000F25
:10B4F00004D12580384610F0B9F833E0B4F90A00D9
:10B50000401C18B92088E080258102E02089E08075
:10B5100025810197002005904FF480700690124815
:10B52000029012480390124804900020ADF81E00CB
:10B53000A08980B2ADF81C009DF8240020F0010025
:10B540008DF824000020ADF820009DF8240020F0A4
:10B5500002008DF824000020ADF8220001A8FFF7BA
:10B56000C5F800BF00BFA7E70BAF0108E7A70108B8
:10B5700023AF01082DE9F04104460D461646324638
:10B5800029462046164B1B6898470746012F02D0D4
:10B590003846BDE8F081052D0ED101212046FFF788
:10B5A00009FF8046B8F91200B4F93410884202DD70
:10B5B000B8F81200A08611E0062D0FD13146002008
:10B5C00005E051F8202002B903E0421CD0B2072860
:10B5D000F7DB00BF03A241F8202000BF3846D8E7C0
:10B5E000AC0100206C765F62617200002DE9F04FC3
:10B5F00004460D46C4F5806101FB01F0860A06FB96
:10B6000001F04FEA902C04FB04F0870A07FB04F0DA
:10B610004FEA90280CFB05F04FEA902906EB460014
:10B62000604350434FEA105A01EB410078435843BE
:10B630004FEA105B099808FB00F04FEA902E09EBE7
:10B640000A0058447044BDE8F08F00002DE9F0472F
:10B6500080460F463946404603F08CFA06460EB93E
:10B6600000BFFEE716B90020BDE8F087414800683A
:10B6700020B930460FF063FF3E4908603E4800683D
:10B6800020B930460FF09EFE3B4908601C21304631
:10B690000FF0F9FB04460CB900BFFEE70CB900201F
:10B6A000E2E7207E20F007002076344860603449CD
:10B6B000A1603449E1603449216134496161207EEF
:10B6C00020F0080020763249304610F0B7F93149B1
:10B6D000304610F0D2F88FBBB8F1000F07D04FF012
:10B6E00001094946304604F01CF800BF00BF0121A3
:10B6F000304610F0B9F816F059FF0546CDB10021DB
:10B7000030462A6900F08FF8012130466A6900F05E
:10B710008AF802213046AA6900F085F803213046F4
:10B72000EA6900F080F8042130462A6A00F07BF8CC
:10B7300003E03046616810F0D2F918E0FFE73846C0
:10B740000FF08AFE0546287E217E60F302012176F5
:10B75000287EC108207E61F3C30020761422291DB3
:10B76000201DF4F770FD304610F048F800BF304659
:10B770007AE70000B0010020B40100206C0900202D
:10B78000A8090020E4090020200A00205C0A00200B
:10B790008DB8010899B7010870B505460E461446E4
:10B7A000022C01D1002070BD34B922463146284612
:10B7B000064B1B68984707E0012C05D1224631460D
:10B7C0002846024B1B6898470120ECE7B401002093
:10B7D00070B5044620460FF03FFE0546287E00F077
:10B7E000070070BD70B5044620460FF035FE0546D3
:10B7F000287EC0F3C00070BD70B506460C463046CA
:10B800000FF02AFE0546287E00F00700A04209D06E
:10B81000287E64F302002876281D50F82410304654
:10B8200010F05DF970BD2DE9F04107460E46154652
:10B8300038460FF011FE0446052E0ED2DFE806F062
:10B84000030507090B00656007E0A56005E0E560FA
:10B8500003E0256101E0656100BF00BF207E00F0CC
:10B860000702201D50F82210384610F038F9BDE8C4
:10B87000F08170B506460C4630460FF0EDFD0546EA
:10B88000287E64F3C300287670BD00002DE9F84FD0
:10B8900082460D469046424629465046824B1B68DA
:10B8A00098470746012F02D03846BDE8F88F50462A
:10B8B0000FF0D2FD04465046FFF794FF0646072DD1
:10B8C00012D1207E00F0070020B901215046FFF779
:10B8D00093FFE7E0207E00F007000228F9D1032162
:10B8E0005046FFF789FFDDE0092D13D1207E00F0DF
:10B8F0000700012804D100215046FFF77DFFD1E069
:10B90000207E00F007000328E3D102215046FFF714
:10B9100073FFC7E0082D18D140460BF083FA0028CA
:10B92000D7D0207E00F00700012804D10021504626
:10B93000FFF762FFB6E0207E00F007000328C8D1C1
:10B9400002215046FFF758FFACE00A2D5CD140467B
:10B950000BF068FAF0BB00200090207E00F007009A
:10B96000012807D136B900215046FFF745FF0020D6
:10B97000009027E0207E00F00700032807D136B9A9
:10B9800002215046FFF738FF012000901AE0207E88
:10B9900000F00700012808D1012E06D102215046EF
:10B9A000FFF72AFF012000900CE0207E00F0070046
:10B9B000032807D1012E05D100215046FFF71CFFB7
:10B9C000002000905EB16A460E21504609F01CF935
:10B9D000074600E004E0012F01D0384665E761E04A
:10B9E000207E00F00700012804D100215046FFF717
:10B9F00003FF57E0207E00F00700032852D1022108
:10BA00005046FFF7F9FE4DE0112D38D198F800901F
:10BA1000B9F1130F02D0B9F1110F14D15046FFF74D
:10BA2000E1FE58B302215046FFF7E6FE01200090E8
:10BA30006A460E21504609F0E7F80746012F01D06B
:10BA4000384632E71AE0B9F1140F02D0B9F1120FFB
:10BA500014D15046FFF7C6FE80B100215046FFF7D3
:10BA6000CBFE002000906A460E21504609F0CCF82B
:10BA70000746012F01D0384617E700BF12E08DB10D
:10BA8000062D0FD14146002005E051F8202002B9D3
:10BA900003E0421CD0B20728F7DB00BF03A241F845
:10BAA000202000BF384600E7B00100206C765F62BE
:10BAB000746E000070B5044620460FF0CDFC0546BC
:10BAC000287E00F0070030B1012809D002280CD0F0
:10BAD000032814D10EE002212046FFF78DFE0FE06F
:10BAE00003212046FFF788FE0AE000212046FFF7E9
:10BAF00083FE05E001212046FFF77EFE00E000BF47
:10BB000000BF70BD2DE9F04107460C461646384689
:10BB10000FF0A2FC0546288CA04201DCBDE8F081B4
:10BB2000A86830F81400B043A96821F81400214631
:10BB30003846FCF77CFF00BFF0E72DE9F0410646F0
:10BB40000D4630460FF088FC0746002406E02A46E2
:10BB500021463046FFF7D6FF601C84B2388CA042E5
:10BB6000F5DCBDE8F08100002DE9F04780460E4687
:10BB7000314640460FF09AF907460FB900BFFEE77D
:10BB800017B90020BDE8F0874948006820B9384659
:10BB90000FF0D5FC46490860282138460FF073F9AC
:10BBA00004460CB900BFFEE70CB90020EAE700200C
:10BBB00020844FF6FF706084A08400206060A06045
:10BBC000206094F8260020F0010084F8260094F804
:10BBD000260020F0020084F826003648E06036494E
:10BBE0002161364961613649A1613649E1613648D2
:10BBF000006820B938460FF0E5FB33490860334947
:10BC000038460FF01BFF324938460FF036FE96BB20
:10BC1000C8224FF4967138460FF012FF2D4938466E
:10BC200000F0D6FA16F0C2FC05462DB300213846C6
:10BC3000D5F8C42000F0F8FBC8204259012138464D
:10BC400000F0F2FB02213846D5F8CC2000F0ECFBE6
:10BC500003213846D5F8D02000F0E6FB0421384611
:10BC6000D5F8D42000F0E0FB05213846D5F8D820DF
:10BC700000F0DAFB04E004E0174938460FF02FFF2C
:10BC800013E030460FF0E8FB0546142205F10C01E5
:10BC900004F10C00F4F7D7FA304600F003FA8146BD
:10BCA0004946384600F094FA00BF38466AE700007B
:10BCB000D80100206C090020A8090020E409002018
:10BCC000200A00205C0A0020D40100208DC4010855
:10BCD000DDBC0108B8010020F40800202DE9F74F71
:10BCE000A0B081469246BAF1020F08D152464846AA
:10BCF000BB4B21991B68984723B0BDE8F08FBAF180
:10BD0000000F79D152464846B54B21991B68984798
:10BD100048460FF0A1FB044648460FF013FC83464B
:10BD200048460FF0E8FB1F901DA948460FF041FB65
:10BD3000002500260020099094F8260000F001005C
:10BD400008B101200990002542E101E0701C86B293
:10BD5000216851F82600A3A1F4F7A0FA0028F5D035
:10BD6000A16831F81500F9F7A2F900B12CE160687B
:10BD700000EBC5011BA8FEF728FFBDF86C00BDF85D
:10BD80007410084400B2ADF86C00BDF86E00BDF848
:10BD90007610084400B2ADF86E00BDF87000BDF832
:10BDA0007410084400B2ADF87000BDF87200BDF820
:10BDB0007610084400B2ADF872001BA8FEF781FFB0
:10BDC0001A9000BFBDF87200BDF86E10401A401CFA
:10BDD00000B21990A16831F81500F9F75FF98046B3
:10BDE000A16831F81500F9F766F930B10521484628
:10BDF00000F060F9074635E0EFE0608CA84208D01B
:10BE0000B8F1000F05D10121484600F053F907466B
:10BE100028E0608CA84208D1B8F1000F05D10221BA
:10BE2000484600F047F907461CE0608CA84208D05D
:10BE3000B8F1010F05D10321484600F03BF9074650
:10BE400010E0608CA84208D1B8F1010F05D104219F
:10BE5000484600F02FF9074604E00121484600F06B
:10BE600029F9074639460AA813F098F90AA8807BF1
:10BE700000F01000F0B3B9F91210BBF91600084435
:10BE8000BDF96E10884205D10AA8807B20F002011E
:10BE90000AA88173B9F91610BBF91800081ABDF980
:10BEA0007210884205D10AA8807B20F001010AA8FF
:10BEB000817336B90AA8807B20F004010AA8817337
:10BEC0000DE0711E226852F8210046A1F4F7E6F950
:10BED00028B90AA8807B20F004010AA88173701C8D
:10BEE000216851F82000007848B1711C226852F88E
:10BEF000210000E009E03BA1F4F7D0F928B90AA835
:10BF0000807B20F008010AA881730AAA1BA81F9B46
:10BF1000219905F08BFF387800F0010000B15F46F1
:10BF2000786A08901DA8FEF7CCFE0690B7F92A2083
:10BF300006990998CDE900210290206850F8261052
:10BF4000B7F9283007A8089A16F0CCFCBDF91C20D8
:10BF50001A99881A00EBD071BDF86C2002EB6101D0
:10BF600009B2ADF86C10BDF91E201999881A00EBC2
:10BF7000D071BDF86E2002EB610109B2ADF86E1010
:10BF8000BDF86C00BDF81C10084400B2ADF870009C
:10BF9000BDF86E00BDF81E10084400B2ADF8720086
:10BFA00000204FF6FF71CDE90201CDE90410099898
:10BFB000216851F82610CDE900103A461BA81F9BB6
:10BFC000219904F081FF00BF681C85B2701C86B205
:10BFD000208CA8423FF7B9AE00BF01208CE60000DC
:10BFE000D40100200A00000070B5044620460FF07E
:10BFF00033FA0546A88C70BD70B5054628460FF08B
:10C000002BFA0446A08C4FF6FF71884204D0A18C15
:10C01000284600F01BF870BD0020FCE72DE9F04138
:10C0200007460C46154638460FF016FA0646308C81
:10C03000A04202DC0020BDE8F081B06830F81400B6
:10C04000284008B10120F6E70020F4E72DE9F0418F
:10C0500080460F4640460FF0FFF90546288CB8424F
:10C0600002DA0020BDE8F081002400260CE0701CFC
:10C0700086B2601C84B2296851F8240008A1F4F744
:10C080000DF908B9601C84B2BE42F0D1288CB042D0
:10C0900001D10020E6E7286850F82400E2E700001C
:10C0A0000A00000070B5044620460FF0D5F9054699
:10C0B000286870BD2DE9F04106460D460027304640
:10C0C0000FF0CAF90446062D13D2DFE805F0030885
:10C0D0000A0C0E1030460FF035FA07460BE0E76801
:10C0E00009E0276907E0676905E0A76903E0E769F8
:10C0F00001E0002700BF00BF3846BDE8F0812DE910
:10C10000F04107460C46164638460FF0A5F905469D
:10C11000288CA04201DCBDE8F081A86830F814004A
:10C120003043A96821F8140021463846FCF77FFC0B
:10C1300000BFF0E72DE9F04106460D4630460FF00E
:10C140008BF90746002406E02A4621463046FFF7D1
:10C15000D6FF601C84B2388CA042F5DCBDE8F081CB
:10C160002DE9F04107460C46164638460FF074F9A3
:10C170000546288CA04201DCBDE8F081A86830F8B3
:10C18000140020F00700A96821F81400A86830F80E
:10C19000140006F007010843A96821F81400384686
:10C1A000296800F015F800BFE6E770B505460E46B1
:10C1B00028460FF051F90446218C4A003146A06808
:10C1C000F4F741F82846216800F002F870BD00003D
:10C1D0002DE9F34F8DB08846B8F1000F02D10FB0B2
:10C1E000BDE8F08F0D980FF037F9064641463068EC
:10C1F00017F0DAF918B941460D98F8F727FBC6F899
:10C20000008000210D98FFF755FF04460D980FF0B0
:10C21000FDF90146608B091AA08B081A00B20C9038
:10C220000D980FF01FF9E18A411A208B081A00B20D
:10C230000B90B4F9169001200A90002009900EE0AE
:10C24000099958F821006EA1F4F728F818B90A984E
:10C25000401CC0B20A900998401CC0B209900999CC
:10C2600058F82100F4F713F80028E9D10A98411E84
:10C27000B4F91E200B9801FB12000FFA80FB0A98FC
:10C280009BFBF0F00FFA80FBABF101000FFA80FB93
:10C29000002006900027C246ABE000200890002551
:10C2A0000BE07A19B16831F81200FAF7C8FD089965
:10C2B000084480B20890681C85B25AF8250050A145
:10C2C000F3F7ECFF28B15AF82500F3F7E0FF002858
:10C2D000E7D15AF82500007838B90B98A0EB09018E
:10C2E000208B0844401E0FFA80FB002D6FD0691E82
:10C2F000B4F91E200C9801FB120000B20590B4F9AD
:10C300001A0003900020079004905CE0B16831F8B7
:10C310001700FAF794FD05994843089990FBF1F04E
:10C3200000B202900298401E00B202900599079850
:10C330004843089990FBF1F1B4F91E20049800FBE2
:10C340000211608B084400B20390E08BC8B9B4F9C5
:10C350001A100398814214D009EB0B0000B2009030
:10C360007A1ED6F804C00CEBC202B2F904100CEB32
:10C37000C700DDE902C2624413B24A46FEF795FDEA
:10C380000EE009EB0B0000B20090716801EBC700F2
:10C39000DDE9022111440BB24A460399FEF785FDFF
:10C3A000B16831F81700FAF74AFD0799084480B2DE
:10C3B00007900698401C80B20690781C87B20498BB
:10C3C000401C80B204900498A8429FDB00BFE08B21
:10C3D000584448440FFA80F95AF82500F3F757FFFC
:10C3E00000B907E0681C0AEB800A0698401C80B27E
:10C3F000069052E700BF0D980FF038F900BFEEE647
:10C400000A00000070B506460C4630460FF024F8CE
:10C41000054695F8260064F3410085F826000021C2
:10C42000304617F077F870BD2DE9F04107460E460B
:10C43000144638460FF010F80546062E22D2DFE8E3
:10C4400006F003080D12171C214638460FF047FB73
:10C4500018E0EC6038460FF009F913E02C6138461B
:10C460000FF004F90EE06C6138460FF0FFF809E0B8
:10C47000AC6138460FF0FAF804E0EC6138460FF092
:10C48000F5F800BF00BFBDE8F08100002DE9FC5FBA
:10C4900081460D4617463A4629464846F84B1B68E2
:10C4A00098478046B8F1010F02D04046BDE8FC9F96
:10C4B00048460EF0D1FF044635B960680EF0F8F832
:10C4C000A0680EF0F5F834E2042D01D0022D04D15D
:10C4D00048462168FFF77CFE2BE2072D44D10AF085
:10C4E00057FC824650460AF07DFC012804D0504695
:10C4F0000AF078FC032813D101A938460AF062FC3F
:10C5000001A94846FAF752FC0646618C4846FCF7FA
:10C510008EFA6684A684618C4846FCF788FA00BFD0
:10C52000A08C4FF6FF7188421DD0A28CA16831F813
:10C530001200F8F7B8FDB0B9A28CA16831F812006A
:10C54000F8F7B9FD78B9A28CA16831F81200F8F7B4
:10C55000AEFD40B9A08C00906A460E21484608F016
:10C5600053FB804600BFE4E1082D2ED101A93846D7
:10C570000AF028FC01A94846FAF718FC0646608C28
:10C58000B0421FD038460AF01EFD608C4FF6FF7196
:10C59000884203D0618C4846FCF749FA4FF6FF7099
:10C5A00086420FD0A08C00906A460E21484608F0C3
:10C5B0002BFB8046B8F1010F03D131464846FCF70A
:10C5C00036FA00BF6684A684B3E10A2D5FD1608C81
:10C5D0004FF6FF718842C6D0628CA16831F8120014
:10C5E000F8F774FD20B3628CA16831F81200F8F7F7
:10C5F00055FD50B1618CA06830F8110020F080002A
:10C60000628CA16821F8120009E0618CA06830F802
:10C61000110040F08000628CA16821F8120094F8AB
:10C620002600C0F3400018B1618C484616F072FF36
:10C63000618C4846FCF7FBF948460EF010FF0646B1
:10C64000304609F049F9484502D04FF6FF70608442
:10C65000A28CA16831F81200F8F725FDB0B1A28CC8
:10C66000A16831F81200F8F726FD78B9A28CA1680C
:10C6700031F81200F8F71BFD40B9A08C00906A4613
:10C680000E21484608F0C0FA804600BF51E10C2D4B
:10C6900025D1A08C4FF6FF71884295D0A28CA1685D
:10C6A00031F81200F8F70EFD00288DD1A28CA16898
:10C6B00031F81200F8F7FFFC002885D1A28CA168A0
:10C6C00031F81200F8F7F3FC0028DFD1A08C0090BD
:10C6D0006A460E21484608F097FA804629E1092D5E
:10C6E00001D0102D07D14FF6FF706084A08448461A
:10C6F0000EF0BCFF1DE10F2D2CD10AF049FB834643
:10C7000058460AF06FFB0646012E0BD16946584683
:10C710000AF058FB69464846FAF748FB8246A4F8F7
:10C7200022A011E0042E0DD148460EF098FE82465C
:10C7300009F0C9F810B10020608405E04FF6FF70E1
:10C74000608401E000206084608CA08448460EF084
:10C750008DFFEEE0112D71D197F800A0BAF1130F03
:10C7600018D1608C4FF6FF71884202D1002060849E
:10C7700002E0608C401C6084618C208C401E8142F1
:10C7800002DB208C401E6084608CA08448460EF042
:10C790006DFFB5E0BAF1140F12D1608C4FF6FF7146
:10C7A000884201D100206084608C002802DD608C0A
:10C7B000401E6084608CA08448460EF057FF9FE0C6
:10C7C000BAF1120F4CD100214846FFF773FC0090DC
:10C7D000608C4FF6FF71884202D10020608439E0FE
:10C7E000628C616801EBC200FEF76BFA628C6168D3
:10C7F00031F8321001EB60000FFA80FB668C20E00C
:10C80000606800EBC600B0F90200628C616801EB61
:10C81000C201B1F90210884211DD606830F93600BA
:10C8200058450CDC606800EBC600B0F904100098B5
:10C83000B0F91A000844584501DB05E061E0701CBE
:10C8400086B2208CB042DBDC00BF208CB04200DD21
:10C85000668400BF608CA08448460EF007FF4FE05E
:10C86000BAF1110F4CD100214846FFF723FC00908C
:10C87000608C4FF6FF71884204D10020608439E05B
:10C88000D8010020628C616801EBC200FEF719FA42
:10C89000628C616831F8321001EB60000FFA80FBA6
:10C8A000608C06B21FE0606800EBC600B0F90200C1
:10C8B000628C616801EBC201B1F90210884210DAA2
:10C8C000606830F936100098B0F91A00081A584517
:10C8D00007DC606800EBC600B0F90400584500DBD7
:10C8E00003E0701E06B2002EDDDA00BF002E00DB72
:10C8F000668400BF608CA08448460EF0B7FE00BF7F
:10C9000017E0122D03D138460121017011E0062DE8
:10C910000FD13946002005E051F8202002B903E08C
:10C92000421CD0B20728F7DB00BF03A241F8202049
:10C9300000BF4046BAE500006C765F62746E6D0021
:10C940002DE9F05F054688461446022C07D12246A1
:10C95000414628461B4B1B689847BDE8F09F3CBBEF
:10C9600028460EF0EFFD064628460EF0D8FD074695
:10C9700038460EF0E7FD814638460EF070FD8246DF
:10C9800099F8080060B9504608F0A6FFB84207D1F0
:10C990003146504608F0B4FF8346C5F828B000BFC2
:10C9A000224641462846074B1B689847AE6207E07F
:10C9B000012C05D1224641462846024B1B68984768
:10C9C0000120CAE7340200202DE9F04180460E46DE
:10C9D000314640460EF06AFA07460FB900BFFEE73F
:10C9E00017B90020BDE8F081382138460EF04BFA27
:10C9F00004460CB900BFFEE70CB90020F2E7684816
:10CA0000006820B938460EF09AFD6549086065480F
:10CA1000006820B938460EF0D5FC6249086040F243
:10CA2000E27020800120A070E07040F2E270A080EF
:10CA30000121A171E1710020E08100212174617464
:10CA4000A06020736061A0615748E0615748206290
:10CA50005548A0625648E0625348206353486063DB
:10CA600054486062544938460EF0E8FF534938464E
:10CA70000EF003FF002E67D1C822114638460EF093
:10CA8000DFFF4C4938460FF02AF815F08FFD0546B8
:10CA900085B300213846D5F88C2000F00EF990209F
:10CAA00042590121384600F008F9942042590221E8
:10CAB000384600F002F9982042590321384600F028
:10CAC000FCF8A42042590621384600F0F6F8A820C8
:10CAD00042590721384600F0F0F89C2042590421C1
:10CAE000384600F0EAF8A02042590521384600F007
:10CAF000E4F828E0FFE72F4A0021384600F0DDF88F
:10CB000001213846E26900F0D8F802213846226A4D
:10CB100000F0D3F803213846626A00F0CEF806210F
:10CB20003846226B00F0C9F807213846626B00F0E6
:10CB3000C4F804213846A26A00F0BFF8052138463F
:10CB4000E26A00F0BAF829E030460EF085FC0546AE
:10CB500028882080A878A070E878E070A888A08055
:10CB6000A979A171E979E171A868A060287B207397
:10CB700068696061A869A061E869E061286A20626B
:10CB8000A86AA062E86AE062286B2063686B606351
:10CB9000686A606238460EF031FE00BF384621E711
:10CBA000DC010020E0010020B8080020300900204E
:10CBB0005C0A0020F408002031CD0108C1CB010837
:10CBC0002DE9F04105460E461446022C07D12246B7
:10CBD00031462846124B1B689847BDE8F081E4B9FE
:10CBE00028460EF088FC07460021284600F01AF877
:10CBF00080463B464246314605F1100005F016F9E5
:10CC000031462846F9F712FE31462846F9F7F2FB7D
:10CC100031462846F9F752FC00E000BF0120DCE76E
:10CC2000E00100202DE9F04106460D460027304680
:10CC30000EF012FC0446082D18D2DFE805F00409B6
:10CC40000B0D0F11131530460EF07CFC07460FE05C
:10CC5000E7690DE0276A0BE0676A09E0A76A07E069
:10CC6000E76A05E0276B03E0676B01E0002700BF80
:10CC700000BF3846BDE8F0812DE9F04107460C467B
:10CC8000154638460EF0E8FB0646B4603573384664
:10CC90000EF0ECFCBDE8F08170B506460C4630465F
:10CCA0000EF0DAFB05462088A880A178A971E1780A
:10CCB000E97130460EF0DAFC70BD2DE9F04107460F
:10CCC0000E46144638460EF0C7FB0546082E18D20D
:10CCD000DFE806F0040B0D090F1115132146384645
:10CCE0000EF0FDFE0DE06C620BE0EC6109E02C62E1
:10CCF00007E0AC6205E0EC6203E06C6301E02C63EA
:10CD000000BF00BF38460EF0B1FCBDE8F08170B541
:10CD100006460C4630460EF09FFB054620882880CC
:10CD2000A078A870E078E87030460EF09FFC70BDE7
:10CD30002DE9FE4381460D4617463A4629464846A8
:10CD4000804B1B6898478046B8F1010F02D04046DF
:10CD5000BDE8FE83002D61D0082D60D148460EF05D
:10CD60007BFB044609F1100101A8FDF733FF48469B
:10CD7000FAF7C0F9BDF80610084400B2ADF80A0091
:10CD80000AF006F80646694630460AF01BF869467E
:10CD900001A8FEF73BF848B300BFBDF80810BDF886
:10CDA0000420891A491C09B201EBD171BDF9042094
:10CDB00002EB6101BDF90020914209DD94F90D00FB
:10CDC000401C10B148460EF051FCFF20607307E094
:10CDD000607B012802D048460EF048FC01206073B9
:10CDE0000020E08100212174617417E06946484603
:10CDF000F8F786F938B1607B10B148460EF036FC82
:10CE0000002060730AE0607B10B148460EF02EFCF3
:10CE100000206073E0810021217461748FE0092D8E
:10CE200009D148460EF018FB0446002060734846BE
:10CE30000EF01CFC83E00A2D3CD148460EF00CFBA2
:10CE4000044694F90D0000280EDA94F90600012832
:10CE500005DC0C21A171A088401EA08024E0A079EF
:10CE6000401E41B2A1711FE094F90D0000280EDDB3
:10CE700094F906000C2805DB0121A171A088401C53
:10CE8000A08011E0A079401C41B2A1710CE0E089C2
:10CE900050B100220E21484607F0B6FE8046B8F198
:10CEA000010F01D0404653E70020607348460EF062
:10CEB000DDFB44E0112D30D13E7848460EF0CCFA2F
:10CEC0000446132E01D0112E11D194F906000C281E
:10CED00005DB0121A171A088401CA08003E0A0799E
:10CEE000401C41B2A17148460EF0C0FB14E0142E64
:10CEF00001D0122E10D194F90600012805DC0C2176
:10CF0000A171A088401EA08003E0A079401E41B21C
:10CF1000A17148460EF0AAFB11E0062D0FD139464B
:10CF2000002005E051F8202002B903E0421CD0B2F5
:10CF30000728F7DB00BF04A241F8202000BF4046CD
:10CF400006E70000DC0100206C765F63616C656EB3
:10CF5000646172002DE9F84381468846414648469F
:10CF6000FEF774FB05460DB900BFFEE715B90020BA
:10CF7000BDE8F8835348006820B928460EF0DFFA70
:10CF8000504908605048006820B928460EF01AFA47
:10CF90004D490860242128460DF075FF04460CB960
:10CFA00000BFFEE70CB90020E2E70020E06120624C
:10CFB000464928460EF042FD454928460EF05DFCE4
:10CFC000B8F1000F66D100212846FEF73FFBE06173
:10CFD0004048006820B9E0690EF0F4F93D49086066
:10CFE0000021E0690EF040FC002128460AF03EFBDB
:10CFF000206239A1284600F0FCF806273946284669
:10D0000002F08FFB00BF012700BF3B463A4639467E
:10D010002846009702F049FB00BF00BF01212846C7
:10D02000FEF727FC102128460EF002FD15F0BEFA8F
:10D03000064626B300212846D6F8AC2000F08EF82C
:10D04000B02082590121284600F088F802212846A4
:10D05000D6F8B42000F082F803212846D6F8B8208C
:10D0600000F07CF804212846D6F8BC2000F076F8C1
:10D0700005212846D6F8C02000F070F809E0194ACA
:10D080000021284600F06AF8174A0121284600F0DE
:10D0900065F811E040460EF0DFF906462846F169D2
:10D0A000FEF7D4FAE0612846316A0AF0DFFA20621E
:10D0B00028460EF0A3FB00BF0C49E0690EF0DDFB33
:10D0C000284655E738020020300200200DD2010822
:10D0D000F1D0010834020020436865636B20626F61
:10D0E00078000000C8070020F408002041C90108AA
:10D0F0002DE9F0470746884614464FF00109022CF7
:10D1000007D1224641463846134B1B689847814653
:10D110001EE00CB1012C14D138460EF09DF90546E5
:10D12000E8690EF099F90646287E317E60F3020127
:10D130003176224641463846074B1B689847814660
:10D1400006E0224641463846034B1B689847814615
:10D150004846BDE8F0870000300200202DE9F0418C
:10D1600006460D46174630460EF076F90446062D63
:10D170003CD2DFE805F0031D23292F353A46002174
:10D180003046FEF750FB3A4601213046FEF74BFB96
:10D190003A4602213046FEF746FB3A460321304626
:10D1A000FEF741FB3A4604213046FEF73CFB1DE00A
:10D1B0003A460021E069FEF736FB17E03A460121C6
:10D1C000E069FEF730FB11E03A460221E069FEF724
:10D1D0002AFB0BE03A460321E069FEF724FB05E059
:10D1E0003A460421E069FEF71EFB00BF00BFBDE820
:10D1F000F08170B504460D4620460EF02DF9064626
:10D200002946306A0BF0A1F970BD00002DE9F05FEE
:10D2100081460C4617463A46214648462F4B1B6826
:10D2200098478046B8F1010F02D04046BDE8F09F14
:10D2300048460EF011F90546042C18D1D5F820A067
:10D2400050460EF07FF90646706A017A8A46706A87
:10D25000017A8B465246E8690EF0F2FB4846FEF72B
:10D26000B7FA82465146E869FEF7C6FA34E0072C61
:10D2700003D00A2C01D0092C08D14846FEF7A8FAA1
:10D2800006463146E869FEF7B7FA25E0112C11D1C0
:10D290003E78132E05D0122E03D0142E01D0112E5D
:10D2A00007D14846FEF794FA82465146E869FEF7F0
:10D2B000A3FA11E0062C0FD13946002005E051F801
:10D2C000202002B903E0421CD0B20728F7DB00BFE0
:10D2D00003A241F8202000BF4046A7E73802002003
:10D2E0006C765F63620000002DE9F3478146484693
:10D2F0000EF0B2F8054628460CF084FB04460CB943
:10D3000000BFFEE714B90020BDE8FC87DFF86080AD
:10D310000CB90020F8E7BDF80400A080698A480035
:10D320000DF0A0F92060206808B900BFFEE7206872
:10D3300040B9214628460CF022FC20460DF0B8F9F1
:10D340000020E1E70020E0802768002604E0A7F83D
:10D350000080BF1C701C86B2688AB042F7DC2E20A9
:10D36000405D401CC1B22E2041552046CCE7000054
:10D37000E883FFFF2DE9F04180460E4631464046E6
:10D380000DF094FD07460FB900BFFEE717B9002066
:10D39000BDE8F081342138460DF075FD04460CB926
:10D3A00000BFFEE70CB90020F2E7082120460CF090
:10D3B0001EFB00212E2001550020A0816420E08169
:10D3C00003202074052060740A20608201202075EB
:10D3D000002084F82A00FF212F2001557F213020D2
:10D3E00001550220A0850020208520626062A06196
:10D3F000E061FF212620015527200155A177E17723
:10D400002948006820B938460DF0DCFF264908603D
:10D410002648006820B938460EF091F82349086084
:10D42000234938460EF00AFB224938460EF025FA09
:10D43000B6B9C8224FF4967138460EF001FB15F0CC
:10D44000B5F8054635B100213846D5F8882001F0F9
:10D4500094F804E0184A0021384601F08EF820E0E4
:10D4600030460DF0F9FF0546287D2075A889A0817A
:10D47000E889E081287C2074687C6074688A608216
:10D480002F20415D0155288D2085D5E90801C4E98B
:10D490000801D5E90601C4E9060138460EF0AEF9E7
:10D4A00000BF384674E700003C0200204002002024
:10D4B000B1E50108BDD40108F40800202DE9FF47BB
:10D4C00006460F461546022D08D12A4639463046F3
:10D4D0002D4B1B68984704B0BDE8F087002D50D154
:10D4E00030460EF008F8814630460EF02BF88246A2
:10D4F0004B465246394606F1100004F097FC304680
:10D500000DF0AAFF04463946304600F0E3F902A9BF
:10D5100030460DF04EFF02AA39466846FDF7FBFB88
:10D520008046B8F1000F27D0207D00F0010018B12F
:10D530006946304600F062FA207D00F0020018B122
:10D540006946304600F0F6F8207D00F0040018B17E
:10D550006946304600F006FB207D00F0080018B157
:10D560006946304600F0BEFB207D00F0100018B187
:10D570006946304600F00AF83946304600F0CEF8E9
:10D5800000BF0120A7E700003C0200202DE9F34F77
:10D5900099B0064630460DF05FFF044630460EF067
:10D5A00035F8169030460DF05DFF8046B6F9100054
:10D5B0001590B6F91200149030460DF09CFF1290B1
:10D5C000544903A811F0EAFD20460CF00BFA054679
:10D5D00099E094F82A0000F0010008B9E88800E01A
:10D5E00000200FFA80FBA888ADF80E002F20015D07
:10D5F0008DF81410159800B2ADF85C00CDF84CB061
:10D600002868DDF84CB030F91B00B4F90C10401A52
:10D6100000FB08F9B4F90E00B4F90C10401A99FB9C
:10D62000F0F9A8EB09011498084400B2ADF85E00C7
:10D63000012760E0BDF85C00ADF86000BDF85E0059
:10D64000ADF862000BEB0700618A90FBF1F201FB81
:10D6500012000FFA80FA16987843618A491E90FBEF
:10D66000F1F11598084400B2ADF85C00286830F973
:10D670001A00B4F90C10401A00FB08F9B4F90E00B6
:10D68000B4F90C10401A99FBF0F9A8EB09011498B1
:10D69000084400B2ADF85E002968139831F9100013
:10D6A0001D49884223D0286830F91A0088421ED0CC
:10D6B0001898009017980190BDF86000ADF8080028
:10D6C000F18AADF80A1003AA6846129B1A9907F06E
:10D6D000A8F9BDF85C00ADF80800F08AADF80200CA
:10D6E00003AA6846129B1A9907F09BF900BFCDF870
:10D6F0004CA0781C87B2608AB8429BDC2946204641
:10D700000CF066F90546002D7FF463AF1BB0BDE851
:10D71000F08F00007C080020E883FFFF70B504460E
:10D720000D462946204600F0D5FC2946204600F04B
:10D730009DFB70BD2DE9F04F9DB0064689463046F1
:10D740000DF08AFE044630460DF060FF189030461A
:10D750000DF088FE17902E20005D401C618A484322
:10D76000189991FBF0F00FFA80F8404608EBD07161
:10D7700049100691554907A811F010FD0021ADF898
:10D780002810ADF822102F20015D07A80172F08A41
:10D79000ADF87200002792E018987843618A90FBF8
:10D7A000F1F00FFA80FB318A0698084458440FFACA
:10D7B00080FB20460CF016F905467BE094F82A0021
:10D7C00000F0010008B9E88800E0002000B20490F1
:10D7D000ADF86CB0BDF86C00404400B2ADF870001C
:10D7E0000BEB08000FFA80FBBDF97000B9F90010CF
:10D7F000884200DA59E0BDF96C00B9F9041088429A
:10D8000000DD59E0A888ADF81E000020059030200A
:10D81000025DA88801460190059801F0F1F8029098
:10D8200007A8BDF80810ADF8201004983844618AA4
:10D8300090FBF1F201FB120000B2039029680398FB
:10D8400031F91000B4F90C10401A1799484316909A
:10D85000B4F90E00B4F90C10411A169890FBF1F0CF
:10D860001690DDE91610411A708A084400B2ADF82E
:10D870006E001BAA494619A8FDF74DFA8246BAF177
:10D88000000F11D02968039831F91000104988421F
:10D890000AD030460DF02FFE034607AA19A90290C0
:10D8A00006F1100004F0C2FA00BF294620460CF031
:10D8B0008FF80546002D81D100BF781C87B2608AA1
:10D8C000B8423FF769AF1DB0BDE8F08F7C0800207B
:10D8D000E883FFFF2DE9F34F87B0834658460DF0EC
:10D8E000BBFD044658460DF02DFE064658460DF089
:10D8F00002FE069058460DF089FE039058460DF042
:10D90000B1FD0290BBF91090BBF912A0207CB8B316
:10D91000B08918B14FF00108277C04E04FF00008EF
:10D92000207C401CC7B20FFA89F0ADF814000398B0
:10D93000484400B2ADF8100045461FE0B6F9361075
:10D940000298401A6843217C491C90FBF1F000B218
:10D95000ADF81600BDF81600504400B2ADF8160040
:10D96000BDF81600ADF8120006983346009004A9E1
:10D9700005A8089A03F0D0FE681CC5B2BD42DDDDE3
:10D98000607CB8B3B08918B14FF00108677C04E03F
:10D990004FF00008607C401CC7B20FFA8AF0ADF867
:10D9A00016000298504400B2ADF8120045461FE040
:10D9B000B6F936100398401A6843617C491C90FB05
:10D9C000F1F000B2ADF81400BDF81400484400B204
:10D9D000ADF81400BDF81400ADF8100006983346F9
:10D9E000009004A905A8089A03F096FE681CC5B229
:10D9F000BD42DDDD09B0BDE8F08F00002DE9F34F39
:10DA000097B017980DF028FD044617980DF0FEFD0D
:10DA1000149017980DF026FD80461798B0F9106005
:10DA20001798B0F91200139017980DF064FD11903B
:10DA30004A4902A811F0B2FB2F20015D8DF8401079
:10DA4000A18DADF83E1020460BF0CCFF05467FE0DF
:10DA5000A888ADF83C0094F82A0000F0010008B94D
:10DA6000E88800E000200FFA80FB30B2ADF85800E3
:10DA700030B2ADF85400CDF848B02868DDF848B0B1
:10DA800030F91B00B4F90C10401A00FB08F9B4F986
:10DA90000E00B4F90C10401A99FBF0F9A8EB09013B
:10DAA0001398084400B2ADF85600012748E0BDF8CD
:10DAB0005400ADF85800BDF85600ADF85A0014985F
:10DAC0007843618A491E90FBF1F0304400B2ADF812
:10DAD00054000BEB0700618A90FBF1F201FB12008E
:10DAE0000FFA80FA286830F91A00B4F90C10401ABD
:10DAF00000FB08F9B4F90E00B4F90C10401A99FBB8
:10DB0000F0F9A8EB09011398084400B2ADF85600EB
:10DB10002968129831F91000114988420CD0286800
:10DB200030F91A00884207D0119802AB009015A96D
:10DB300016A8189A03F0F0FDCDF848A0781C87B21B
:10DB4000608AB842B3DC294620460BF041FF054607
:10DB5000002D7FF47DAF19B0BDE8F08F7C08002068
:10DB6000E883FFFF2DE9F34F99B0074638460DF0E3
:10DB700073FC044638460DF049FD169038460DF00A
:10DB800071FC8146B7F910001590B7F91200149096
:10DB900000201390514904A811F000FB0021ADF8BA
:10DBA0001C1047F61841ADF816102F20015D8DF8B6
:10DBB0001810A18DADF8161020460BF013FF054686
:10DBC00086E094F82A0000F0010008B9E88800E037
:10DBD00000200FFA80FBA888ADF812000020039007
:10DBE0003020025DA88801460190039800F008FFEC
:10DBF000029004A8BDF80810ADF8141000265BE0F0
:10DC000016987043618A491E90FBF1F115980844FB
:10DC100000B2ADF85C00BDF85C10BDF81600084419
:10DC200000B2ADF86000BDF85C10BDF81600081A2F
:10DC300000B2ADF85C000BEB0600618A90FBF1F2DC
:10DC400001FB12000FFA80F8286830F91800B4F9C7
:10DC50000C10401A00FB09FAB4F90E00B4F90C10CC
:10DC6000401A9AFBF0FAA9EB0A011498084400B292
:10DC7000ADF85E00BDF85E10BDF81600084400B2B5
:10DC8000ADF86200BDF85E10BDF81600081A00B2CB
:10DC9000ADF85E00286830F918001149884209D0B3
:10DCA00038460DF028FC034604AA029017A81A99DA
:10DCB00004F0BCF8701C86B2608AB042A0DC1398F5
:10DCC000401CC0B21390294620460BF081FE054649
:10DCD000002D7FF476AF1BB0BDE8F08F7C080020EC
:10DCE000E883FFFF2DE9F34F97B0824650460DF0D1
:10DCF000B3FB044650460DF089FC1690618A1698D5
:10DD0000814206D050461899FFF778FE19B0BDE859
:10DD1000F08F50460DF0A6FB0746BAF91060BAF92D
:10DD200012B050460DF0E7FB12904E4903A811F0D7
:10DD300035FA2F20015D8DF84410A18D03A8C1860E
:10DD400020460BF04FFE054687E094F82A0000F0CD
:10DD5000010008B9E88800E0002000B20290A8881D
:10DD6000ADF8400030B2ADF8500030B2ADF84C0024
:10DD70002868B0F90000B4F90C10401A00FB07F94C
:10DD8000B4F90E00B4F90C10401A99FBF0F9A7EBA6
:10DD90000900584400B2ADF84E00BDF84E00ADF891
:10DDA0005200002015904FE0159902980844618AAE
:10DDB00090FBF1F201FB12000FFA80F8286830F9AD
:10DDC0001800B4F90C10401A00FB07F9B4F90E0062
:10DDD000B4F90C10401A99FBF0F9A7EB090058446C
:10DDE00000B2ADF84E00BDF95200BDF94E108842A8
:10DDF00005D1BDF84C00401C00B2ADF84C002868BD
:10DE000030F918001849884207D0129803AB0090E7
:10DE100013A914A8189A03F07FFC169800FB08F0C9
:10DE2000618A491E90FBF1F0304400B2ADF84C001D
:10DE3000BDF84C00ADF85000BDF84E00ADF85200F2
:10DE40001598401C80B21590618A15988142ABDC10
:10DE5000294620460BF0BCFD0546002D7FF475AF2A
:10DE600000BF53E77C080020E883FFFF2DE9F34F54
:10DE700097B017980DF0F0FA0446206A18B92520DB
:10DE8000005D002878D017980DF05CFB814617984C
:10DE90000DF031FB16901798B0F9100012901798FA
:10DEA000B0F91200119017980DF0DCFA1090179845
:10DEB0000DF0ACFB0F902620005DFF2806D10F214E
:10DEC0000F9890FBF1F000F0FF0B01E094F826B002
:10DED0002720005DFF2807D14FEA4B00032190FB6C
:10DEE000F1F0C0B2159002E02720005D15900027E8
:10DEF000B846206A98B1002609E0206A805D0A28A9
:10DF000003D108F1010000F0FF08701CC6B2206ABE
:10DF1000805D0028F1D108F1010000F0FF08252004
:10DF2000005D10B9012125200155B8F1020F02DA78
:10DF300094F825A006E02520005DA8F101014843E2
:10DF400000F0FF0A0025BCE0DDE91001084400B242
:10DF5000ADF85200B8F1000F0FD035B12520005DAB
:10DF600095FBF0F100FB115038B9BDF85200584450
:10DF700000B2ADF84E0007E0A9E0BDF852101598C8
:10DF8000084400B2ADF84E00B9F936100F98401AA7
:10DF9000684390FBFAF11298084400B2ADF85000C3
:10DFA000ADF84C00554508D016984B46009013A983
:10DFB00014A8189A03F0B0FB0CE02420005D00F0D8
:10DFC000010038B116984B46009013A914A8189A6E
:10DFD00003F0A2FBB8F1000F71D03DB12520005D28
:10DFE00095FBF0F100FB1150002868D100260EE0EF
:10DFF000142E0ADA3846791CCFB2226A125C3046F7
:10E00000711CCEB209A90A5401E0781CC7B2206A7B
:10E01000C05D0A2803D0206AC05D0028E8D1206ACC
:10E02000C05D0A2801D1781CC7B2002009A9885513
:10E03000042147F61842B9F92A00CDE901210090E0
:10E04000B9F9283009A908A8D9F8242014F04AFC05
:10E05000BDF9200000EBD071BDF84C20A2EB6101AE
:10E0600009B2ADF81810BDF84E00001D00B2ADF8B1
:10E070001A00BDF9200000EBD071BDF84C2002EB76
:10E08000610109B2ADF81C10BDF84E00BDF82210B8
:10E090000844001D00B2ADF81E0000204FF6FF71CD
:10E0A000CDE90201CDE90410042009A9CDE9001051
:10E0B0004A4606A8169B189902F006FF00BF681C86
:10E0C000C5B20AF101008542FFF63EAF00BF19B0AC
:10E0D000BDE8F08F2DE9F34F97B017980DF0BCF91C
:10E0E0000446A06910B9607F002871D017980DF020
:10E0F00029FA814617980DF0FEF916901798B0F995
:10E10000100012901798B0F91200119017980DF0A6
:10E11000A9F9109017980DF079FA0F90A07FFF28B9
:10E1200006D10F210F9890FBF1F000F0FF0B01E0FA
:10E1300094F81EB0E07FFF2807D14FEA4B0003217F
:10E1400090FBF1F0C0B2159001E0E07F1590002740
:10E15000B846A06998B1002609E0A069805D0A2848
:10E1600003D108F1010000F0FF08701CC6B2A069DD
:10E17000805D0028F1D108F1010000F0FF08607F08
:10E1800008B901216177B8F1020F02DA94F81DA0F5
:10E1900005E0607FA8F10101484300F0FF0A002577
:10E1A000B9E01298401E00B2ADF85000B8F1000F6F
:10E1B0000FD02DB1607F95FBF0F100FB115040B9FD
:10E1C000BDF85000A0EB0B0000B2ADF84C0007E02A
:10E1D000A7E0BDF850101598081A00B2ADF84C0031
:10E1E000B9F936101098401A684390FBFAF111986B
:10E1F000084400B2ADF85200ADF84E00554508D0C5
:10E2000016984B46009013A914A8189A03F084FAA4
:10E210000BE0207F00F0010038B116984B460090CB
:10E2200013A914A8189A03F077FAB8F1000F70D068
:10E2300035B1607F95FBF0F100FB1150002868D1EB
:10E2400000260EE0142E0ADA3846791CCFB2A269F5
:10E25000125C3046711CCEB209A90A5401E0781C48
:10E26000C7B2A069C05D0A2803D0A069C05D0028BC
:10E27000E8D1A069C05D0A2801D1781CC7B200208E
:10E2800009A98855042147F61842B9F92A00CDE9B1
:10E2900001210090B9F9283009A908A8D9F824204B
:10E2A00014F020FBBDF84C00BDF82010401A001FF0
:10E2B00000B2ADF81800BDF9220000EBD071BDF836
:10E2C0004E20A2EB610109B2ADF81A10BDF84C0066
:10E2D000001F00B2ADF81C00BDF9220000EBD071A8
:10E2E000BDF84E2002EB610109B2ADF81E1000200E
:10E2F0004FF6FF71CDE90201CDE90410042009A910
:10E30000CDE900104A4606A8169B189902F0DCFDDC
:10E3100000BF681CC5B20AF101008542FFF641AF9B
:10E3200000BF19B0BDE8F08F2DE9FC5F06460F462F
:10E3300030460DF091F8044630460DF067F98046FE
:10E340002E20005D401C618A484398FBF0F005B226
:10E35000284605EBD0714FEA610A08FB07F0618A95
:10E3600090FBF1F00FFA80F9308A504448440FFADC
:10E3700080F9694630460DF01CF8ADF80090BDF804
:10E380000000284400B2ADF8040030460DF01EF83D
:10E390008346694608F072FEBDE8FC9F2DE9FC4704
:10E3A00080460D4640460DF057F8044640460DF0B5
:10E3B0002DF90646B8F91070608AA84248DD694612
:10E3C00040460CF0F6FF608A401EA8421EDD06FBA8
:10E3D00005F0618A491E90FBF1F03844A18D401A86
:10E3E00000B2ADF80000681C7043618A491E90FBC2
:10E3F000F1F03844A18D084400B2ADF80400404665
:10E400000CF0E4FF8146694608F038FE002D1EDD61
:10E41000681E7043618A491E90FBF1F03844A18D5B
:10E42000401A00B2ADF8000006FB05F0618A491EF3
:10E4300090FBF1F03844A18D084400B2ADF804001F
:10E4400040460CF0C3FF8146694608F017FE00BF46
:10E45000BDE8FC872DE9FC4705460E4628460CF032
:10E46000FBFF044628460DF0D1F88046B5F9107040
:10E47000694628460CF09DFF08FB06F0618A491E9C
:10E4800090FBF1F0384400B2ADF80000BDF8000098
:10E49000A18D084400B2ADF80400BDF80000A18DC4
:10E4A000401A00B2ADF8000028460CF08FFF8146FC
:10E4B000694608F0E3FDBDE8FC8710B50446204638
:10E4C0000DF0D4F810BD2DE9F04107460C46164674
:10E4D00038460CF0C1FF054695F82A0000F001000F
:10E4E00078B9E188206820F81160E088401C698ACA
:10E4F00090FBF1F201FB1200E0803846FFF7DDFFF0
:10E5000039E095F82A0000F00100002833D0E188B6
:10E51000206820F81160287D00F0010018B1E18822
:10E520003846FFF73BFF287D00F0020018B1E18874
:10E530003846FFF7F9FE287D00F0040018B1E188A5
:10E540003846FFF787FF287D00F0080018B1E18802
:10E550003846FFF723FF287D00F0100018B1E1884E
:10E560003846FFF71BFFE088401C698A90FBF1F2F8
:10E5700001FB1200E080BDE8F08170B505460E4653
:10E580001446214628460DF0AAFA70BD70B506461D
:10E590000C4630460CF060FF0546287DA04200D1B5
:10E5A00070BD2C753046FFF788FF00BFF8E700000C
:10E5B0002DE9F04706460C46174630460CF04CFF56
:10E5C00081463A46214630461B4B1B689847804699
:10E5D000B8F1010F02D04046BDE8F08794B9484633
:10E5E0000BF0E6F9054607E028680CF061F82946CB
:10E5F00048460BF0E2F90546002DF5D148460BF0F0
:10E60000BFF917E0062C0FD13946002005E051F87C
:10E61000202002B903E0421CD0B20728F7DB00BF7C
:10E6200006A241F8202005E0052C03D1B9F8280006
:10E6300000B2B0864046CFE7400200206C765F63B0
:10E6400068617274000000000146B1F90200B1F97E
:10E650000020904201DC012070470020FCE702808E
:10E6600000234380C2F101031BB20B807047428834
:10E67000521C12B24280B1F90020002A07DC0B883C
:10E6800042885200521C1A4412B20A800CE00288DE
:10E69000521E12B2028042880388D21A5200521CC3
:10E6A0000B881A4412B20A80704738B50446E2B2A9
:10E6B000C4F30721C4F3074000F0D0F80090BDF880
:10E6C0000010084638BD38B5044604F00F0523464F
:10E6D00065F31F131A4604F0F003C4F3031543EA6D
:10E6E0000501F02303EA1413C4F3032543EA0500EC
:10E6F00000F0B4F80090BDF80010084638BD2DE9D0
:10E70000F04F85B0824689461446CAEB0A204FF482
:10E71000B471B0FBF1F01FFA80FAC9EB0920642153
:10E7200090FBF1F000F0FF09C4EB042090FBF1F046
:10E73000C4B2B9F1000F0ED125462646274622461F
:10E740002146204600F072F80090BDF800100846FF
:10E7500005B0BDE8F08F2B209AFBF0F0C0B204901A
:10E760002B21049810FB01F0AAEB000000EB400005
:10E770004006000E0390C9F1FF0060434FEA2028D5
:10E78000039809FB00F0FF21A1EB20206043001259
:10E7900002900398C0F1FF0000FB09F0A1EB2020DC
:10E7A00060434FEA202B0498052818D2DFE800F0D8
:10E7B00003070B0F130025465E46474613E0029DF4
:10E7C000264647460FE0454626465F460BE045464F
:10E7D000029E274607E05D464646274603E025465B
:10E7E0004646029F00BF00BF3A463146284600F029
:10E7F0001DF80190BDF804100846A9E718B50346B6
:10E80000D408BDF8000064F3040000908C08BDF843
:10E81000000064F34A100090DC08BDF8000064F3C7
:10E82000CF200090BDF80040204618BD18B5034623
:10E83000D408BDF8000064F3040000908C08BDF813
:10E84000000064F34A100090DC08BDF8000064F397
:10E85000CF200090BDF80040204618BD18B50346F3
:10E86000D408BDF8000064F3040000908C08BDF8E3
:10E87000000064F34A100090DC08BDF8000064F367
:10E88000CF200090BDF80040204618BD07B581B0EC
:10E89000BDF80800C00AC2F1FF014843BDF80410EA
:10E8A000C90A01FB0200010ABDF8000061F3CF2094
:10E8B0000090BDF80800C0F34510C2F1FF014843C5
:10E8C000BDF80410C1F3451101FB0200010ABDF8B7
:10E8D000000061F34A100090BDF8080000F01F002E
:10E8E000C2F1FF014843BDF8041001F01F0101FB14
:10E8F0000200010ABDF8000061F304000090BDF8B9
:10E900000010084604B000BD07B581B0BDF808008E
:10E91000C00AC2F1FF014843BDF80410C90A01FB57
:10E920000200010ABDF8000061F3CF200090BDF89D
:10E930000800C0F34510C2F1FF014843BDF80410C0
:10E94000C1F3451101FB0200010ABDF8000061F3AB
:10E950004A100090BDF8080000F01F00C2F1FF014E
:10E960004843BDF8041001F01F0101FB0200010A39
:10E97000BDF8000061F304000090BDF800100846E7
:10E9800004B000BD07B581B0BDF80800C00AC2F1EF
:10E99000FF014843BDF80410C90A01FB0200010A47
:10E9A000BDF8000061F3CF200090BDF80800C0F36F
:10E9B0004510C2F1FF014843BDF80410C1F34511F1
:10E9C00001FB0200010ABDF8000061F34A1000904B
:10E9D000BDF8080000F01F00C2F1FF014843BDF878
:10E9E000041001F01F0101FB0200010ABDF8000044
:10E9F00061F304000090BDF80010084604B000BDAB
:10EA000007B581B0BDF80800C00AC2F1FF01484354
:10EA1000BDF80410C90A01FB0200010ABDF800009C
:10EA200061F3CF200090BDF80800C0F34510C2F19B
:10EA3000FF014843BDF80410C1F3451101FB02007A
:10EA4000010ABDF8000061F34A100090BDF808000B
:10EA500000F01F00C2F1FF014843BDF8041001F0AF
:10EA60001F0101FB0200010ABDF8000061F3040070
:10EA70000090BDF80010084604B000BD07B581B095
:10EA8000BDF80800C00AC2F1FF014843BDF80410F8
:10EA9000C90A01FB0200010ABDF8000061F3CF20A2
:10EAA0000090BDF80800C0F34510C2F1FF014843D3
:10EAB000BDF80410C1F3451101FB0200010ABDF8C5
:10EAC000000061F34A100090BDF8080000F01F003C
:10EAD000C2F1FF014843BDF8041001F01F0101FB22
:10EAE0000200010ABDF8000061F304000090BDF8C7
:10EAF0000010084604B000BD07B581B0BDF808009D
:10EB0000C00AC2F1FF014843BDF80410C90A01FB65
:10EB10000200010ABDF8000061F3CF200090BDF8AB
:10EB20000800C0F34510C2F1FF014843BDF80410CE
:10EB3000C1F3451101FB0200010ABDF8000061F3B9
:10EB40004A100090BDF8080000F01F00C2F1FF015C
:10EB50004843BDF8041001F01F0101FB0200010A47
:10EB6000BDF8000061F304000090BDF800100846F5
:10EB700004B000BD2DE9F04180460E4631464046C6
:10EB80000CF094F907460FB900BFFEE717B9002053
:10EB9000BDE8F0813348006820B938460CF0CFFC5E
:10EBA00030490860022138460CF06DF938460CF007
:10EBB00053FC04460CB90020EAE70CB900BFFEE79D
:10EBC000207820F030002070207820F0C0002070E5
:10EBD000607820F003006070607820F00C006070B6
:10EBE000207820F00F0020701F4938460CF026FFD7
:10EBF00096B9B8F1000F33D013F0D8FC05462DB10B
:10EC000000213846EA6800F0A4FD04E0174A00211C
:10EC1000384600F09EFD23E030460CF01DFC054612
:10EC200028780109207861F305102070287881097F
:10EC3000207861F3871020706878617860F30101B3
:10EC4000617068788108607861F38300607028786B
:10EC5000217860F30301217038460CF0CFFD00BF2E
:10EC6000384695E74402002065F70108F4080020C3
:10EC700070B5044620460CF0EFFB05466878C0F3FB
:10EC8000810070BD70B5044620460CF0E5FB0546DA
:10EC90002878C0F3011070BD70B5044620460CF012
:10ECA000DBFB0546687800F0030070BD70B50446D4
:10ECB00020460CF0D1FB0546287800F00F0070BD0F
:10ECC0002DE9F84F044620460CF03CFC07464FF077
:10ECD00000090026201D0AF06BFE054619E02846B3
:10ECE0000CF0D7FB20B9042128460CF033FD00B10D
:10ECF0000AE028460CF0B6FB0146F88B0844304485
:10ED000006B209F1010900BF2946201D0AF055FE8F
:10ED10000546002DE3D1B9F1000F01D1BDE8F88F10
:10ED2000F88B301A06B2012120460CF081FE3046E5
:10ED300006EBD071491049420FFA81F8201D0AF004
:10ED400051FE05462AE028460CF0A3FB20B9042119
:10ED500028460CF0FFFC00B11BE028460CF082FBBB
:10ED6000824600EBDA7008EB60000FFA80FB0023AC
:10ED70001A4621462846CDF800B00BF02FFD284654
:10ED80000CF070FB0146F88B084440440FFA80F801
:10ED900000BF2946201D0AF01BFE0546002DD2D1DA
:10EDA000012120460CF079F800BFB7E72DE9F84FB4
:10EDB00006463046FFF77AFF824630460CF0C2FB2B
:10EDC0008046BAF1020F06D0BAF1030F07D0BAF1AC
:10EDD000040F0DD106E0B8F91A5001240BE000250C
:10EDE000022408E0B8F81C00404205B2032402E007
:10EDF0000025012400BF00BF012130460CF018FEA1
:10EE0000B8F91690301D0AF0EDFD074621E03846AE
:10EE10000CF03FFB20B9042138460CF09BFC00B1FC
:10EE200012E02B46224631463846CDF800900BF0D2
:10EE3000D5FC38460CF016FB0146B8F81E00084415
:10EE400048440FFA80F900BF3946301D0AF0C0FD72
:10EE50000746002FDBD1012130460CF01EF8BDE83B
:10EE6000F88F2DE9F04F87B0814648460CF06AFBD9
:10EE7000044648460CF0CAFB0690002148460CF0B8
:10EE800070FA01900CF0C2FB054648460CF0C6FB38
:10EE90000590002148460CF064FA01900CF0E2FA6B
:10EEA0000490B4F91E004119059890FBF1F086B268
:10EEB000012E09DD059806FB1501701E91FBF0F08F
:10EEC00028440FFA80F80AE0069901EBD17252103B
:10EED000284605EBD073A2EB63020FFA82F8E18BB0
:10EEE0000498084400B20390012148460CF0A0FDAC
:10EEF000B4F91AA0B4F916B00020029009F1040088
:10EF00000AF070FD074630E038460CF0C2FA20B92E
:10EF1000042138460CF01EFC00B120E0012E09DD72
:10EF20005A46514638460CF032FD0AEB08000FFAFB
:10EF300080FA04E05A46414638460CF028FD029813
:10EF4000401C80B202900298B04207DB0020029081
:10EF5000B4F91AA0039858440FFA80FB00BF394651
:10EF600009F104000AF034FD0746002FCCD101213D
:10EF700048460BF092FF07B0BDE8F08F2DE9F04F47
:10EF800089B0054628460CF0DDFA804628460CF08C
:10EF90003DFB0790B8F91690281D0AF023FD0646A0
:10EFA00016B909B0BDE8F08F012128460CF040FDEC
:10EFB0003446FBE04FF0000AB8F81A10B8F81C000D
:10EFC000084400B20690002700BF20460CF061FA0A
:10EFD00088BB042120460CF0BDFB60BB20460CF032
:10EFE00015FB069901440798814207DD2CB127B132
:10EFF0002146281D0AF0E1FC044626E020460CF0DC
:10F0000005FB0146B8F81E0001440698084400B20A
:10F01000069020460CF026FA504501DA504602E0F0
:10F0200020460CF01FFA82467F1C082120460CF077
:10F0300091FB00B109E0FFE72146281D0AF0C8FC5A
:10F04000044607B92646002CBFD100BF77B9002C73
:10F050000BD00023022229462046CDF800900BF069
:10F06000BDFB20460CF0FEF9824690E0012F08D14E
:10F070000023022229463046CDF800900BF0AEFB6B
:10F0800085E0022F3ED105963146281D0AF0A0FCEE
:10F09000049005980CF0BAFA834604980CF0B6FA7E
:10F0A000584400B20690DDE90610401A032190FB97
:10F0B000F1F000B2039005980CF0D4F9AAEB000B24
:10F0C0000BEBDB7009EB600000B2029000900122B4
:10F0D0002946039B05980BF081FB04980CF0C2F9BC
:10F0E000AAEB000B0BEBDB7009EB600000B20290A7
:10F0F00000900398404203B20322294604980BF083
:10F100006DFB44E0B8F91E10069801FB170000B231
:10F110000690DDE90610411A781EB1FBF0F000B24E
:10F120000590B8F91AB008962CE008980CF0B1F9DF
:10F13000F8B9042108980CF00DFBD0B908980CF030
:10F1400091F9AAEB0000049000EBD07009EB60008D
:10F1500000B203905B4601222946009008980BF00C
:10F160003DFB08980CF052FA0599084458440FFAF0
:10F1700080FB0898A04200D107E0281D08990AF0FA
:10F1800027FC089008980028CFD100BF00BF04B921
:10F190000FE0B8F81E00504448440FFA80F92146A9
:10F1A000281D0AF015FC0646344600BF002E7FF4E9
:10F1B00001AF00BF012128460BF06FFE00BFF0E653
:10F1C0002DE9F84F06463046FFF770FD824630467F
:10F1D0000CF0B8F98046BAF1050F06D0BAF1060F67
:10F1E00007D0BAF1070F0DD106E0B8F91650012487
:10F1F0000BE00025072408E0B8F81800404205B2EB
:10F20000042402E00025012400BF00BF0121304694
:10F210000CF00EFCB8F91A90301D0AF0E3FB07461B
:10F2200020E038460CF035F920B9042138460CF0BE
:10F2300091FA00B111E04B4622463146384600951E
:10F240000BF0CCFA38460CF0E1F90146B8F81E0094
:10F25000084448440FFA80F900BF3946301D0AF0CF
:10F26000B7FB0746002FDCD1012130460BF015FE1D
:10F27000BDE8F88F2DE9F04788B0054628460CF028
:10F28000EBF806463078C0F3011068B93078800991
:10F2900050B9707800F0030030B97078C0F3810085
:10F2A00010B908B0BDE8F08728460CF04BF980464D
:10F2B00028460CF034F9824650460CF043F981465A
:10F2C0000AF1100102A8FBF78AFCBDF80810B9F892
:10F2D0001A00084400B2ADF80800BDF80C10B9F8E7
:10F2E0001C00081A00B2ADF80C00BDF80A10B9F8FD
:10F2F0001600084400B2ADF80A00BDF80E10B9F8C7
:10F300001800081A00B2ADF80E0004A928460CF047
:10F3100050F806A928460CF04CF8281D0AF0EEFB20
:10F3200080F00107002F71D047F61840ADF81800A3
:10F33000ADF81A0048F2E830ADF81C00ADF81E0038
:10F34000281D0AF035FB04463EE020460CF0A1F8EB
:10F3500000B134E0BDF91800B4F91010884202DAA7
:10F36000BDF9180001E0B4F91000ADF81800BDF9BE
:10F370001A10B4F91200814202DABDF91A0001E054
:10F38000B4F91200ADF81A00BDF91C10B4F914005C
:10F39000814202DDBDF91C0001E0B4F91400ADF8B2
:10F3A0001C00BDF91E10B4F91600814202DDBDF942
:10F3B0001E0001E0B4F91600ADF81E0000BF2146A2
:10F3C000281D0AF0FAFA0446002CBED1BDF8181028
:10F3D000B8F81A00081A00B2ADF81800BDF81C10F1
:10F3E000B8F81C00084400B2ADF81C00BDF81A10B3
:10F3F000B8F81600081A00B2ADF81A00BDF81E10D1
:10F40000B8F81800084400B2ADF81E0004A9684618
:10F41000FBF7E5FB3078C0F30110012804D0022887
:10F4200007D003281CD109E0BDF81800ADF8000092
:10F4300017E0BDF80800ADF8000012E05FB1BDF9BB
:10F440001800BDF90810884202DABDF9180004E07E
:10F45000BDF9080001E0BDF90800ADF8000000E0CA
:10F4600000BF00BF30788009012804D0022807D0EF
:10F4700003281CD109E0BDF81C00ADF8040017E01A
:10F48000BDF80C00ADF8040012E05FB1BDF91C003E
:10F49000BDF90C10884202DDBDF91C0004E0BDF985
:10F4A0000C0001E0BDF90C00ADF8040000E000BF65
:10F4B00000BF707800F00300012804D0022807D0B4
:10F4C00003281CD109E0BDF81A00ADF8020017E0CE
:10F4D000BDF80A00ADF8020012E05FB1BDF91A00F4
:10F4E000BDF90A10884202DABDF91A0004E0BDF93C
:10F4F0000A0001E0BDF90A00ADF8020000E000BF1B
:10F5000000BF7078C0F38100012804D0022807D022
:10F5100003281CD109E0BDF81E00ADF8060017E075
:10F52000BDF80E00ADF8060012E05FB1BDF91E0097
:10F53000BDF90E10884202DDBDF91E0004E0BDF9E0
:10F540000E0001E0BDF90E00ADF8060000E000BFBE
:10F5500000BFB5F91000BDF90010884211D1B5F90E
:10F560001200BDF9021088420BD1B5F91400BDF9A3
:10F570000410884205D1B5F91600BDF9061088427D
:10F580002DD028460CF072F8694605F11000FBF703
:10F5900026FB28460CF06AF804AA02212846EB69EB
:10F5A00098472A4601215046DAF81C3098472846E9
:10F5B0000BF0D1FE10B128460CF0F4F8281D0AF02B
:10F5C000F7F9044609E0002203212046E369984741
:10F5D0002146281D0AF0F1F90446002CF3D100BFA2
:10F5E0005FE670B505462846FFF760FB044600213C
:10F5F00028460BF0B6FE00B970BD04B9FCE7012C3B
:10F6000003D12846FFF75CFB1EE0022C03D0032C3D
:10F6100001D0042C03D12846FFF7C8FB14E0052CC9
:10F6200003D0062C01D0072C03D12846FFF7C8FDD4
:10F630000AE0082C03D12846FFF7A0FC04E0092CBF
:10F6400002D12846FFF70DFC00BFD5E738B50546C7
:10F650000C462346224621462846009400F025F811
:10F6600038BDF8B506460D46144623462A462946B7
:10F670003046009400F019F8F8BDF8B506460D467E
:10F68000144623462A4629463046009400F00DF8D9
:10F69000F8BDF8B506460D46144623462A462946C7
:10F6A0003046009400F001F8F8BD2DE9F04780469F
:10F6B0000D4616461F46DDF8209040460BF0D6FF5B
:10F6C00040460BF0C9FE04462078C0F30110A84262
:10F6D0000FD12078B6EB901F0BD1607800F00300BB
:10F6E000B84206D16078C0F38100484501D1BDE839
:10F6F000F087207865F305102070207866F3871076
:10F700002070607867F301006070607869F38300AF
:10F710006070002201214046D8F81C30984700BF95
:10F72000E5E770B506460C4630460BF095FE0546FB
:10F73000287800F00F00A04200D170BD287864F353
:10F7400003002870002201213046F369984700BF6A
:10F75000F3E770B505460E461446214628460CF0E0
:10F76000BEF970BD2DE9F04107460C4615462A4604
:10F7700021463846284B1B6898470646012E02D082
:10F780003046BDE8F081042C06D13846FFF729FF4A
:10F790003846FFF76FFD3DE0012C06D13846FFF7F4
:10F7A00020FF3846FFF766FD34E0022C1AD13846B8
:10F7B0000BF02CFFA9882A88891A491C09B28842B3
:10F7C00009D138460BF04EFEE9886A88891A491C2F
:10F7D00009B288421ED03846FFF703FF3846FFF7CC
:10F7E00049FD17E0032C03D13846FFF743FD11E034
:10F7F000062C0FD12946002005E051F8202002B93F
:10F8000003E0421CD0B20728F7DB00BF03A241F897
:10F81000202000BF3046B4E7440200206C765F63CE
:10F820006F6E740070B504460D46294620460CF0F4
:10F830004BF8204600F0CFFA70BD70B5054628465B
:10F840000BF00AFE0446284600F0C5FA14F83E0FF5
:10F8500020F00200207014F83E0900F0010018B1F9
:10F86000052128460DF022FB70BD70B504462568C1
:10F870002846FFF7E2FF70BD2DE9F04780460E46AF
:10F88000314640460CF09AF907460FB900BFFEE733
:10F8900017B90020BDE8F0876748006820B93846EE
:10F8A0000BF04DFE644908606448006838B938467A
:10F8B0000CF053FD05460BF042FE604908606048BD
:10F8C000006820B938460BF07DFD5D490860442191
:10F8D00038460BF0D8FA04460CB900BFFEE70CB965
:10F8E0000020D7E7002044F8300FA07B20F0010073
:10F8F000A073002020826081A08120815148606037
:10F90000A07B20F00400A073A07B20F00800A0736F
:10F91000303C4D4938460CF091F838460CF01DFD4E
:10F9200005464A490CF08AF8494938460BF0A5FFCC
:10F93000002E50D1C82138460DF0A1FA38460CF0FF
:10F940000CFD8146002148460BF099FF012203215E
:10F9500038460DF0E9FA0021384607F087FE2063AB
:10F96000002201213846FFF77CFE042138460DF0C5
:10F970009DFA384A012138460DF0F6FA36A138468C
:10F9800000F09AFB12F012FE0546A5B100213846A0
:10F99000D5F84C2100F00EFC4FF4A870425901211B
:10F9A000384600F007FC4FF4AA704259022138464D
:10F9B00000F000FC0EE02F4A0021384600F0FAFB70
:10F9C000204A0121384600F0F5FB2B4A0221384637
:10F9D00000F0F0FB2EE030460BF03EFD054655F8FA
:10F9E000301F384607F042FE44F8300F286808F010
:10F9F00037FA81464946206808F0A7FD688960818A
:10FA00006889A081288A20822889208168686060AE
:10FA1000A87B8108A07B61F38200A073A87B303DA6
:10FA2000C108A07B61F3C300A073303C38460BF0E3
:10FA3000E5FE00BF38462DE7480200204C020020BA
:10FA400050020020B808002009020208A5FF0108A2
:10FA50007DFA0108400800204F7074696F6E2031F4
:10FA60000A4F7074696F6E20320A4F7074696F6E3E
:10FA700020330000F4080020300900202DE9F74F62
:10FA80009CB004461746022F08D13A462046A34BA5
:10FA90001D991B6898471FB0BDE8F08F002F54D107
:10FAA0003A4620469D4B1D991B68984720460BF00F
:10FAB000D3FC054620460BF01EFD814695F83E001E
:10FAC00000F0010020B995F83E00C0F34000D8B323
:10FAD0000021204600F02EF90646D6F824A0504614
:10FAE00005F07BF98046286B408AADF86A00BDF9C5
:10FAF0006A106A8FB6F92A00404402FB001000B277
:10FB0000ADF86A00B6F92A0000EBD071BDF86A20A2
:10FB1000A2EB610109B2ADF86A10BDF86A0000EB12
:10FB20000801708D0844401E00B2ADF86E00208AB6
:10FB3000ADF86800A08AADF86C004B466A6B1AA855
:10FB40001D9902F073F900BFE6E0012FFCD12046B9
:10FB50000BF082FC054620460BF0CDFC1B9095F87F
:10FB60003E0000F0010028B995F83E00C0F34000C7
:10FB700000286CD00021204600F0DCF80646D6F8BC
:10FB800024A0504605F029F98046286B408AADF83C
:10FB90006600BDF966106A8FB6F92A00404402FB80
:10FBA000001000B2ADF86600B6F92A0000EBD07183
:10FBB000BDF86620A2EB610109B2ADF86610BDF890
:10FBC000660000EB0801708D0844401E00B2ADF8DD
:10FBD0006A00208AADF86400A08AADF8680019AA0E
:10FBE00017A81D99FBF797F88346BBF1000F2DD09E
:10FBF0000121204600F09EF88146314608A80FF00A
:10FC0000CDFAB9F82000ADF840002C2010F809100A
:10FC10008DF84C10204600F0A8F80790286B08F0EB
:10FC20001FF9069000204FF6FF71CDE90201CDE9E2
:10FC30000410DDE90601CDE90001296B01F1100096
:10FC400008AA17A91B9B01F03FF900BF5DE095F8DA
:10FC50003E00C0F38000002857D00021204600F06D
:10FC600069F80646D6F824900021204600F062F894
:10FC70008046484605F0B1F8824631460CA80FF0A0
:10FC80008DFAB8F82000ADF850002C2010F80810BC
:10FC90008DF85C10A18AB08B081A00B2ADF82C0068
:10FCA00000200090034603211DA0D8F8242012F064
:10FCB0007FFEBDF82C10081A00B2ADF82800618A4A
:10FCC000708D084400B2ADF82A00BDF82A005044F7
:10FCD00000B2ADF82E000AAA08A81D99FBF71BF880
:10FCE0008346BBF1000F0FD000204FF6FF71CDE926
:10FCF0000201CDE904100AA1CDE900100CAA08A95F
:10FD00000AA81B9B01F0E0F800BF3A462046034BCF
:10FD10001D991B68984700BF0120BCE650020020D7
:10FD2000EF81B80070B5044620460BF095FB054600
:10FD3000688F70BD70B505460C4628460BF08CFBED
:10FD4000064624B1012C0CD0022C0CD104E0002179
:10FD500028460CF01CFB70BD022128460CF017FB56
:10FD6000F9E7706BF7E70020F5E770B50646304617
:10FD70000BF072FB0546286B08B9042070BD286B98
:10FD800007F0A4FE044624B1012C04D0022C04D0B8
:10FD900000BF0020F2E70420F0E70820EEE72DE99D
:10FDA000F04105460E4628460BF056FB044694F8F3
:10FDB0003E0020F00100401C84F83E0028460CF074
:10FDC000CCFA074601210BF05AFD3146284600F0D7
:10FDD0003FF8BDE8F0812DE9FC5F074638460BF09F
:10FDE0003BFB044638460BF0ADFB8046D8F82400B8
:10FDF0000190019804F0F1FF0546206B0BF0A2FB87
:10FE0000009038460CF0A9FA064638460BF02AFB5B
:10FE10008146206BB0F91210628F0098B0F92A0069
:10FE2000284402FB0011708A081A0FFA80FAA9EB25
:10FE3000050B0BEBDB70CAF1000202EB600001B2B4
:10FE400030460BF07AFE38460BF010FCBDE8FC9F04
:10FE50002DE9F04F89B00646884630460BF0FCFA93
:10FE6000044630460BF06EFB074694F83E0000F067
:10FE7000010088B1B4F8400058B930460CF06DFA72
:10FE800081460BF0EFFAF98A0144388B084405B239
:10FE900017E0B4F9405014E0D7F82490206B0BF031
:10FEA00051FB8246484604F098FF8346BAF82A0080
:10FEB000022111FB00B005B2042130460CF0F6FF20
:10FEC00000BFB8F1000F17D1294630460BF0FCFCFB
:10FED0003046FFF780FF94F83E0000F0010018B1B3
:10FEE000052130460CF0E2FF20493046FAF72AFCA3
:10FEF0003046FFF7A2FC36E030460BF0B3FAA842DA
:10FF000031D0009630460BF0ADFA049005951748B5
:10FF1000019017480290174803900020ADF81A008E
:10FF200000BF30460CF0ECF9ADF818009DF8200049
:10FF300020F001008DF820000020ADF81C009DF895
:10FF4000200020F002008DF820000020ADF81E00F7
:10FF500094F83E0020F00200801C84F83E006846C1
:10FF6000FAF7C4FB00BF09B0BDE8F08F25F801081F
:10FF7000E7A701086BF8010870B5044620460CF0AD
:10FF8000F4F905462A46012120460CF0CDFF204613
:10FF90000CF0EBF905462A46032120460CF0C4FF7D
:10FFA00070BD00002DE9F04706460C4691464A46D2
:10FFB000214630461E4B1B6898470746012F02D04A
:10FFC0003846BDE8F08730460BF0A9FA8246052C8A
:10FFD00017D100215046FFF7ADFE0546B5F91A10BE
:10FFE000B5F91C00814202DDB5F91A0001E0B5F94E
:10FFF0001C008046B6F93400404501DAA6F834808A
:020000040802F0
:1000000013E00A2C09D106F0C3FE054606F00AFFEC
:1000100058B9504613F0A2FF07E034B950460BF030
:100020001BFA05460020286300BF3846C9E70000D8
:100030004C02002070B506460C4630460BF00CFA18
:10004000054695F83E0064F3820085F83E0070BDD9
:1000500070B506460C4630460BF0FEF90546B5F97C
:100060004000A04200D170BDA5F8404000213046BC
:10007000FFF7EEFE00BFF6E770B505460C464CB93B
:100080002846FEF7F5FD0646324601212846FFF7D1
:10009000E8FA0CE02846FEF7EBFD06463246002162
:1000A0002846FFF7DEFA214628460BF02CFD0021FA
:1000B0002846FFF7CDFE70BDF8B507460D46384619
:1000C0000BF0CAF9044600202087002607E0A85D4F
:1000D0000A2802D1208F401C2087701C86B2A85DA0
:1000E0000028F4D1208F401C208700206087A08743
:1000F0002946206B08F029FA3846FFF73DFF206BB0
:1001000007F0E4FC20B101280BD002281BD111E03C
:1001100000200090002307221946206B0AF05EFBA6
:1001200011E00020009000231A461946206B0AF0C7
:1001300055FB08E000200090002308221946206BA0
:100140000AF04CFB00BF00BF00213846FFF780FEDD
:10015000F8BD70B506460D4630460BF07DF90446F5
:10016000608FA84200D170BD208FA84201DD2846D3
:1001700001E0208F401E6087608FA08794F83E00CA
:1001800000F0010018B93046FFF725FE02E03046C6
:100190000BF06CFA00BFE6E770B506460C46304639
:1001A0000BF05AF9054695F83E0064F3C30085F854
:1001B0003E0070BD2DE9F04106460C46154630461E
:1001C0000BF04AF9074624B1012C11D0022C18D1AA
:1001D00008E02A46002130460CF0C6FE3046FFF704
:1001E000CBFE0EE02A46022130460CF0BDFE08E0B0
:1001F0007D6330460CF0B1F8804640460BF0F1FAD2
:1002000000BF00BFBDE8F0812DE9F84F81460D46E3
:100210001646324629464846754B1B689847804625
:10022000B8F1010F02D04046BDE8F88F48460BF008
:1002300013F90446042D04D100214846FFF708FEB7
:10024000D3E015B900202063CFE00F2D3FD1484601
:100250000BF005F90090009805F035FB074606F015
:1002600097FD834606F0BEFD8246BAF1040F1BD10E
:100270006FB194F83E0020F00100401C84F83E006D
:10028000608FA08701214846FFF7E2FD1EE094F849
:100290003E0020F0010084F83E00A08F608701211D
:1002A0004846FFF7D5FD11E094F83E0000F001004C
:1002B00060B994F83E0020F00100401C84F83E0034
:1002C000608FA08701214846FFF7C2FD8DE00A2D0F
:1002D00003D1484613F042FE87E0102D12D194F866
:1002E0003E0000F0010000287FD094F83E0020F08E
:1002F000010084F83E00A08F608701214846FFF787
:10030000A7FD72E0112D58D13778132F01D0122F8D
:100310001ED194F83E0000F0010050B994F83E0060
:1003200020F00100401C84F83E0001214846FFF700
:100330008FFD608F401C218F88423DDA608F401C0A
:1003400060874846FFF747FD48460BF08FF933E0DA
:10035000142F01D0112F1CD194F83E0000F00100A1
:1003600050B994F83E0020F00100401C84F83E0093
:1003700001214846FFF76CFD608F00281CDD608F6F
:10038000401E60874846FFF726FD48460BF06EF991
:1003900012E01B2F10D194F83E0000F0010058B17C
:1003A00094F83E0020F0010084F83E00A08F6087A2
:1003B00001214846FFF74CFD17E0122D03D13046CE
:1003C0000121017011E0062D0FD13146002005E01A
:1003D00051F8202002B903E0421CD0B20728F7DB15
:1003E00000BF04A241F8202000BF40461CE70000E7
:1003F000480200206C765F64646C697374000000CE
:100400002DE9F04104460F4615461E461C212046A4
:10041000EFF732FF276065602068A060E660BDE806
:10042000F081000038B5044620212046EFF724FF74
:100430000020E0604FF4F07020804FF4487060803E
:1004400000206060A06820F00200A06006480068FC
:100450000090BDF80000A083A06820F00100401CBF
:10046000A0600020606138BDD88D030870B50546D6
:100470002C4809F0C7FA044624B90CB900BFFEE7BE
:10048000002070BD202229462046EFF7DCFE202107
:1004900004F59E70EFF7F0FE4FF4807104F13C001C
:1004A000EFF7EAFE442104F1240009F0A0FA1E4807
:1004B000006808B91C4804601B48066804600020F6
:1004C000C4F85C01002108460AF0F0FC206300211A
:1004D00008460AF0EBFC6063002108460AF0E6FCDF
:1004E000A0631249606B0BF0FAFA1049A06B0BF095
:1004F000F6FA206B0BF0BAF80B480660234603228D
:100500001E210B4811F056FE2062206A08B900BF78
:10051000FEE7206A08B90020B3E7206A11F0BCFFAB
:100520002046AEE7A40A00208C000020C807002067
:10053000A10602084168896921F0010142689161C0
:10054000704700B5014611B900F00CF8014609B931
:10055000002000BD087A00F00100FAE70146486873
:100560007047000001480068704700008C000020C0
:1005700000B5014611B9FFF7F5FF014611B94FF477
:10058000F07000BD087AC0F3400010B9B1F9000066
:10059000F7E7B1F90200F4E70146B1F85C01C0F3F6
:1005A0000900704710B5044614B9FFF7DBFF044695
:1005B0000CB9002010BDA06BFCE710B5044614B9BF
:1005C000FFF7D0FF04460CB9002010BD606BFCE7BC
:1005D00010B504461CB9044809F0EAF910BD2146DB
:1005E000014809F0EAF9F9E7A40A002010B5044629
:1005F00014B9FFF7B7FF04460CB9002010BD206BFB
:10060000FCE700B5014611B9FFF7ACFF014611B98F
:100610004FF4487000BD087AC0F3400010B9B1F93A
:100620000200F7E7B1F90000F4E701464868006806
:1006300020B14868406808B1012070470020FCE7FD
:1006400000B502461088518810FB01F31046FFF7F1
:10065000ECFF28B15068C068984201D1012000BD6C
:100660000020FCE770B5044620460AF0AFFE0546C0
:100670002C6320460AF0FAFF70BDB0F85C21C2F38B
:1006800009028A4203DA0022C0F85C2106E0B0F8D1
:100690005C21C2F30902521AC0F85C2170470000C5
:1006A0002DE9FC5F804612F013F801905249D8F80A
:1006B0000C0008600DF0A0FA0DF026FA4E48006814
:1006C000B0F85C01C0F3090000287DD04A480068FA
:1006D000FFF7B6FF002865D047480068FFF73EFFE8
:1006E00005460DF0ADFB00BFA86900F00100002831
:1006F000FAD1D5F808902968A868884201D16868BD
:1007000000E0286800903C480068FFF731FF06468B
:1007100000243EE03848006800F59E70005DB0BBE4
:10072000354800683C3030F93410334800683C30BC
:1007300000EBC400B0F9020006FB001047002E4990
:1007400009683C3101EBC400FAF798FA4FEA400B14
:10075000294800683C3000EBC400B0F902A00CE06E
:10076000009AD11909EB07005A46EFF76CFD07EB29
:1007700046070AF101000FFA80FA1F4800683C3072
:1007800000EBC400B0F906005045E9DA00BF601C78
:1007900084B219480068B0F85C01C0F30900A042B7
:1007A000B8DC00BF4FF48071134800683C30EFF7AD
:1007B00063FD20211048006800F59E70EFF75CFD96
:1007C00000200D49096800E012E0C1F85C010A4808
:1007D0000068806960B1019811F06CFF044606481A
:1007E0000068836905482146026803480068984705
:1007F00000F0DEFABDE8FC9F34000020300000204D
:1008000010B503460BB9002010BD082B07DA581E9F
:10081000074C54F82000405C5043000AF4E70120E4
:1008200000EB410050435C0090FBF4F0C0B2EBE7FA
:100830003C0000202DE9F84F06468A4614461F4624
:10084000DDF82C804FF0000B002C03DA4FF0010B89
:10085000604204B2002517E0424629462046FFF7D1
:10086000CFFF8146BBF1000F03D0A8EB090000F0D9
:10087000FF09711908B2CDF800903A4651460A9B1B
:1008800001F069FA681C05B2A542E5DBBDE8F88F06
:100890002DE9F84F82460E4614461F46DDF82C809F
:1008A0004FF0000B002C03DA4FF0010B604204B252
:1008B000002517E0424629462046FFF7A1FF814662
:1008C000BBF1000F03D0A8EB090000F0FF0970197D
:1008D00001B2CDF800903A4650460A9B01F03BFA2F
:1008E000681C05B2A542E5DBBDE8F88F2DE9FF4F96
:1008F0008DB0804689461C98B0F936B00F98834574
:1009000002DD0F980FFA80FB0F980FFA80FAAAEB1E
:100910000B0000B20C901C98808E05901D98FF284B
:1009200002D11C98007A04E01C98007A1D99484373
:1009300000120746DDE91A01884201DCE04D00E0C3
:10094000E04D4FF48770DDE91A12A84778B101979E
:10095000BDF81400ADF80000ABF101010BB2A8EB3B
:100960000A01491C08B24946109AF6F79FFE5A2020
:10097000DDE91A12A84770B10197BDF81400ADF86F
:100980000000ABF101010BB20C99414408B2494699
:10099000109AF6F78BFEB420DDE91A12A84778B159
:1009A0000197BDF81400ADF80000ABF1010003B2EF
:1009B000A9EB0A00401C01B24046109A15F042FA19
:1009C0000020DDE91A12A84770B10197BDF81400A4
:1009D000ADF80000ABF1010003B20C98484401B23D
:1009E0004046109A15F02EFA0AFB0AF004900C9873
:1009F00040430390CAF1000006B25AE148F2E830E1
:100A0000ADF82000ADF82200ADF82400ADF82600C6
:100A1000ADF81800ADF81A00ADF81C00ADF81E00D6
:100A2000CAF1000004B294E004FB04F006FB0600E7
:100A3000029004990298884200D988E03146204605
:100A4000F6F728F8B43800B20B900B98B43000B227
:100A50000A900A9988B2DDE91A12A84738B1BDF99F
:100A60002000994988420FD1ADF820400CE0BDF933
:100A700020009549884207D0BDF91800884203D16B
:100A8000601E00B2ADF818000B98C0F5B47000B24B
:100A90000A900A9988B2DDE91A12A84738B1BDF95F
:100AA0002200894988420FD1ADF822400CE0BDF9FF
:100AB00022008549884207D0BDF91A00884203D137
:100AC000601E00B2ADF81A000B98C0F1B40000B27D
:100AD0000A900A9988B2DDE91A12A84738B1BDF91F
:100AE0002400794988420FD1ADF824400CE0BDF9CB
:100AF00024007549884207D0BDF91C00884203D103
:100B0000601E00B2ADF81C000B980A900A9988B2DA
:100B1000DDE91A12A84738B1BDF926006A498842B2
:100B20000FD1ADF826400CE0BDF926006649884299
:100B300007D0BDF91E00884203D1601E00B2ADF897
:100B40001E00DDE90201884200D205E000BF601C02
:100B500004B2002CFFF668AF00BFBDF920005A496F
:100B600088421CD0BDF91800884203D1601E00B233
:100B7000ADF818000197BDF81400ADF80000BDF8FD
:100B80001820BDF820C0A2EB0C0213B209EB06023C
:100B900011B20CEB080210B2109AF6F787FDBDF9FE
:100BA0002200494988421CD0BDF91A00884203D16D
:100BB000601E00B2ADF81A000197BDF81400ADF840
:100BC0000000BDF81A20BDF822C0A2EB0C0213B23F
:100BD000A9EB060211B20CEB080210B2109AF6F75C
:100BE00065FDBDF92400384988422DD0BDF91C00AF
:100BF000884203D1601E00B2ADF81C000197BDF819
:100C00001400ADF80000BDF91C20BDF924C0A2EB12
:100C10000C02002A06DDBDF91C20BDF924C0A2EBA0
:100C20000C0205E0BDF92420BDF91CC0A2EB0C02AA
:100C300013B209EB060211B2BDF81C20A8EB0202A8
:100C400010B2109AF6F732FDBDF926001E4988420F
:100C50002DD0BDF91E00884203D1601E00B2ADF850
:100C60001E000197BDF81400ADF80000BDF91E206C
:100C7000BDF926C0A2EB0C02002A06DDBDF91E203C
:100C8000BDF926C0A2EB0C0205E0BDF92620BDF996
:100C90001EC0A2EB0C0213B2A9EB060211B2BDF802
:100CA0001E20A8EB020210B2109AF6F7FFFC701C8F
:100CB00006B2002EFFF6A2AE11B0BDE8F08F000024
:100CC0007F6001086D600108E883FFFF2DE9F041B6
:100CD00004460D4616460CF049FF8046FFF731FCEE
:100CE0000746B4EB650F04DBC5F34F040CB1601E7F
:100CF00084B2B4EB660F04DBC6F34F040CB1601E84
:100D000084B2002C01DDE01B84B22046BDE8F081F6
:100D10002DE9FF4F85B0804689461D46102D02DA29
:100D200009B0BDE8F08FFB2D00DDFF254A464146A6
:100D300003A8F9F7F0FF074607B9F1E70CF016FF33
:100D400083465846FFF70AFC0446BDF80C00218A8A
:100D5000401A00B2ADF80400BDF80E10608A081AFF
:100D600000B2ADF80600BDF81000218A401A00B2AA
:100D7000ADF80800BDF81210608A081A00B2ADF88C
:100D80000A00D4F808A004F11000F9F77EFF064627
:100D9000BDF8060010FB06F00AEB400A0095A068BB
:100DA00001AA3146079B13F0C5FB00BFB8E700005E
:100DB00010B50648006840B10448006809F078FCA6
:100DC0000020024908600249086010BDA800002008
:100DD0003800002010B5044613480068844202D849
:100DE0001248006810BD104804601048006860B9DF
:100DF000204609F037FC0D4908600846006808B92C
:100E000000BFFEE709480068ECE721460748006894
:100E100009F0AEFC054908600846006808B900BF43
:100E2000FEE702480068DDE738000020A800002047
:100E30002DE9F04387B006460F4615469846DDF883
:100E40003890C5B9FF231D4A3946304600F0EEFF01
:100E500000204FF6FF71CDE90201CDE9041018A181
:100E6000FF23164ACDE900103946304600F02CF831
:100E700007B0BDE8F08343462A4639463046CDF8F0
:100E8000009005F05BFD0446B4B9FF230B4A3946D8
:100E9000304600F0CBFF00204FF6FF71CDE9020194
:100EA000CDE9041006A1FF23044ACDE9001039461C
:100EB000304600F009F8DBE700BFD9E77C080020E6
:100EC0004E6F0A64617461002DE9FF4FA7B082463E
:100ED0001446DDF8E480DDE93476606A269006F099
:100EE000020020B95046F9F7DEFE259010E047F6E3
:100EF0001841B4F92A008DE84300B4F92830394686
:100F000009A8626A11F0EEFCBDF92400259000BF2B
:100F100000BF2698007A618D084400B2249000201A
:100F20002390BAF80000ADF88800BAF80200ADF8D6
:100F30008A00002021902090369870B13698B0F940
:100F4000000021903698B0F902002090BDF88A1078
:100F50002098084400B2ADF88A000025681E1F9052
:100F6000B8F1000F24D0209810BBBAF90200002875
:100F70001EDABAF90210D8F80800401A002805DD78
:100F8000BAF90210D8F80800401A04E0BAF90200D1
:100F9000D8F80810401A24994900C1F580618842A8
:100FA00003DD4FF0FF30C8F80000D8F800001F90B4
:100FB000B8F1000F0BD01F98002808DB1F9DBDF86B
:100FC0008A00B8F80410084400B2ADF88A00009610
:100FD000B4F928207819DDE9253111F0F3FB00EB95
:100FE00005092EE04D460096B4F928207819DDE970
:100FF000253111F0E7FB8144BDF88A10249808449C
:1010000000B2ADF88A00B8F1000F15D0BDF98A0022
:1010100010F5806F10DBD8F8000000280CDAC8F853
:101020000050BDF98A00BAF90210401AC8F804004D
:10103000BAF90200C8F80800785D10B92BB0BDE815
:10104000F08FBDF98A10249801442898B0F9020065
:101050008142C7DB06F00400D0B10096B4F9283015
:10106000A9EB050291B27819269A11F0A1FC239000
:101070005046F9F718FE2399A0EB010B0BEBDB7040
:10108000BDF8881001EB600000B2ADF8880018E0F0
:1010900006F00800A8B10096B4F92830A9EB0502C3
:1010A00091B27819269A11F083FC23905046F9F7F3
:1010B000FAFD2399401ABDF88810084400B2ADF833
:1010C00088002A98FF2802D12C20005D04E02C2003
:1010D000005D2A99484300121E9000201D901B902D
:1010E000AF490AA80EF05AF8608CADF82A000AA899
:1010F000BDF82A10ADF82C104BE1369830B1BDF890
:1011000088102198084400B2ADF8880000201D9096
:101110001C95E5E01CA93846A24A12689047099040
:101120001C99781800219F4A12689047089006F091
:101130000100002877D09CA001780998814213D142
:101140001D9828B91C9880B21B9001201D90C7E003
:101150001D98012802D100201D9005E01D9802284D
:1011600002D100201D90BBE01D9801285BD1099899
:10117000202857D1DDE91B01081A07284ED11B98FA
:101180003844016805918088ADF8180000208DF87A
:101190001A009DF81500F6F761FA83469DF81400D1
:1011A000F6F75CFA0BEB001004909DF81700F6F7C9
:1011B00055FA83469DF81600F6F750FA0BEB00102F
:1011C00003909DF81900F6F749FA83469DF8180038
:1011D000F6F744FA0BEB00100290049BD8B2039B85
:1011E000D9B2029BDAB24FEAD20CBDF804306CF3EC
:1011F000040301934FEA910CBDF804306CF34A13D9
:1012000001934FEAD00CBDF804306CF3CF23019367
:10121000BDF804C063461A9302E004E0208C1A90E3
:1012200002201D905CE0206A07901D98022801D1E1
:101230001A980790DDE90821269803F0B8FD00B25E
:1012400019904FF6FF713798884230D0389888420D
:101250002DD03846554A1C991268904783463798D6
:10126000834523DD3898834520DCBDF88800ADF840
:101270001400BDF88A00ADF81600BDF88810199862
:101280000144208D0844401E00B2ADF81800BDF89E
:101290008A1024980844401E00B2ADF81A000AAA29
:1012A00005A81E9B289900F0C1FD00BF00BF1E9835
:1012B0000190BDF81C00ADF8000022A8099B269AF9
:1012C000289900F075F81998002808DDBDF88810F5
:1012D000228D19981044084400B2ADF8880000BF70
:1012E0001C984845FFF416AF4D460096B4F92820E7
:1012F0007819DDE9253111F065FA8144BAF800006A
:10130000ADF8880006F00400D0B10096B4F928309A
:10131000A9EB050291B27819269A11F049FB2390A6
:101320005046F9F7C0FC2399A0EB010B0BEBDB70E7
:10133000BDF8881001EB600000B2ADF8880018E03D
:1013400006F00800A8B10096B4F92830A9EB050210
:1013500091B27819269A11F02BFB23905046F9F799
:10136000A2FC2399401ABDF88810084400B2ADF8D9
:101370008800BDF88A102498084400B2ADF88A00AD
:10138000BDF98A102898B0F90600814200DD55E6C3
:1013900000BF785D00287FF4B0AE00BF4EE60000CD
:1013A000B80800208C0100202300000098010020D4
:1013B0002DE9FF4F9DB00C46D1A000681C90D1A034
:1013C00000681B90D0A30FCB17AD0FC52B9810282A
:1013D00002DA21B0BDE8F08F2B98FB2801DDFF2059
:1013E0002B901F9800B9F4E7002315A9DDE91F022F
:1013F00003F08CFC1490149800B9EAE71D9800885B
:101400009DF95810084405B21F98017A407A091ACC
:101410001D98408808449DF85710401A9DF95910AE
:10142000401A06B29DF85A00012806D0022809D0B9
:1014300004280CD0082814D10EE00DF1700B802088
:1014400013900FE00DF16C0BC02013900AE00DF12A
:101450005C0BF020139005E04FF0000BFF20139081
:1014600000E0B6E700BFDDE91F0103F047FC82465C
:10147000BAF1000F00D1ACE79DF856002844B4F94A
:10148000001088420EDBB4F90400A8420ADB9DF884
:1014900057003044B4F90210884203DBB4F9060067
:1014A000B04200DA95E70CF061FB11901198FFF75C
:1014B00055F8804608F11000F9F7E7FB1090D8F8CE
:1014C00008709DF85600C0100D909DF8560000F071
:1014D000070018B10D98401CC0B20D909DF8560041
:1014E0009DF85A1010FB01F00C90B4F90000A842CE
:1014F00001DC002002E0B4F90000401B00B20B90B8
:101500009DF856002844B4F90410884202DC9DF886
:10151000560003E0B4F90400401B401C00B20A90DE
:10152000B4F90200B04201DC002002E0B4F902008C
:10153000801B00B209909DF857003044B4F90610A2
:10154000884202DC9DF8570003E0B4F90600801BD6
:10155000401C00B20890B8F91200311A109801FB33
:101560000050B8F91010401A07EB4007109A0B9979
:10157000099800FB021007EB40070C9909984843B3
:101580009DF85A200B9901FB0200079007980AEB7F
:10159000D00A079800F007090020049009980E90DF
:1015A000A7E0139840FA09F012900B980F9080E092
:1015B000C9F108009DF85A10421A9AF800001299D1
:1015C0000840104106900698D0B32B98FF280AD106
:1015D0009DF85A00082801D1069802E006981BF8E9
:1015E000000005900FE09DF85A00082804D12B99BF
:1015F00006984843001205E006981BF800002B9956
:1016000048430012059011984069D0B105980290A6
:10161000BDF8A800ADF804000E988119B8F81200C2
:10162000081A00B200900F982844B8F81020801AC9
:1016300003B2D8F808101198D0F814C0109AE047F7
:101640001BE03888BDF8A810884216D00598FB2802
:1016500003DDBDF8A80038800FE0059810280CDDE8
:10166000049850B9388802900146059A2A98FDF7E7
:101670004BF90390BDF80C003880BF1C9DF85A0050
:10168000C0F1080048450ADD9DF85A0048441FFA99
:1016900080F99DF85A1012980841129005E04FF019
:1016A0000009139812900AF1010A0F98401C00B229
:1016B0000F900A990F988842FFF67AAF9DF856105E
:1016C0000A98091A0B9808449DF85A1000FB0190DB
:1016D0001FFA80F90AEBE90A09F00709DDE90A01B6
:1016E000411A1098401A07EB40070E98401C00B2B0
:1016F0000E9008990E988842FFF653AF00BF68E637
:1017000000FF00000055AAFF001122334455667700
:101710008899AABBCCDDEEFF2DE9F04F8BB00446D3
:101720000D4617461E46DDF85080F08E10B90BB0FE
:10173000BDE8F08FB4F90000B5F90010884206D179
:10174000B4F90200B5F90210884200D1EFE7B7F909
:101750000010B6F93600081AB4F90010884209DD05
:10176000B7F90010B6F93600081AB5F9001088422A
:1017700000DDDCE7B7F90410B6F936000844B4F927
:101780000010884209DAB7F90410B6F936000844A7
:10179000B5F90010884200DAC9E7B7F90210B6F9C6
:1017A0003600081AB4F90210884209DDB7F90210B0
:1017B000B6F93600081AB5F90210884200DDB6E71E
:1017C000B7F90610B6F936000844B4F90210884299
:1017D00009DAB7F90610B6F936000844B5F902106F
:1017E000884200DAA3E7B4F90000B5F90010401A06
:1017F000002805DDB4F90000B5F90010401A04E036
:10180000B5F90000B4F90010401AB4F90210B5F9A6
:101810000220891A002905DDB4F90210B5F9022069
:10182000891A04E0B5F90210B4F90220891A884235
:101830001FDDB4F90000B5F9001088420CDA2088E9
:10184000ADF80C006088ADF80E002888ADF80800EF
:101850006888ADF80A002BE02888ADF80C0068888D
:10186000ADF80E002088ADF808006088ADF80A00D9
:101870001EE0B4F90200B5F9021088420CDA2088A3
:10188000ADF80C006088ADF80E002888ADF80800AF
:101890006888ADF80A000BE02888ADF80C0068886D
:1018A000ADF80E002088ADF808006088ADF80A0099
:1018B00002AA03A904A8F8F76DFCBDF91210BDF93E
:1018C0001600814206D143463246394604A8F7F74E
:1018D0007BFCBCE0BDF91000BDF91410884206D1B4
:1018E00043463246394604A8F8F7EBFBAFE04FF029
:1018F00000090CF03BF98346FEF723FE8246BAF15D
:10190000000F74D09DF82800F0B3BDF91210BDF996
:10191000160081421EDA4FF00109BDF81400ADF83F
:101920000400BDF81600401E00B2ADF8060001AA82
:1019300003A904A8F8F72EFCBDF92200002802DD57
:10194000BDF9220002E0BDF92200404200B2ADF82C
:10195000220072E0BDF91210BDF9160081426CDD63
:101960004FF00009BDF81400ADF80400BDF81600F2
:10197000401C00B2ADF8060001AA03A904A8F8F7BC
:1019800009FCBDF9220000E00CE0002802DDBDF9F1
:10199000220002E0BDF922004042404200B2ADF810
:1019A00022004AE0BDF91000BDF9141088421FDA88
:1019B0004FF00109BDF81400401E00B2ADF804005C
:1019C000BDF81600ADF8060001AA03A904A8F8F7AF
:1019D000E1FBBDF91E00002802DDBDF91E0002E09A
:1019E000BDF91E00404200B2ADF81E0025E025E022
:1019F000BDF91000BDF9141088421EDD4FF000093A
:101A0000BDF81400401C00B2ADF80400BDF816008B
:101A1000ADF8060001AA03A904A8F8F7BBFBBDF9BD
:101A20001E00002802DDBDF91E0002E0BDF91E0007
:101A30004042404200B2ADF81E0000BF33463A4675
:101A4000494604A8CDF80080F7F728FC00BF00BF86
:101A50006DE62DE9FF4F8FB090461298102802DAFC
:101A600013B0BDE8F08F1298FB2801DDFF20129023
:101A70000DA8DDE90F12F9F74EF90C900C9800B99A
:101A8000EEE71D9808B1032000E0022082460F987F
:101A9000F9F7FBF80B900F98B0F90200BDF936107A
:101AA000884209DABDF936100F98B0F90200081A19
:101AB0000B99484300FB0A880F98B0F90000BDF964
:101AC0003410884207DABDF934100F98B0F90000DD
:101AD000081A00FB0A880CF049F881464846FEF7D0
:101AE0003DFD0746BDF83400398A401A00B2ADF812
:101AF0003400BDF83610788A081A00B2ADF8360006
:101B0000BDF83800398A401A00B2ADF83800BDF887
:101B10003A10788A081A00B2ADF83A0007F11000BE
:101B2000F9F7B3F80A90BD68BDF836100A9811FBB2
:101B300000F005EB4005BDF9340005EB40050DA8AC
:101B4000F9F7A3F80990002008901C9800284AD1C2
:101B50001D98002847D11298FF2844D11F980028CB
:101B600041D1D9F8140040B3BDF9364020E0002639
:101B700016E006FB0A800088079012980290BDF8D4
:101B80001C00ADF804000094BDF83400304403B2EA
:101B9000B968D9F814C048460A9AE047701C06B2E2
:101BA00009988642E5DB0B9800FB0A88601C04B2AA
:101BB000BDF93A00A042DADACBE0BDF936400DE0DB
:101BC00041462846129B099A12F0B4FD0B9800FB7F
:101BD0000A880A9805EB4005601C04B2BDF93A007A
:101BE000A042EDDAB5E00020079007980690DDE905
:101BF0001E020699FCF788FE0590BDF93640A2E06A
